:100000000C9491010C94A3010C94A3010C94CF01C6
:100010000C9416120C94A3010C94A3010C94A3014C
:100020000C94A3010C94A3010C94A3010C94B21A98
:100030000C94A3010C94A3010C94A3010C94A301B0
:100040000C94331A0C94A3010C948C270C940E2856
:100050000C94A3010C94A3010C94A3010C94A30190
:100060000C94A3010C94A301F130F730FA30FD3069
:1000700002310A311231AD31AD31AD311F31223192
:100080002B313431AD31AD31AD31AD31AD31AD317B
:1000900040314A3156315E3161316A3173317931E3
:1000A000AD31AD3182318B319631A2044410441010
:1000B000AC04B904C604D3044410D7044410E504C6
:1000C0004410EF04F90403054410441044101305D0
:1000D00020052D05C227C427FD27FD27FD27FD2765
:1000E000FD27FD27FD27FD27FD27FD27CA27CC2754
:1000F000CE27D027D227D427D627D827FD27DC27FD
:10010000DE27E027E227E427E627FD27E827084A3D
:10011000D73B3BCE016E84BCBFFDC12F3D6C74311B
:100120009ABD56833DDA3D00C77F11BED9E4BB4C72
:100130003E916BAAAABE000000803F05A84CCDB23C
:10014000D44EB93836A9020C50B9918688083CA61D
:10015000AAAA2ABE000000803F000D0A4772626C06
:1001600020312E3166205B27242720666F7220689D
:10017000656C705D0D0A00244E005B4F50543A00D0
:100180005B5645523A312E31662E3230313730319E
:1001900033313A005B544C4F3A005B4739323A00F6
:1001A0003330003238005B4700204700204D0020EC
:1001B000530020460020540033382E005B47433A5A
:1001C00047005B484C503A24242024232024472015
:1001D000244920244E2024783D76616C20244E78DA
:1001E0003D6C696E6520244A3D6C696E6520245320
:1001F0004C50202443202458202448207E202120B5
:100200003F206374726C2D785D0D0A00536C656538
:1002100070696E6700526573746F72696E672073E0
:1002200070696E646C6500526573746F72696E6795
:100230002064656661756C74730050676D20456E4F
:100240006400436865636B204C696D697473004397
:100250006865636B20446F6F720044697361626C00
:10026000656400456E61626C656400436175746924
:100270006F6E3A20556E6C6F636B6564002724487F
:10028000277C2724582720746F20756E6C6F636B52
:1002900000526573657420746F20636F6E74696EAD
:1002A0007565005B4D53473A006F6B0D0A00414C7A
:1002B00041524D3A007C413A007C4F763A007C57DF
:1002C000434F3A007C506E3A007C46533A007C42E1
:1002D000663A007C57506F733A007C4D506F733A0A
:1002E00000536C65657000446F6F723A0043686537
:1002F000636B00416C61726D00486F6D65004A6F01
:100300006700486F6C643A0052756E0049646C6512
:10031000000D0A005B5052423A006572726F723AE9
:10032000000011241FBECFEFD8E0DEBFCDBF27E015
:10033000A0E0B1E001C01D92A136B207E1F70E9432
:100340008D2C0C94513B0C940000EBE6F0E0808186
:10035000897E8083E8E6F0E080818E7F8083089547
:1003600084B1897E84B985B1866185B98091700137
:1003700083FF0BC080916B00866180936B0080913E
:10038000680081608093680008950C94A501F99934
:10039000FECF92BD81BD81E08FBB80B508951F92D5
:1003A0000F920FB60F9211242F933F934F935F93A9
:1003B0006F937F938F939F93AF93BF93EF93FF932D
:1003C00080911A01813049F080914E05811105C05C
:1003D0000E94182681E00E94A611FF91EF91BF9123
:1003E000AF919F918F917F916F915F914F913F91CD
:1003F0002F910F900FBE0F901F90189593B196718B
:100400008091700186FD02C086E19827992349F00A
:1004100091FB882780F992FD8260907119F08460C9
:10042000089580E0089561E071E088E991E00C941E
:10043000BF118F929F92AF92BF92CF92DF92EF92B5
:10044000FF920F931F93CF934B017A016C01C40E5F
:10045000D51E8C01C0E05B01A81AB90AC501800F46
:10046000911F0C151D0599F00E94C701C11108C00C
:100470002C2FCC0F330B232F221F2227221F01C02A
:1004800021E0C22FC80FF80181938F01E7CFC4018B
:100490008E0D9F1D0E94C70121E030E0C81711F0AA
:1004A00020E030E0C901CF911F910F91FF90EF90B4
:1004B000DF90CF90BF90AF909F908F900895F89469
:1004C000F999FECF92BD81BD81E08FBB80B58627B3
:1004D000482F082E000C550B262F30E024233523FF
:1004E000232B39F06F3F19F060BD84E006C084E132
:1004F00004C0882321F060BD84E28FBBF99A789410
:1005000008958F929F92AF92BF92CF92DF92EF9217
:10051000FF920F931F93CF937C014A016B01C40E8E
:10052000D51E8B01C0E05C01A61AB70AC8018A0D6E
:100530009B1D0C151D0599F0C11108C02C2FCC0F67
:10054000330B232F221F2227221F01C021E0F80195
:1005500061918F01C22FC60F0E945F02E7CF6C2FFF
:10056000C701880D991DCF911F910F91FF90EF90BA
:10057000DF90CF90BF90AF909F908F900C945F02D0
:1005800090911B01911108C0811102C0439802C0D3
:1005900086FD439A1092250108952F923F924F9223
:1005A0005F926F927F928F929F92AF92BF92CF9203
:1005B000DF92EF92FF920F931F93CF93DF93CDB70C
:1005C000DEB7CA54D1090FB6F894DEBF0FBECDBF57
:1005D0008AE3E0ECF1E0DF011D928A95E9F78BE018
:1005E000E0E8F1E0A1ECB1E001900D928A95E1F72D
:1005F00080911107843211F00C94681081E080938F
:10060000C1011092C20183E08A8FB1E0BBA3212C0B
:10061000312C18AA1FA6C12C1B8E1F8EDD24D3944B
:100620006AE0A62EB12C0EE571E6872E73E0972EB8
:100630008A8DE82FF0E0EF5EF84FE080EE2009F4BD
:100640003EC29FEB9E0D9A3110F00C9434108F5FD8
:100650008A8FBE016A5E7F4FCE014A960E94E229D0
:10066000882311F40C9436104E885F88688C798C3E
:10067000C301B2010E94BC3A0E94FA37162F70E003
:1006800080E090E00E942B389B01AC01C301B201D5
:100690000E94813620E030E048EC52E40E94D939D3
:1006A0000E94463A0E94FA37CB01E7E4EE1629F0A1
:1006B000FDE4EF1609F4EAC034C1183209F4C5C0EC
:1006C00020F5143168F4113108F08AC0143009F4AF
:1006D00052C008F464C01A3009F445C00C944410A8
:1006E0001C3109F440C050F4163110F00C94441041
:1006F00025E1211B2093C30126E0ACC01E3199F1F6
:10070000163209F44CC00C9444101D3309F497C000
:10071000A8F4153381F140F41B3209F47AC0113387
:1007200009F477C00C9444101C3310F00C9444105E
:100730006AEC610F6093C70129E08CC01C3538F466
:100740001A3508F053C0103581F10C9444101C3553
:1007500051F01F3510F00C944410202F211B2093D2
:10076000C20125E077C0009731F42F8D21110C9440
:10077000381031E03F8F1093C001212F2D7F2C3195
:1007800019F01C3509F063C0009721F00A9711F0A9
:100790000C944410610F6093C00120E060C06F8D25
:1007A00061110C943810A2E0AF8F1093C101163282
:1007B00009F04FC08431910559F08E31910541F017
:1007C0008832910529F08233910511F00C94441080
:1007D000B5010E94EE3A66576093C10121E03FC027
:1007E0006FEE610F6093C50122E034C0892B31F4B4
:1007F00066EA610F6093C40123E031C06A3071057D
:1008000011F00C9444101A3511F40C94441024E0A7
:1008100026C0BF8DB1110C943810113331F41092F1
:10082000C60128E0E3E0EF8F1AC00A9711F00C949C
:100830004410D092C60128E0F3E0FF8F10C0892B4E
:1008400011F00C9444102AE00AC027E003C020E015
:1008500001C021E0892B19F087E10C946C1081E034
:1008600090E002C0880F991F2A95E2F72FA538A9BA
:1008700028233923232B19F085E10C946C102FA524
:1008800038A9282B392B38AB2FA7D2CE892B21F7AB
:10089000163018F4133058F016C0183010F40C94B9
:1008A00044101A30F0F01E3159F00C94441011230A
:1008B00019F0113001F104C033E03093C8011BC0BE
:1008C0001093C80118C0143021F0153031F080E1C8
:1008D00001C080E28093CA0102C01092CA018CE07C
:1008E0000BC0193021F080E48093C90102C010923E
:1008F000C9018DE001C08BE0A1E0B0E002C0AA0F09
:10090000BB1F8A95E2F72FA538A92A233B23232B67
:1009100009F0B2CFEFA5F8A9EA2BFB2BF8ABEFA7B4
:1009200087CE8E2DEE0C990BAA0BBB0BFC01E65467
:10093000F109E531F10510F00C944410EB5AFF4F2A
:100940000C94243B4092CC015092CD016092CE0198
:100950007092CF0180E08DC04092D0015092D101C1
:100960006092D2017092D301FC2DF160CF2E81E014
:1009700080C04092D4015092D5016092D60170920D
:10098000D7012C2D2260C22E82E073C04092D80184
:100990005092D9016092DA017092DB013C2D3460F3
:1009A000C32E83E066C01093DC0184E062C0C30103
:1009B000B2010E94F3376093DD017093DE018093F2
:1009C000DF019093E00185E054C04092E101509234
:1009D000E2016092E3017092E40186E04AC0409235
:1009E000E5015092E6016092E7017092E80187E02C
:1009F00040C04092E9015092EA016092EB0170928E
:100A0000EC0188E036C020E030E04FE753E4C3015A
:100A1000B2010E949939181614F40C943A101093EC
:100A2000ED0189E026C04092EE015092EF01609204
:100A3000F0017092F1016B8D61606B8F8AE019C0DB
:100A40004092F2015092F3016092F4017092F5012C
:100A50008B8D82608B8F8BE00CC04092F6015092A0
:100A6000F7016092F8017092F9019B8D94609B8F61
:100A70008CE0EE24E394F12C082E02C0EE0CFF1C57
:100A80000A94E2F7970122213321232B11F00C94D1
:100A90003C10D40102C0B595A7958A95E2F7A0FF56
:100AA0000BC020E030E0A901C301B2010E947737FA
:100AB00087FF02C00C943E102E283F28B9CDBB8D75
:100AC000BB2329F0EF8DE11102C0F2E0FF8F25FE7C
:100AD0000FC08091DD019091DE01A091DF01B09106
:100AE000E00181389649A849B10514F00C944010F2
:100AF0003BA1332301F120FC02C00C944A108091E9
:100B0000C301813009F03FC023E333E34BEC51E4F0
:100B10006091CC017091CD018091CE019091CF0177
:100B20000E94D9396093CC017093CD018093CE019E
:100B30009093CF0128C08091C201813071F46F8DF4
:100B4000623009F58091C1018035E9F08823D9F040
:100B500020FC02C00C944A1016C0809181018111C2
:100B600012C020FCCCCF80918F0190919001A09178
:100B70009101B09192018093CC019093CD01A0930B
:100B8000CE01B093CF0130FC10C080918B019091C9
:100B90008C01A0918D01B0918E018093E901909319
:100BA000EA01A093EB01B093EC018091C001843085
:100BB00039F426FC03C08CE10C946C10E89426F800
:100BC0008091C501882369F0813029F48BAF1DAA7B
:100BD00092E09BAB0BC01BAEA2E0ADABB1E0BBABF8
:100BE00005C0E2E0EBAFF1E0FDAB1BAA8091C301D1
:100BF000813021F02F8D2330A9F52BC04EEEE42E4D
:100C000041E0F42E00E010E03B8DA32EB12CC50195
:100C1000002E02C0959587950A94E2F780FF10C0D8
:100C200023E333E34BEC51E4D7016D917D918D913A
:100C30009C910E94D939F7016083718382839383E9
:100C40000F5F1F4FF4E0EF0EF11C03301105F9F6B2
:100C5000D1CF8091C601813029F42B8D243011F041
:100C60000C9442108CE0E4EAF1E0DE011196019070
:100C70000D928A95E1F78FA598A991FD09C09091F1
:100C8000C0019FA39A30C9F09C3509F4AFC010C1D0
:100C90008091C701873018F08DE10C946C10909111
:100CA0008601981761F3BE016F5F7F4F0E94701D30
:100CB000882311F40C945810E2CFAB8DA11103C01E
:100CC0008AE10C946C10C10180759927892B09F475
:100CD00072CF6091E1017091E2018091E301909106
:100CE000E4010E94BC3A0E94FA376730A8F680916E
:100CF000DC01843141F0823011F00C94441027FE65
:100D000002C00C944410BFEA2B22662319F06150F4
:100D10006DA703C0E091C701EDA760ED71E08DA55F
:100D20000E94701D882311F40C945810D090DC019F
:100D30004090BC015090BD016090BE017090BF0119
:100D400000ED11E038E9A32E31E0B32EE12CF12CB7
:100D5000FB8D8F2E912CC4010E2C02C0959587958A
:100D60000A94E2F780FF34C024E1D21228C0D501F2
:100D700058962D913D914D915C915B976D917D9130
:100D80008D919C910E948136F801268D378D40A16E
:100D900051A10E948136D8016D937D938D939C93D0
:100DA0001397B2E0EB16F10499F4A30192010E94AB
:100DB0008136F801608371838283938309C0F801CF
:100DC000868D978DA0A1B1A180839183A283B383E7
:100DD000FFEFEF1AFF0A0C5F1F4F24E0A20EB11CB9
:100DE00033E0E316F10409F0B6CF2FC16B8D662313
:100DF00009F466CF4090BC015090BD016090BE01E7
:100E00007090BF010EEE11E0A12CB12CE12CF12C61
:100E1000862E912CF501E058FE4FC4010E2C02C025
:100E2000959587950A94E2F780FF2BC0A1E0B0E08A
:100E3000AC0FBD1FAA0DBB1D2D913D914D915C9135
:100E4000608D718D828D938D0E948136D8012D9198
:100E50003D914D915C910E948136F80160837183D0
:100E600082839383F2E0EF16F104A1F4A3019201CF
:100E70000E948136D8016D937D938D939C93139737
:100E800009C080A991A9A2A9B3A9F801808391837F
:100E9000A283B383FFEFEF1AFF0A24E0A20EB11C76
:100EA0000C5F1F4F33E0E316F10409F0B3CFCCC061
:100EB0006F8D633071F48FA18E3109F48BC085334F
:100EC00009F4BCC08C3109F0BFC060ED71E086E070
:100ED00084C09B8D992379F3D090C4014090BC01CC
:100EE0005090BD016090BE017090BF0128E9A22E14
:100EF00021E0B22E0EEE11E0DE0111964D01E12C43
:100F0000F12CE92FF0E0FEA7EDA78DA59EA50E2CF4
:100F100002C0959587950A94E2F780FD0BC0F50114
:100F200080819181A281B381F80180839183A28322
:100F3000B3833FC0FFA1F533E1F1D11029C0D50142
:100F400058962D913D914D915C915B97F401608194
:100F50007181828193810E948236D8012D913D91C9
:100F60004D915C910E948236F80160837183828387
:100F70009383F2E0EF16F104E1F4A30192010E94E1
:100F80008236D8016D937D938D939C93139711C0F6
:100F9000F5012081318142815381D8016D917D918C
:100FA0008D919C910E948236F801608371838283C7
:100FB0009383FFEFEF1AFF0A24E0A20EB11C0C5F2F
:100FC0001F4F34E0830E911C63E0E616F10409F034
:100FD0009CCF71CF60ED71E087E00E94701D882387
:100FE00011F40C9458108B8D811103C01DA61F8E17
:100FF0002CC020E030E080E090E0AB8D4A2F50E044
:10100000BA01082E02C0759567950A94E2F760FD53
:101010000EC0F901E058FE4F808C918CA28CB38CED
:10102000F901E054FE4F808A918AA28AB38A019620
:101030002C5F3F4F8330910519F706C08091C101A5
:10104000823010F00C9446101DA6B091C101BFA3D0
:10105000B03529F4EB8DE1110C94481074C2FF8D6A
:10106000F23009F070C22FA1211104C03B8D311163
:101070006AC22BC020E030E0A9016091CC017091E0
:10108000CD018091CE019091CF010E9477378823C6
:1010900011F40C944A106FA16C3809F43EC240F46C
:1010A0006230A9F06330B1F0613009F04CC20AC07F
:1010B0008FA18E3809F431C208F42CC28F3809F49C
:1010C00029C241C29B8D91113EC21F8E3CC2ABA171
:1010D000A460ABA3BB8DBB2309F4F2CDEBA90E2F0B
:1010E00010E03DA9232F30E03AA729A781E090E046
:1010F0007C010DA802C0EE0CFF1C0A94E2F702C0AE
:10110000880F991FEA95E2F7E82AF92A8B2F90E0D9
:101110008E219F21892B09F4BFC7F801EE0FFF1F15
:10112000EE0FFF1FE054FE4FD801AA0FBB1FAA0FFE
:10113000BB1FA856BE4F2D913D914D915C9166A568
:1011400077A580A991A90E9481364B015C01E9A590
:10115000FAA5EE0FFF1FEE0FFF1FE054FE4FA9A5EB
:10116000BAA5AA0FBB1FAA0FBB1FA856BE4F2D9131
:101170003D914D915C9166A577A580A991A90E94AA
:1011800081366FAB78AF89AF9AAF310160E86622E4
:10119000772427FEEFC0E89427F84CE050E06EEE8D
:1011A00071E088E991E00E94443B892B11F481E2CF
:1011B00093C78091C3018130B1F423E333E34BEC57
:1011C00051E46091E5017091E6018091E701909111
:1011D000E8010E94D9396093E5017093E60180939C
:1011E000E7019093E8014090E5015090E60160909E
:1011F000E7017090E801A5019401C501B4010E94C6
:10120000D93923966CAF7DAF8EAF9FAF23972FA9AF
:1012100038AD49AD5AADCA01B9010E94D9392796F6
:101220006CAF7DAF8EAF9FAF279720E030E040E8F6
:1012300050E4C301B2010E94D939A30192010E9476
:10124000D93923962CAD3DAD4EAD5FAD23970E94AD
:10125000813627962CAD3DAD4EAD5FAD27970E94F0
:1012600081366B017C0120E030E0A9010E947737D4
:1012700087FD14C7C701B6010E94783A6B017C0153
:1012800027962CAD3DAD4EAD5FAD279723966CAD47
:101290007DAD8EAD9FAD23970E9482360E94783A35
:1012A0009B01AC01C701B60190580E9481376B01C8
:1012B0007C018FA1833021F4F7FAF094F7F8F094D1
:1012C00020E030E0A901C301B2010E94773787FF17
:1012D0000FC0F7FAF094F7F8F094D301C201B058B8
:1012E0008093E5019093E601A093E701B093E801B4
:1012F000000F111F000F111F00531E4FA701960171
:101300006FA978AD89AD9AAD0E94D9399B01AC0126
:10131000C501B4010E94813620E030E040E05FE387
:101320000E94D939D8016D937D938D939C93139727
:1013300009A51AA5000F111F000F111F00531E4F02
:10134000A7019601C501B4010E94D9399B01AC01E6
:101350006FA978AD89AD9AAD0E94823620E030E069
:1013600040E05FE30E94D939F80160837183828392
:101370009383E9C0D12CEC20FD20EF2809F490C61E
:10138000F1EF2F228091C301813009F47CC0F80174
:10139000EE0FFF1FEE0FFF1FE053FE4FC080D18006
:1013A000E280F380A7019601C501B4010E94813655
:1013B0002B013C01E9A5FAA5EE0FFF1FEE0FFF1F61
:1013C000E053FE4F80819181A281B38189A79AA7C2
:1013D000ABA7BCA79C01AD016FA978AD89AD9AAD53
:1013E0000E9481364B015C01A3019201C301B2014D
:1013F0000E94D9392B013C01A5019401C501B4011A
:101400000E94D9399B01AC01C301B2010E9482360E
:101410000E94783A4B015C01A7019601C701B60111
:101420000E94D9396B017C0129A53AA54BA55CA581
:10143000CA01B9010E94D9399B01AC01C701B601AB
:101440000E9482360E94783A6B017C016093E5012C
:101450007093E6018093E7019093E8019B01AC0152
:10146000C501B4010E9481364B015C01E894B7F8D4
:101470002AE037ED43EA5BE3C501B4010E949939E4
:1014800018165CF160C090ECE92E91E0F92EC601CF
:10149000062C02C0959587950A94E2F780FF12C04A
:1014A00023E333E34BEC51E4D70150966D917D91EA
:1014B0008D919C9153970E94D939F701608B718B64
:1014C000828B938BFFEF6F1A7F0A24E0E20EF11CF0
:1014D00033E063167104D9F65ACF20E030E040E0E3
:1014E0005FE3C501B4010E94993918160CF45FCE70
:1014F0002FE632E143E85AE3C701B6010E94D93929
:101500009B01AC01C501B4010E94993918160CF475
:101510004ECE19C06BA160616BA38FA18E58823033
:1015200018F48BA188608BA39B8D992309F4C8CBF9
:101530004CE050E06EEE71E088E991E00E94443B9F
:10154000892B09F434CE2BA12170ABA1C101A0FFDE
:1015500002C08E7D02C08E7D9C7FBF8DB111937EB7
:10156000892B09F09FC58E01035F1F4F89E0F801A9
:1015700011928A95E9F7222309F44BC08FA598A907
:10158000867B892B09F090C58091C001853311F0CD
:1015900081118AC580918B0190918C01A0918D0160
:1015A000B0918E01898B9A8BAB8BBC8B909189010A
:1015B00080918801892B4091CC015091CD0160919F
:1015C000CE017091CF014D875E876F87788B8460E5
:1015D0008D8B8091700185FF06C08EEE91E00E9498
:1015E000F331811163C5B8018EEE91E00E94063699
:1015F00080911A0181115EC50E947B24892B09F418
:1016000059C580E280931A010E944E120E94FA1C72
:1016100051C580917001F090890181FF26C09FA182
:101620009150933018F0FBA1F064FBA32B8D222383
:1016300039F03F8D323021F46BA160686BA315C087
:1016400080E1F81212C09091800191508BA18074BA
:10165000933030F4882349F09BA190629BA305C08E
:10166000811103C0ABA1A062ABA38091DD01909179
:10167000DE01A091DF01B091E0018093940190938D
:101680009501A0939601B09397018091C201809338
:101690008101882311F088E08D8B8091CC0190919D
:1016A000CD01A091CE01B091CF0180938F01909395
:1016B0009001A0939101B09392018D879E87AF878F
:1016C000B88B8090E9019090EA01A090EB01B09076
:1016D000EC01A501940160918B0170918C018091C6
:1016E0008D0190918E010E947737BBA1B074EB2ED3
:1016F000811103C0EBA1E5FF20C0FF2071F0FBA129
:10170000F7FD0BC0EE2021F040E050E0BA0102C02E
:10171000B501A4018F2D0E9433328091E90190918F
:10172000EA01A091EB01B091EC0180938B019093C1
:101730008C01A0938D01B0938E01E1100CC08091BB
:101740008B0190918C01A0918D01B0918E01898BBC
:101750009A8BAB8BBC8B8091ED0180939301809130
:10176000CA0190918901981751F049895A896B896A
:101770007C890E9433328091CA01809389019D89BE
:1017800080918901892B8D8B8091C901909188016D
:101790009817D1F090911A01923051F02B968FAF9B
:1017A0002B970E94F3222B968FAD2B970E94C0029D
:1017B0008091C901811103C01092880105C09091E8
:1017C0008801892B809388019D8980918801892BCC
:1017D0008D8B8091C001843049F56091E101709159
:1017E000E2018091E3019091E40120911A012230FD
:1017F000E9F028966FAF289729967FAF29972B9607
:101800008FAF2B972A969FAF2A970E94F32240E032
:1018100028966FAD289729967FAD29972B968FAD87
:101820002B972A969FAD2A970E94E7258091C501A4
:10183000809384018091C301809382012F8D233096
:1018400071F58091C60180938501811108C01092C5
:10185000F6011092F7011092F8011092F901C09070
:10186000F601D090F701E090F801F090F901A7019E
:1018700096016091BC017091BD018091BE01909173
:10188000BF010E947737882351F0C092BC01D092EB
:10189000BD01E092BE01F092BF010E942E32809104
:1018A000C70190918601981769F0809386018CE0BA
:1018B000FE013196A4EAB1E001900D928A95E1F71C
:1018C0000E942E328091C401809383018091C001D7
:1018D0008632F1F138F48C3109F18E31F9F08A3029
:1018E00069F04FC08C35D1F1863609F441C0883299
:1018F00009F047C068E971E087E02DC060ED71E054
:101900008DA50E944926809186013DA5831339C08B
:101910008CE0E0EDF1E0A4EAB1E025C08D898160C2
:101920008D8B6F8D662329F0B8018EEE91E00E94B9
:101930000636B80180ED91E00E9406368CE0E0EDBD
:10194000F1E0A8E9B1E001900D928A95E1F719C0A4
:1019500068E971E086E00E94492613C08CE0EEEE53
:10196000F1E0A0EBB1E001900D928A95E1F707C09C
:101970008CE0E0EBF1E0DF011D928A95E9F70E942F
:101980002E328091C10180938001803509F41EC3FD
:10199000BF8DB23009F01AC3813021F4BE01635FFC
:1019A0007F4F06C0811109C08D8981608D8BB80180
:1019B0008EEE91E00E94063600C38250823008F01D
:1019C00095C28091E5019091E601A091E701B09167
:1019D000E8018F8F98A3A9A3BAA3ABA994E0A99F0C
:1019E00070011124F701E856FE4FF8A7EFA3970105
:1019F00020533E4F3EA72DA7D9014D905D906D908D
:101A00007C902081318142815381C301B2010E94C7
:101A100082366FA778AB89AB9AABEDA9B4E0EB9FA8
:101A200080011124980128563E4F3CAB2BABC801D6
:101A300080539E4F9EAB8DABDC018D909D90AD9001
:101A4000BC90F9012081318142815381C501B401EB
:101A50000E9482366FAB78AF89AF9AAF77FA7094F5
:101A600077F87094D501C401B0588B8F9C8FAD8FDF
:101A7000BE8FF701E251FE4F2FA538A949A95AA9F7
:101A800060817181828193810E9481366B017C012A
:101A9000F801E251FE4F2FA938AD49AD5AAD608132
:101AA0007181828193810E9481364B015C01A70183
:101AB0009601C301B2010E94D93969A77AA78BA701
:101AC0009CA7A50194016B8D7C8D8D8D9E8D0E94B0
:101AD000D9399B01AC0169A57AA58BA59CA50E946B
:101AE000823669A77AA78BA79CA7A5019401C30199
:101AF000B2010E94D9394B015C01A70196016B8D9F
:101B00007C8D8D8D9E8D0E94D9399B01AC01C501C4
:101B1000B4010E94813629A53AA54BA55CA50E9477
:101B200001376B017C019BA192FF13C02DEB37E3C2
:101B300046E055EBC701B6010E94993987FD1DC0EB
:101B40002BED3FE049EC50E4C701B6010E9481361D
:101B500012C02DEB37E346E055E3C701B6010E9402
:101B60007737181654F02BED3FE049EC50E4C701ED
:101B7000B6010E9482366B017C01809064019090D6
:101B80006501A0906601B09067012F8D38A149A131
:101B90005AA1CA01B9010E948236A50194010E948E
:101BA00081369B01AC01C501B4010E94D9390E9464
:101BB000783A4B015C0120E030E040E05FE3C70190
:101BC000B6010E94D9392F8D38A149A15AA10E948E
:101BD000D9399F77A50194010E9481370E94663808
:101BE0000E94FA377AA769A7DB01AB2B09F4D6CE9E
:101BF0001D894B01A12CB12C13FF12C0C501B401EA
:101C00000E9429389B01AC016D857E858F8598895E
:101C10000E94D9396D877E878F87988B177F1D8BA0
:101C2000C501B4010E9429384B015C019B01AC0144
:101C3000C701B6010E9481376BA37CA38DA39EA32D
:101C4000EBADB4E0EB9FC00111248C0108561E4F90
:101C5000FC01E251FE4FD8012D913D914D915C91D7
:101C600060817181828193810E948136A5019401F6
:101C70000E94813727966CAF7DAF8EAF9FAF2797BD
:101C80002BA13CA14DA15EA1CA01B9010E94D93985
:101C90009B01AC0160E070E080E090E40E9481363E
:101CA0006B017C012BEA3AEA4AE25EE36BA17CA17C
:101CB0008DA19EA10E94D9394B015C0120E030E04A
:101CC00040E850E4C701B6010E9482369B01AC0196
:101CD000C501B4010E94D9396BAF7CAF8DAF9EAF07
:101CE00020E030E040E05FE3C701B6010E94D9394F
:101CF00023966CAF7DAF8EAF9FAF23971F8E2224AC
:101D00002394312CE9A5FAA52E163F0609F446CEF8
:101D1000BF8DBC3008F044C023962CAD3DAD4EAD18
:101D20005FAD23976B8D7C8D8D8D9E8D0E94D939F3
:101D30006B017C012BAD3CAD4DAD5EADC301B2017D
:101D40000E94D939A70196010E9482367B016C015D
:101D500023962CAD3DAD4EAD5FAD2397C301B201CF
:101D60000E94D9394B015C012BAD3CAD4DAD5EAD50
:101D70006B8D7C8D8D8D9E8D0E94D9399B01AC0120
:101D8000C501B4010E9481362B013C01EF8DEF5F4C
:101D9000EF8F470156018B8E9C8EAD8EBE8E65C037
:101DA000B10180E090E00E9429382BA13CA14DA117
:101DB0005EA10E94D9396B017C010E947C376B8F38
:101DC0007C8F8D8F9E8FC701B6010E946A3A4B01AE
:101DD0005C01ADA5BEA5CD90DD90ED90FC90F7FA2D
:101DE000F094F7F8F094ADA9BEA98D919D910D9056
:101DF000BC91A02D8F8F98A3A9A3BAA32B8D3C8D46
:101E00004D8D5E8DC701B6010E94D9392B013C0171
:101E1000A50194016F8D78A189A19AA10E94D93959
:101E20009B01AC01C301B2010E9482362B013C012F
:101E3000A5019401C701B6010E94D9396B017C014B
:101E40002B8D3C8D4D8D5E8D6F8D78A189A19AA1D2
:101E50000E94D9399B01AC01C701B6010E948136AD
:101E60006B8F7C8F8D8F9E8F1F8EA30192016FA52C
:101E700078A989A99AA90E948236EFA1F8A5608362
:101E80007183828393832B8D3C8D4D8D5E8D6FA9E5
:101E900078AD89AD9AAD0E948236ABA9BCA96D938D
:101EA0007D938D939C93139727962CAD3DAD4EADAE
:101EB0005FAD2797F80160817181828193810E94D3
:101EC0008236D8016D937D938D939C931397BE01B9
:101ED000635F7F4F88E991E00E94063680911B0185
:101EE00081116BC0BFEF2B1A3B0A0CCF8D89846028
:101EF0008D8B80911A01823009F45FC00E94F32219
:101F000080911B01811162C0FBA1F071FF2E109224
:101F10001F012BA123FB882780F90E94991D86B100
:101F2000807290910001891749F084E00E94A61107
:101F30000E94E72180E00E94991D48C0B8018EEE02
:101F400091E00E94063681E08093190182E00E94B0
:101F5000B6110E94E72180911B01811137C0809149
:101F60001A018111F6CF80911901813081F4FF208F
:101F700051F08CE0E1E0F1E0ADE0B1E001900D92D4
:101F80008A95E1F707C085E00E94A61103C081E0B1
:101F900080931F011092190180E00E94991D0E94F8
:101FA000E7210E947F1A0E948B240E94E6230E9450
:101FB000573680911F01811188C08CE0EEEEF1E070
:101FC000A8E9B1E001900D928A95E1F78091C801EE
:101FD00080938701882309F47FC00E94F3228091B7
:101FE000870190911A01833041F49230D1F188E059
:101FF0000E94B6110E94E72134C081E080938001E5
:102000001092840110928301109281011092860136
:10201000109289011092880184E6809321018093B7
:10202000220180932301923091F064EA71E080E014
:102030000E94701D8823E1F10E942E3240E050E0A2
:10204000BA0180E00E94121D80E00E94C00283EA73
:1020500092E00E94D7238AE392E00E94D7230E9455
:10206000DD29109287012FC081E036C082E034C0A4
:1020700088E132C086E230C089E12EC084E02CC005
:102080008BE12AC085E228C084E126C08EE124C00D
:102090008FE122C086E120C080E21EC082E21CC027
:1020A00083E21AC084E218C080E116C08FE014C039
:1020B00087E012C08CE0EEEEF1E0A8E9B1E001901B
:1020C0000D928A95E1F780E007C00E9413027ECF4F
:1020D0001A8E1BA20C940703C65BDF4F0FB6F89451
:1020E000DEBF0FBECDBFDF91CF911F910F91FF904B
:1020F000EF90DF90CF90BF90AF909F908F907F90A8
:102100006F905F904F903F902F9008958093B30011
:10211000811104C08091B0008F7703C08091B0001E
:1021200080688093B00008954F925F926F927F9283
:102130008F929F92AF92BF92CF92DF92EF92FF92D7
:10214000CF936B017C01C091230180906C01909032
:102150006D01A0906E01B0906F01409068015090A9
:10216000690160906A0170906B01A3019201C50141
:10217000B4010E94993987FF1AC06C2F70E080E08B
:1021800090E00E942B382AE037ED43E25CE30E94A6
:10219000D9399B01AC01C701B6010E94D9396B0145
:1021A0007C01A30192010E94993987FD0AC04092E7
:1021B0002701509228016092290170922A018FEF25
:1021C00047C0A5019401C701B6010E9477371816D0
:1021D000E4F020E030E0A901C701B6010E947737A2
:1021E000811109C010922701109228011092290133
:1021F00010922A012DC08092270190922801A0926E
:102200002901B0922A0181E023C0C0922701D09217
:102210002801E0922901F0922A01A5019401C70149
:10222000B6010E94813620915105309152054091AE
:102230005305509154050E94D9390E94663820E018
:1022400030E040E85FE30E9482360E94FA37862F32
:10225000CF91FF90EF90DF90CF90BF90AF909F9085
:102260008F907F906F905F904F900895CF93DF9302
:10227000C1E1D7E08991882319F00E943828FACF6C
:10228000DF91CF910895CF93DF9321E5829FC00125
:102290001124EC01DD5F40E550E0BE0181E197E0F3
:1022A0000E941902892B69F4109211070E94F322EF
:1022B00040E550E061E177E0CE010E94810280E0DC
:1022C00001C081E0DF91CF910895CF93DF93C0E00B
:1022D0008C2F0E94431181110EC0109211078EE3C2
:1022E0000E9438280E9436118AE30E94382887E02D
:1022F0000E94752812C080911107882371F00E94F6
:10230000CD02D82F8EE30E9438280E9436118AE32E
:102310000E9438288D2F0E948128C13011F0C1E021
:10232000D7CFDF91CF9108952FB7F89490915005B2
:10233000892B809350052FBF08952FB7F894909163
:102340004F05892B80934F052FBF08959FB7F894B1
:1023500080934E059FBF08952FB7F89490914D0537
:102360008095892380934D052FBF08952FB7F8944A
:1023700090914D05892B80934D052FBF0895AF9205
:10238000BF92CF92DF92EF92FF920F931F93CF9362
:10239000DF9300D000D0CDB7DEB75B012BE2E22E99
:1023A00021E0F22E8C016B018CE0C80ED11CF501EE
:1023B00061917191819191915F01F7012191319129
:1023C000419151917F0129833A834B835C830E9421
:1023D0002B3829813A814B815C810E948137F80139
:1023E00061937193819391938F01AC14BD04F9F6BD
:1023F0000F900F900F900F90DF91CF911F910F9141
:10240000FF90EF90DF90CF90BF90AF90089596B17E
:10241000892F877049F0892F8095817091FF8260A4
:1024200092FD03C08460089580E008951F920F928A
:102430000FB60F9211242F933F934F935F936F9397
:102440007F938F939F93AF93BF93EF93FF930E94DC
:102450000712882391F080FF03C00E9418260DC048
:1024600082FF04C080914D05826005C081FF05C0D8
:1024700080914D05886080934D05FF91EF91BF914C
:10248000AF919F918F917F916F915F914F913F910C
:102490002F910F900FBE0F901F9018952F923F9283
:1024A0004F925F926F927F928F929F92AF92BF9264
:1024B000CF92DF92EF92FF920F931F93CF93DF9310
:1024C000CDB7DEB7EE970FB6F894DEBF0FBECDBF27
:1024D00080911E0180FD70C790917B0580917C05E5
:1024E000981709F469C78091040690910506892B15
:1024F00009F03BC310911E0112FF09C080911C0519
:1025000022E3289FC001112484509E4F02C00E94E4
:102510007B24909305068093040620900406309057
:1025200005062114310409F447C700911E05902FB8
:10253000917000FF03C010921E05FEC080911D0522
:102540008F5F853009F0982F90931D05E92EF12CAF
:1025500032E13E9DF0013F9DF00D1124E655FA4F0A
:10256000F093A905E093A805D10150968C9150975E
:10257000808B4D915D916D917C91DB01CA0123E0CF
:10258000880F991FAA1FBB1F2A95D1F780839183BB
:10259000A283B383D10114964D915D916D917C918D
:1025A0001797DB01CA0133E0880F991FAA1FBB1FD1
:1025B0003A95D1F784839583A683B783D101189682
:1025C0004D915D916D917C911B97DB01CA0143E0B8
:1025D000880F991FAA1FBB1F4A95D1F78087918743
:1025E000A287B387D1011C964D915D916D917C912D
:1025F0001F97DB01CA0153E0880F991FAA1FBB1F59
:102600005A95D1F784879587A687B787F1016485A6
:102610007585868597850E94293860932305709378
:1026200024058093250590932605D1015E962D9172
:102630003D914D915C9191970E9481379B01AC0136
:1026400060932705709328058093290590932A05A8
:1026500060E070E080EA9FE30E94813760932B0581
:1026600070932C0580932D0590932E0510921F05D5
:1026700010922005109221051092220511FD02C032
:1026800003FF1DC060913C0570913D0580913E05A2
:1026900090913F056093340570933505809336051E
:1026A000909337059B01AC010E94D939F101628BEF
:1026B000738B848B958B077F00931E0511C0D1010E
:1026C00052966D917D918D919C9155970E94783A8B
:1026D00060933405709335058093360590933705E4
:1026E000B2E1BE9DC001BF9D900D1124FC01E655D5
:1026F000FA4F7F01118A8091700181FF1DC0D101C5
:1027000051968C91519785FF17C09A962D913D91C6
:102710004D915C919D9760E070E080E89FE30E949E
:102720008137609348057093490580934A059093DB
:102730004B0521E0F701218B1092300510923105F5
:102740001092320510923305D1015A968D919D91C8
:102750000D90BC91A02D89839A83AB83BC839C018F
:10276000AD0160E070E080E09FE30E9481374B01A3
:102770005C01F101468C578C60A071A011FF4BC029
:10278000F2E0F0932F05D1015296CD90DD90ED90BF
:10279000FC905597A70196010E94D9399B01AC0185
:1027A000C301B2010E9481364B015C0120E030E0A0
:1027B000A9010E94773787FF1DC029813A814B818B
:1027C0005C81CA01B9010E948236A30192010E9474
:1027D000D9399B01AC01C701B6010E9481360E9424
:1027E000783A60933C0570933D0580933E05909345
:1027F0003F05B8C18092300590923105A092320514
:10280000B092330510923C0510923D0510923E05A2
:1028100010923F05A7C110922F054092400550929B
:102820004105609242057092430512FF0CC0109260
:102830003C0510923D0510923E0510923F05C12CBB
:10284000D12C760124C0E091FB01EF5FE03109F467
:10285000E0E080911C05E81759F0B2E3BE9FF0015B
:102860001124E450FE4FC288D388E488F58803C061
:10287000C12CD12C7601C701B6010E94783A609331
:102880003C0570933D0580933E0590933F05C10143
:102890000E940824698B7A8B8B8B9C8B9B01AC01EB
:1028A0000E94D9396D837E838F839887D101529698
:1028B0002D913D914D915C91559729873A874B8792
:1028C0005C879B01AC0169857A858B859C850E941C
:1028D000993918160CF070C02D813E814F815885B2
:1028E00069857A858B859C850E9481369B01AC0128
:1028F000C501B4010E94D9399B01AC01C301B201E9
:102900000E94813660934005709341058093420593
:102910009093430520E030E0A9010E947737181614
:102920003CF1B2E0B0932F0529813A814B815C8163
:10293000CA01B9010E948236A30192010E94D939CD
:102940009B01AC0169857A858B859C850E948136C7
:102950000E94783A60933C0570933D0580933E0554
:1029600090933F0580911E05886080931E05FAC0F4
:10297000A70196016D817E818F8198850E948136A5
:102980009B01AC01C501B4010E94D9396093440593
:1029900070934505809346059093470529893A89A8
:1029A0004B895C89209338053093390540933A056B
:1029B00050933B0533E0BBC0A701960169857A853A
:1029C0008B859C850E9481369B01AC01C501B401B9
:1029D0000E94D9399B01AC01C301B2010E94823629
:1029E00020E030E040E05FE30E94D9396D877E87C8
:1029F0008F87988B20E030E0A9010E949939181642
:102A00000CF098C0A30192016D857E858F85988911
:102A10000E94773787FF8AC0A70196016D817E816A
:102A20008F8198850E9481369B01AC01C501B4015C
:102A30000E94D939609344057093450580934605FB
:102A4000909347052D853E854F8558890E9477379D
:102A500087FF3BC089899A89AB89BC8980933805F7
:102A600090933905A0933A05B0933B052D813E81A3
:102A70004F81588569857A858B859C850E9477373B
:102A8000811104C091E090932F056CC029853A858F
:102A90004B855C856D817E818F8198850E94813612
:102AA0009B01AC01C501B4010E94D9399B01AC0165
:102AB000C301B2010E9481366093400570934105C5
:102AC00080934205909343054DC02D853E854F85EB
:102AD0005889209340053093410540934205509317
:102AE0004305209344053093450540934605509394
:102AF000470529813A814B815C81CA01B9010E9455
:102B000082362D853E854F8558890E94D939A70187
:102B100096010E9482360E94783A6093380570933D
:102B2000390580933A0590933B051CC032E0309301
:102B30002F0518C0109240051092410510924205D1
:102B40001092430580913C0590913D05A0913E0572
:102B5000B0913F058093380590933905A0933A05CD
:102B6000B0933B05186010931E018091A705482F74
:102B700050E05A87498787E0849FF001859FF00DD8
:102B80001124E358FA4F80911D058483A091040617
:102B9000B0910506BEAFADAF5E96BC91BEA3EDADE4
:102BA000FEADF78DFFA3ADADBEAD9096BC91B8A7BD
:102BB000EDADFEADF1A1F9A720912B0530912C05CB
:102BC00040912D0550912E056EA17FA18B2F9F2F37
:102BD0000E9481366AAB7BAB8CAB9DAB20E030E0D2
:102BE000A9010E94773787FF04C01AAA1BAA1CAA52
:102BF0001DAA209140052D83309141053D874091CC
:102C00004205498B509143055D8B809138058A8F31
:102C1000909139059B8FA0913A05AC8FB0913B05FF
:102C2000BD8F60903405709035054090360550900A
:102C30003705E0914405EAA7F0914505FBA72091EF
:102C400046052CA7309147053DA740912F054983A4
:102C5000509130055EA7809131058FA79091320584
:102C600098ABA0913305A9ABB0913C05BEABE09108
:102C70003D05EFABF0913E05F8AF20913F0529AF40
:102C80002EA03FA008A519A58EE3C82E83ECD82E50
:102C90008EE2E82E89E3F82E1E8A1F8A188E198E7E
:102CA000CE8EDF8EE8A2F9A29981913009F4E7C0B7
:102CB00008F474C0ADADBEAD5A962D913D914D91C5
:102CC0005C915D97933009F009C1C701B6010E947C
:102CD000D9394B015C0120E030E040E05FE30E9425
:102CE000D9399B01AC01B301C2010E9481369B011D
:102CF000AC01C701B6010E94D9396AA37BA38CA39A
:102D00009DA39B01AC01B101C8010E9481361B014A
:102D10008C012D813D8549895D890E94773787FD2A
:102D20000BC020E030E0A9016AA17BA18CA19DA18C
:102D30000E94773718165CF12D813D8549895D89A0
:102D40006EA17FA188A599A50E9481369B01AC0147
:102D50000E9482366B017C012A8D3B8D4C8D5D8DEE
:102D6000B301C2010E9482369B01AC01C701B601CA
:102D70000E9481376B017C016A8C7B8C4C8C5D8C52
:102D80002D803D8409891D89B1E0B98311C1A50158
:102D90009401B301C2010E9481366EC0EDADFEAD5B
:102DA000228D338D448D558DC701B6010E94D939CE
:102DB0004B015C0120E030E040E05FE30E94D93944
:102DC0009B01AC01B301C2010E9482369B01AC01A0
:102DD000C701B6010E94D9399B01AC01B101C801FC
:102DE0000E9481361B018C012D813D8549895D89B9
:102DF0000E94773787FF3AC02D813D8549895D89DB
:102E00006EA17FA188A599A50E9481369B01AC0186
:102E10000E9482366B017C012A8D3B8D4C8D5D8D2D
:102E2000B301C2010E9482369B01AC01C701B60109
:102E30000E9481376B017C012AA53BA54CA55DA5AD
:102E40006D817D8589899D890E947737811103C0B5
:102E5000F2E0F98302C021E029836A8C7B8C4C8CE0
:102E60005D8C2D803D8409891D89A2C0A501940136
:102E7000B301C2010E9482363B012C0199C0A70117
:102E800096016A8D7B8D8C8D9D8D0E94D9399B0119
:102E9000AC01B101C8010E9481365B014C012AA539
:102EA0003BA54CA55DA50E94773787FF7FC02AA56B
:102EB0003BA54CA55DA5B101C8010E9481362A8DB4
:102EC0003B8D4C8D5D8D0E9481376B017C012AA466
:102ED0003BA40CA51DA532E039836AC0C701B60129
:102EE0000E94D9394B015C019B01AC01B301C201C5
:102EF0000E94993918169CF520E030E040E05FE32D
:102F0000C501B4010E94D9399B01AC01B301C201D2
:102F10000E9481369B01AC01C701B6010E94D939DC
:102F20009B01AC01B101C8010E9481366AA37AAF4E
:102F30008BAF9CAF2EA53FA548A959A90E949939EE
:102F400018166CF4A5019401B301C2010E948136E8
:102F50003B012C012AA03AAC0BAD1CAD29C02EA51B
:102F60003FA548A959A9B101C8010E9481369B011A
:102F7000AC010E9482366B017C012EA93FA948ADAD
:102F800059ADB301C2010E9482369B01AC01C70159
:102F9000B6010E9481376B017C016EA87FA848AC06
:102FA00059AC2EA43FA408A919A902C01501840197
:102FB000A70196016E897F89888D998D0E9482363E
:102FC0006E8B7F8B888F998F2E8D3F8D48A159A155
:102FD0000E94773787FF09C02E893F89488D598D18
:102FE0006E8D7F8D88A199A131C02AA93BA94CA9DA
:102FF0005DA9B101C8010E9499391816ACF0C3014E
:10300000D2018093340590933505A0933605B09393
:103010003705B981B0932F05E091A805F091A90576
:103020009189911134C02FC02EE333EC4EE259E365
:103030006E8D7F8D88A199A10E9482366E8F7F8FC1
:1030400088A399A32E893F89488D598D0E94813686
:103050006B017C012EA53FA548A959A9B101C80162
:103060000E94993918160CF41FCEC301D201809327
:10307000340590933505A0933605B0933705E98163
:10308000E0932F05C9CF80911E0183FF3FC0ADADF6
:10309000BEAD51968C915197807349F19E96CD901B
:1030A000DD90ED90FC90D1979923D1F020914805C7
:1030B0003091490540914A0550914B056091340586
:1030C0007091350580913605909137050E94D93968
:1030D0009B01AC01C701B6010E94D9396B017C018B
:1030E000C701B6010E94941080934C050AC010924B
:1030F0002701109228011092290110922A011092A2
:103100004C0580911E01877F80931E0127E0E98591
:10311000FA852E9FA0012F9F500D1124CA018358BC
:103120009A4F9E838D8380914C05AD81BE8116960A
:103130008C932091270530912805409129055091C5
:103140002A05B101C8010E94D9392B013C010E9416
:1031500060376B017C01609123057091240580919B
:103160002505909126050E9460374B015C01A7015F
:1031700096010E9481360E94FA3769837A838B8395
:103180009C8329813A81ED81FE8131832083232B29
:1031900041F480911E0181FF04C0816080931E0173
:1031A0000BC120911F0530912005409121055091C0
:1031B00022056E897F89888D998D0E9482366D8364
:1031C0007E838F839887A3019201C501B4010E9479
:1031D00081369B01AC016D817E818F8198850E9433
:1031E00081374B015C0120EC31EE44E65EE40E9445
:1031F000D9390E9460370E94FA37603D57E0750761
:103200008105910560F427E0A985BA852A9FF00120
:103210002B9FF00D1124E358FA4F158254C0603AE9
:103220003FE073078105910568F4A7E049855A8559
:10323000A49FF001A59FF00D1124E358FA4FB1E0CF
:10324000B5831FC06034EFE17E078105910568F406
:1032500047E029853A85429FF001439FF00D1124F4
:10326000E358FA4F52E055830CC027E0A985BA8590
:103270002A9FF0012B9FF00D1124E358FA4F33E001
:103280003583A7E049855A85A49FF001A59FF00DDD
:103290001124E358FA4F2581022E04C09695879594
:1032A000779567950A94D2F749815A8102C0440FF5
:1032B000551F2A95E2F7518340836115710551E04E
:1032C0008507910568F427E0A985BA852A9FF00152
:1032D0002B9FF00D1124E358FA4F7383628304C0CF
:1032E0004FEF5FEF5383428380917C058093A70566
:1032F0008F5F863019F080937C0502C010927C05A8
:10330000E0910406F0910506C101D801868F978FE0
:10331000A0A3B1A3C0922305D0922405E092250575
:10332000F0922605A3019201C701B6010E948136E1
:10333000A50194010E94D93960931F05709320055F
:10334000809321059093220520913005309131051D
:103350004091320550913305B101C8010E94773781
:103360008111BAC820E030E0A901B101C8010E9472
:10337000993990911E01181614F092FF04C09160C3
:1033800090931E0119C010920506109204069091A8
:10339000FB0180911C05891709F49EC881E0890F03
:1033A000803109F480E02091FA01921302C08093E9
:1033B000FA018093FB0190C8EE960FB6F894DEBF39
:1033C0000FBECDBFDF91CF911F910F91FF90EF9076
:1033D000DF90CF90BF90AF909F908F907F906F9035
:1033E0005F904F903F902F900895CF93DF93C091BF
:1033F0000406D09105062097C9F080911E058160D2
:1034000080931E05609134057091350580913605D5
:10341000909137059B01AC010E94D9396A8B7B8B57
:103420008C8B9D8B1092050610920406DF91CF9134
:10343000089580915C01682F90E020915D01422FFA
:1034400080FD94E0822F817020FD80E261FD986014
:1034500041FD806462FD906142FD80689093550556
:103460008093560508951F920F920FB60F92112464
:103470008F939F938BB1909155059C71837E892B7F
:103480008BB915BC9F918F910F900FBE0F901F901D
:10349000189580916F008D7F80936F0080918100DF
:1034A000887F8160809381001092570580915E0132
:1034B00090911A018F3F39F420914E05211103C0DC
:1034C000903881F402C0943069F090E0009741F0A8
:1034D000EFE9FFE03197F1F700C000000197F6CF68
:1034E00081E001C080E09091700192FF02C091E004
:1034F0008927882311F0289A089528980895CF9352
:10350000DF930E94491A80E3EDE1F5E0DF011D92AF
:103510008A95E9F7C8E5D5E083E2FE0111928A9524
:10352000E9F7109205061092040610927B0510929E
:10353000A70581E080937C05109257050E94191A17
:10354000809156058F878BB1837E90915505892B8D
:103550008BB98BB18F7190915605892B8BB9DF9107
:10356000CF9108951F920F920FB60F9211242F93AF
:103570003F934F935F936F937F938F939F93AF93FB
:10358000BF93EF93FF9380915705811122C28BB1B6
:1035900090916705907E8F71892B8BB98BB1837E5B
:1035A00090916605892B8BB98091650586BD82E077
:1035B00085BD81E08093570578948091790590913D
:1035C0007A05892B09F0BFC080917B059091A705F2
:1035D000981709F4A4C0E0917B052E2F30E087E016
:1035E000E89FF0011124E358FA4FF0937A05E09335
:1035F00079058281938190938900809388008081EE
:1036000091819093750580937405E481809176058E
:103610008E1761F1E093760582E1E89FF0011124B5
:10362000E655FA4FF0937805E09377058485958504
:10363000A685B785B695A7959795879580936005DC
:1036400090936105A0936205B093630580935C0538
:1036500090935D05A0935E05B0935F058093580538
:1036600090935905A0935A05B0935B05A0917705F7
:10367000B09178059091560550968C915097892776
:103680008093670587E0829FF001839FF00D1124EE
:10369000E358FA4F25814D915D916D917C9113977F
:1036A000022E04C076956795579547950A94D2F7F0
:1036B000409368055093690560936A0570936B05A4
:1036C00014964D915D916D917C911797022E04C0D7
:1036D00076956795579547950A94D2F740936C0570
:1036E00050936D0560936E0570936F0518968D91DC
:1036F0009D910D90BC91A02D04C0B695A79597956E
:1037000087952A95D2F78093700590937105A093C1
:103710007205B093730586810E94861014C00E94C2
:10372000491AE0917705F09178058189882339F06D
:103730001092B3008091B0008F778093B00084E046
:103740000E94B61146C1809119018130B1F486B151
:10375000807290910001891781F0109219018CE01C
:10376000E1E0F1E0ADE0B1E001900D928A95E1F782
:1037700080914D05806480934D05109266054091BF
:1037800068055091690560916A0570916B0580919B
:10379000580590915905A0915A05B0915B05840F89
:1037A000951FA61FB71F8093580590935905A093A6
:1037B0005A05B0935B05E0917705F0917805448553
:1037C000558566857785481759076A077B0768F529
:1037D00024E0209366054485558566857785841B9E
:1037E000950BA60BB70B8093580590935905A093A2
:1037F0005A05B0935B0520898091010190910201E7
:10380000A0910301B091040125FF04C00197A10913
:10381000B10903C00196A11DB11D809301019093D0
:103820000201A0930301B093040140916C055091F3
:103830006D0560916E0570916F0580915C059091AA
:103840005D05A0915E05B0915F05840F951FA61FD1
:10385000B71F80935C0590935D05A0935E05B093C0
:103860005F054485558566857785481759076A073A
:103870007B0778F5209166052860209366054485CE
:10388000558566857785841B950BA60BB70B8093B2
:103890005C0590935D05A0935E05B0935F0520895C
:1038A0008091050190910601A0910701B091080156
:1038B00026FF04C00197A109B10903C00196A11D0B
:1038C000B11D8093050190930601A0930701B09369
:1038D00008014091700550917105609172057091D9
:1038E00073058091600590916105A0916205B0918A
:1038F0006305840F951FA61FB71F809360059093E3
:103900006105A0936205B09363054485558566857E
:103910007785481759076A077B0778F52091660570
:103920002061209366054485558566857785841BCF
:10393000950BA60BB70B8093600590936105A09340
:103940006205B093630520898091090190910A0175
:10395000A0910B01B0910C0127FF04C00197A109B0
:10396000B10903C00196A11DB11D80930901909377
:103970000A01A0930B01B0930C0180911A018430CD
:1039800039F4909120018091660589238093660522
:1039900080917405909175050197909375058093BA
:1039A0007405892B69F410927A051092790580913B
:1039B0007B058F5F80937B05863011F410927B0529
:1039C0009091550580916605892780936605109230
:1039D0005705FF91EF91BF91AF919F918F917F918B
:1039E0006F915F914F913F912F910F900FBE0F906C
:1039F0001F9018958091700182FF02C0289A01C023
:103A00002898809155058093660580915B01880F09
:103A1000845081958093650580916F0082608093CA
:103A20006F00089590911B01911126C081110EC065
:103A300010922701109228011092290110922A0158
:103A40008091B0008F778093B00014C0803111F462
:103A50002D9801C02D9A9091700191FF05C0803280
:103A600019F440E050E0BA01CB01BA010E94941071
:103A70000E948610109225010895CF93DF93239A18
:103A8000C0EBD0E083E0888384E08093B100259A86
:103A900020916C0130916D0140916E0150916F0148
:103AA000609168017091690180916A0190916B0148
:103AB0000E9481369B01AC0160E070E08EE793E4E8
:103AC0000E9481376093510570935205809353058E
:103AD0009093540588818F778883DF91CF910895E3
:103AE0001F93CF93DF93182FEB018DE0189FB00148
:103AF00011247E5F4CE050E0CE010E941902892B18
:103B000059F48CE0FE0111928A95E9F7BE01812FEC
:103B10000E94492680E001C081E0DF91CF911F9192
:103B200008950E947B24892B19F082E00C94B61131
:103B30000895109200019091700197FD03C090E2EA
:103B400090930001882331F09091000180E2892751
:103B50008093000108952091700120FF08C02BE898
:103B600032E441E25DE30E94D93941E001C040E026
:103B70000C9404233F924F925F926F927F928F92A8
:103B80009F92AF92BF92CF92DF92EF92FF920F93EC
:103B90001F93CF93DF93CDB7DEB7A4970FB6F894FA
:103BA000DEBF0FBECDBF10914E05112391F181E014
:103BB00080931A018EEA92E00E94D723812F0E94FF
:103BC000B1230E94712885EF91E0019739F0EFE968
:103BD000FFE03197F1F700C00000F7CF115012302D
:103BE00030F08FB7F89410924E058FBF12C083EA61
:103BF00092E00E94D72381E992E00E94D7230E949D
:103C0000DD2980E10E94AC1180914D0584FFFCCF3D
:103C1000E8CF10914D05112309F4BEC214FF04C072
:103C200081E080931B01BBC310FFC0C18CE0E1E0C9
:103C3000F1E0DE01599601900D928A95E1F7BE01FF
:103C4000675E7F4FCE010D960E94BF118CE30E94EC
:103C5000382880911A018830E1F058F4813099F1C8
:103C6000A8F0823099F1843009F043C089EF92E0E6
:103C70003EC0803229F118F4803171F03AC08034AE
:103C800041F18038B1F581EE92E031C08CE093E0F3
:103C90002EC088E093E02BC080911C0187FD10C0EE
:103CA00082E093E00E94D72380911C0180FF06C030
:103CB00080E31AC082FF17C085FFFACF81E314C0EA
:103CC0008EEF92E014C083EF92E011C08DEE92E08F
:103CD0000EC087EE92E00E94D72380911C0183FFE3
:103CE000E9CF83E301C082E30E94382802C00E942A
:103CF000D72380915F01F82FF170BF2E80FD15C092
:103D00004090BC015090BD016090BE017090BF0119
:103D100044EA842E41E0942E9E012F5F3F4F7901AB
:103D2000CE010D966C0100E02CC080912601882305
:103D300039F38AED92E03FC0A30192010E948236DE
:103D4000F7016083718382839383B110F2CFF7010F
:103D50002081318142815381F601608171818281AC
:103D600093810E948136F6016083718382839383FD
:103D70000F5FF4E0EF0EF11C24E0C20ED11C033003
:103D8000B1F0F40161917191819191914F01208580
:103D90003185428553850E948236F70160837183A5
:103DA00082839383023041F2BB2089F2E1CFB110CC
:103DB000C0CF83ED92E00E94D723CE010D960E94E2
:103DC000542880915F0181FF1FC08EEC92E00E9419
:103DD000D72390911C058091FB01981710F0815F0B
:103DE00001C08150891B0E94B1238CE20E943828B7
:103DF0008091A4069091A506981710F0805801C0F4
:103E00008150891B0E94B12389EC92E00E94D72344
:103E100080911A018C7749F06091340570913505D5
:103E2000809136059091370503C060E070E0CB01CA
:103E30000E94AB1D8CE20E9438286091270170918E
:103E400028018091290190912A0140E00E940423D9
:103E50000E94FE01F82E0E940712082F86B1982FAB
:103E6000907280910001E92EE8268F2D802B8E29FB
:103E700059F184EC92E00E94D723EE2019F080E5FE
:103E80000E943828FF2079F0F0FE03C088E50E94E8
:103E90003828F1FE03C089E50E943828F2FE03C0ED
:103EA0008AE50E943828002379F000FF03C082E5EC
:103EB0000E94382801FF03C088E40E94382802FFCE
:103EC00003C083E50E94382880912601882321F0D1
:103ED00081508093260118C080911A018C7711F0CF
:103EE0008DE101C089E08093260180912501811137
:103EF00003C081E0809325018EEB92E00E94D723DE
:103F0000CE0101960E94542800912501002321F042
:103F100001500093250142C080911A018C7711F065
:103F200083E101C089E08093250189EB92E00E9442
:103F3000D723809121010E94B1238CE20E9438286E
:103F4000809122010E94B1238CE20E943828809146
:103F500023010E94B1238091B00087FF05C02D99F5
:103F600002C001E001C002E0439B03C0FF24F394C0
:103F700003C0002399F0F12C85EB92E00E94D72337
:103F8000002339F0013011F483E501C083E40E947D
:103F90003828FF2019F086E40E9438288EE30E941A
:103FA00038280E94712881E00E94AC11812F887E00
:103FB00009F469C080911A01982F937009F052C0DA
:103FC0008872A1F080911C01807C81F40E94F51917
:103FD00082E080931E0180911A01803239F417FD2E
:103FE00005C080911C01806880931C0180911A019A
:103FF000811103C091E090931C0116FF07C085FD5D
:1040000005C090911C01906490931C0113FF05C0A2
:10401000807E19F480E180931A0115FF23C083EAA2
:1040200092E00E94D7238FE492E00E94D7230E945F
:10403000DD2980911C0187FD10C090911A019034F8
:1040400039F483FF07C0837E826080931C0102C025
:10405000903819F080E480931A0180911C018062ED
:1040600080931C0117FF0CC080911A01813029F444
:1040700080911C01856080931C0180E880931A0167
:1040800088EE0E94AC1111FF44C0812F8876F1F5B3
:1040900080911A01803471F480911C0185FD0AC061
:1040A00084FF03C010921A0105C082FF03C088601C
:1040B00080931C0180911A01882381F084FF26C01F
:1040C00090911C0190FF22C0803141F48091240125
:1040D000882321F088608093240118C010921E016B
:1040E0000E947B24892B71F080911C0186FD0AC0FF
:1040F00010921C0188E080931A010E944E120E94C7
:10410000FA1C04C010921C0110921A0182E00E9455
:10411000AC1112FF41C080911A01807D90911C0169
:104120008823D9F080911D01811117C097FD15C01A
:104130000E94F5198091FB018093FA010E949C2452
:1041400080911E0181FF05C090911C0191609093A8
:104150001C01897F80931E011CC097FF0AC010922A
:104160001E010E948B240E947F1A0E9413020E944B
:10417000E62380911C0185FF08C08F7781608093C2
:104180001C0180E480931A0104C010921C0110925B
:104190001A0184E00E94AC1190914F05992309F413
:1041A000ABC08FB7F89410924F058FBF409121019B
:1041B00090FF02C084E601C0842F91FD865F92FDCE
:1041C0008A5093FD8F5F94FD8150893C08F088EC04
:1041D0008A3008F48AE03091220195FF02C024E67B
:1041E00001C0232F96FD22E397FD29E1841303C02C
:1041F000231709F481C0809321012093220110929A
:1042000025011091FB0130901C0589E9D82E96E715
:10421000E92E26E9F22E0EE732E3432E131509F4B8
:1042200057C0812E912C489CC001499C900D1124AF
:10423000FC01E450FE4F5F01CF010E940824562E7E
:10424000672E782EC92E2D2D3E2D4F2D502F0E94DA
:10425000993918164CF42D2D3E2D4F2D502F6D2DC4
:104260007E2D8F2D902F08C0252D362D472D5C2DAE
:10427000652D762D872D9C2D0E94D939F501668BF1
:10428000778B808F918F489CC001499C900D1124A1
:104290009C0124503E4F7901F90182A093A0A4A073
:1042A000B5A0A501940166897789808D918D0E94C2
:1042B000993918162CF4F701868A978AA08EB18E48
:1042C0001F5F103109F410E0D52C73010C2DA6CF1F
:1042D0008D2D9E2DAF2DB02F80931E0690931F061F
:1042E000A0932006B09321060E94F5198091FB014E
:1042F0008093FA010E949C2490915005992309F41F
:1043000048C08FB7F894109250058FBF20912301B9
:1043100090FF02C084E601C0822F91FD865F92FD6E
:104320008A5093FD8F5F94FD8150893C08F088ECA2
:104330008A3008F48AE0821749F020911E01286033
:1043400020931E01809323011092250180911A0170
:1043500095FF0DC0803159F420912401211102C034
:1043600022E003C020FF03C0246020932401907C3E
:1043700081F0882311F0887161F01091880116FF97
:1043800002C01F7B01C01064812F0E94C0021093E5
:10439000880180911A018C7F11F00E944E12A49620
:1043A0000FB6F894DEBF0FBECDBFDF91CF911F9146
:1043B0000F91FF90EF90DF90CF90BF90AF909F90C4
:1043C0008F907F906F905F904F903F900895CF9225
:1043D000DF92EF92FF921F93CF93DF930E94BA1D5B
:1043E00080911C01882309F4F6C00E947B24009769
:1043F00071F4C091880180918901C82BC0908B0114
:10440000D0908C01E0908D01F0908E0106C0FC01EF
:10441000C189C6A4D7A4E0A8F1A88091700181FF4A
:1044200003C080E20E949411DC2FD07311E0C074AD
:1044300090911C01992309F4CEC080911B01811138
:10444000CAC090FFC5C080911A01282F207C09F4B2
:1044500074C092FD12C01092240140E050E0BA01F5
:1044600080E00E94121D80E00E94C00290911C0119
:104470009D7F946090931C01ABC08038E1F483EA87
:1044800092E00E94D7238CE092E00E94D7230E9402
:10449000DD2940E050E0BA0180E00E94121D80E07A
:1044A0000E94C0020E94491A80911B01811193C091
:1044B0000E94BA1DF9CF803419F49F7D90931C019E
:1044C00080911C0183FF84C0909189019923C1F0E0
:1044D00081FD16C08091700181FF06C080911E0190
:1044E000886080931E010CC0B701A6018D2F0E9429
:1044F000121D41E060E070E080E890E40E94E72552
:1045000080918801882371F080911C0181FD0AC08F
:104510008C2F0E94C00241E060E070E080E89FE3E1
:104520000E94E72590911C0191FD52C090619093EB
:104530001C0182E00E94B6114BC090912401992386
:10454000C9F191FF0DC0809189018823B1F040E04D
:1045500050E0BA0180E00E94121D1093240138C07F
:104560009C70B1F18091890181110AC08091240170
:1045700083FF03C082E00E94B6111092240128C07C
:1045800083EA92E00E94D72385E192E00E94D7233C
:104590000E94DD298091700181FF06C080911E017B
:1045A000886080931E01E2CFB701A6018D2F0E9483
:1045B000121DDCCF80911E0183FF0AC0B701A60146
:1045C0008D2F0E94121D80911E01877F80931E01F6
:1045D0000E94BA1D2DCFDF91CF911F91FF90EF90D8
:1045E000DF90CF9008950E94911D0E94E721809155
:1045F0001B01811108C00E947B24892BB1F7809197
:104600001A01883091F308958F929F92AF92BF92D2
:10461000CF92DF92EF92FF920F931F93CF93DF938E
:10462000CDB7DEB72D970FB6F894DEBF0FBECDBF66
:104630006B017C01042F20E030E0A9010E94773754
:1046400087FF07C08DE20E943828F7FAF094F7F848
:10465000F094102F123060F020E030E048EC52E48B
:10466000C701B6010E94D9396B017C011250F2CF0B
:1046700000FF0AC020E030E040E251E4C701B6018B
:104680000E94D9396B017C0120E030E040E05FE31B
:10469000C701B6010E9482360E94F33710E03AE06B
:1046A000832E912CA12CB12C6115710581059105EA
:1046B00091F0EE24E394F12CEC0EFD1EE10EF11CC2
:1046C000A50194010E94023B605DF7016083B9017E
:1046D000CA011F5FE9CF80E3101748F4E1E0F0E082
:1046E000EC0FFD1FE10FF11D80831F5FF5CF10134D
:1046F00014C011E0100F80E3FE01E00FF11D818373
:104700000CC0101303C08EE20E943828FE01E10F96
:10471000F11D80810E94382811501111F2CF2D9681
:104720000FB6F894DEBF0FBECDBFDF91CF911F91C2
:104730000F91FF90EF90DF90CF90BF90AF909F9040
:104740008F9008952091700120FF08C02BE832E47B
:1047500041E25DE30E94D93944E001C043E00C949A
:104760000423CF93DF93843630F06AE00E94E23A6C
:10477000C0E3C90F03C0C0E08A3030F06AE00E9495
:10478000E23AD0E3D90F01C0D0E0805D0E94382822
:10479000DD2319F08D2F0E943828CC2329F08C2F8F
:1047A000DF91CF910C943828DF91CF910895CF936A
:1047B000DF93FC018491EF012196882321F00E9470
:1047C0003828FE01F7CFDF91CF910895E6E0F6E0BB
:1047D000A1E0B1E04D915D916D917C911397408383
:1047E00051836283738314964D915D916D917C9199
:1047F0001797448355836683778318968D919D918F
:104800000D90BC91A02D80879187A287B3870895D2
:10481000BF92CF92DF92EF92FF920F931F93CF93AD
:10482000DF937C01FC0102A513A5D4A5C5A5818950
:1048300080FF18C06091220170E080E090E00E944B
:104840002B382AE037ED43E25CE30E94D9399B0123
:10485000AC01B8018D2F9C2F0E94D9398B01D82F24
:10486000C92F2DC082FD17C06091210170E080E04A
:1048700090E00E942B382AE037ED43E25CE30E948F
:10488000D9399B01AC01B8018D2F9C2F0E94D939D9
:104890008B01D82FC92FF701B6A0C7A0D0A4F1A4CF
:1048A0002B2D3C2D4D2D5F2DB8018D2F9C2F0E945F
:1048B0009939181624F40B2D1C2DDD2DCF2D20E059
:1048C00030E040E85FE3B8018D2F9C2F0E949939BA
:1048D000181624F000E010E0D0E8CFE3B8018D2FE7
:1048E0009C2FDF91CF911F910F91FF90EF90DF9060
:1048F000CF90BF9008958091FB0190911C0598176F
:1049000039F022E3829FC001112484509E4F089504
:1049100080E090E008958CE1E6E0F6E0DF011D9292
:104920008A95E9F71092FB0110921C0581E08093B3
:1049300022061092FA0108952F923F924F925F92B1
:104940006F927F928F929F92AF92BF92CF92DF929F
:10495000EF92FF920F931F93CF93DF93C0911C05AB
:10496000C11101C0C0E1C150D091FA01CD1709F4C5
:104970001BC1EC2EF12C22E3C29F800111240450B4
:104980001E4FF801A688B788C08CD18C628D738DBC
:10499000848D958D9B01AC010E948236F801268D95
:1049A000378D40A151A10E94D9394B018C019B0147
:1049B000AC01B501C6010E94773787FD02C05401E2
:1049C000680182E38E9DF0018F9DF00D1124E4506B
:1049D000FE4FC501D601828B938BA48BB58BC11181
:1049E00001C0C0E1C150CD1761F022E32E9DC0018E
:1049F0002F9D900D11249C0124503E4F7901D2E34C
:104A000033C08091FB01D8135EC00E94F5195BC0D2
:104A1000AC2EB12CDA9DC001DB9D900D1124FC0160
:104A2000E450FE4F6F01C11101C0C0E1C15080913F
:104A3000FB01C81302C00E94F519DA9D8001DB9DBD
:104A4000100D112404501E4FF80186889788A08C01
:104A5000B18CA501940162897389848995890E942A
:104A60007737811106C076018091FA01C813D0CF43
:104A70002AC0F801628D738D848D958D9B01AC01E8
:104A80000E948236F801268D378D40A151A10E94E7
:104A9000D939F70122893389448955890E948236A0
:104AA0002B013C01A50194010E947737F80187FF93
:104AB00005C0428A538A648A758AD5CF828A938ACE
:104AC000A48AB58AD0CFD091FA01F2E3DF9F8001AA
:104AD000112404501E4FC1E0CD0FC03109F4C0E0D5
:104AE00020901C0582E3382EC21509F45BC0CC2E41
:104AF000D12C3C9CC0013D9C900D11249C01245064
:104B00003E4F7901F8014288538864887588F9011D
:104B100082889388A488B588A5019401C301B20155
:104B20000E94773787FF24C0F801628D738D848DD2
:104B3000958D9B01AC010E948236F801268D378D40
:104B400040A151A10E94D9399B01AC01C301B2011E
:104B50000E9482362B013C01A50194010E94773707
:104B600087FF06C0F701428A538A648A758ADC2F60
:104B70003C9CF0013D9CF00D1124E450FE4F268931
:104B80003789408D518D62897389848995890E9406
:104B90007737811101C0DC2FCF5FC03109F4C0E04D
:104BA0008701A2CFD093FA01DF91CF911F910F918E
:104BB000FF90EF90DF90CF90BF90AF909F908F903D
:104BC0007F906F905F904F903F902F9008950F933C
:104BD0001F93CF93C42F20E030E040EA51E40E94BD
:104BE000D9390E9460370E94FA378B0101151105EF
:104BF000D9F080911B01811117C0C11103C00E941F
:104C0000E72106C00E94BA1D80911C0181FD0CC0E5
:104C10002FEF80E792E0215080409040E1F700C004
:104C2000000001501109E2CFCF911F910F9108951B
:104C300080914D0584FD1FC080E10E94B6118091D6
:104C4000B0008F778093B000439890911A01892F1C
:104C50008C7221F480911E01867069F0943031F4D9
:104C600080914E05811105C086E001C083E00E945D
:104C7000A6110C94491A08956AE080E090E00E9421
:104C80005F0245E550E06BE271E081E090E00C945A
:104C90008102CF93DF9300D01F92CDB7DEB76A8336
:104CA0007B8389830E94F32289812DE0829FC0014A
:104CB00011244CE050E06A817B819E5F0F900F9041
:104CC0000F90DF91CF910C948102EF92FF920F939E
:104CD0001F93CF93DF93CDB7DEB72C970FB6F89421
:104CE000DEBF0FBECDBF182F80FFD5C08AE08093F6
:104CF0005B0189E180935E0110925C0110925D017D
:104D000081E080935F018AE097EDA3E2BCE38093AA
:104D1000600190936101A0936201B09363018FE6FB
:104D200092E1A3E0BBE38093640190936501A093BB
:104D30006601B093670180E090E0AAE7B4E4809355
:104D4000680190936901A0936A01B0936B0110927E
:104D50006C0110926D0110926E0110926F01109211
:104D6000710180E090E0A8ECB1E48093720190932F
:104D70007301A0937401B093750180E090E0AAEFF5
:104D8000B3E48093760190937701A0937801B09378
:104D900079012AEF30E030937B0120937A0140E0E3
:104DA00050E060E87FE340937C0150937D01609385
:104DB0007E0170937F011092700140E050E06AE73D
:104DC00073E440932B0150932C0160932D01709359
:104DD0002E0140932F015093300160933101709365
:104DE0003201409333015093340160933501709345
:104DF00036018093370190933801A0933901B09325
:104E00003A0180933B0190933C01A0933D01B09304
:104E10003E0180933F0190934001A0934101B093E4
:104E2000420180E090EAACE0B7E4809343019093C4
:104E30004401A0934501B0934601809347019093AC
:104E40004801A0934901B0934A0180934B0190938C
:104E50004C01A0934D01B0934E0180E090E0A8E496
:104E6000B3EC80934F0190935001A0935101B09304
:104E700052018093530190935401A0935501B09334
:104E800056018093570190935801A0935901B09314
:104E90005A010E943C2611FF10C0CE0101967C01F0
:104EA0008CE0F70111928A95E9F700E0B701802FB5
:104EB0000E9449260F5F0830C9F712FF14C060E056
:104EC00080E093E00E945F0260E081E093E00E9456
:104ED0005F0260E081E593E00E945F0260E082E5AE
:104EE00093E00E945F0213FF0AC060E08EEA93E045
:104EF0000E945F0260E08FEA93E00E945F022C96BE
:104F00000FB6F894DEBF0FBECDBFDF91CF911F91DA
:104F10000F91FF90EF9008951F920F920FB60F928E
:104F200011242F933F934F935F936F937F938F93AE
:104F30009F93AF93BF93EF93FF93E091C600E1324D
:104F400071F028F4E83179F40E94182656C0EF3346
:104F500021F0EE3741F482E003C081E001C088E037
:104F60000E94B6114AC0E7FF37C08E2F90E0FC01C7
:104F7000E458F109ED31F10508F03FC0E659FF4F63
:104F80000C94243B80E2ECCF80911A0185FF35C060
:104F900080E4E6CF81E00DC082E00BC084E009C070
:104FA00088E007C080E105C080E203C080E401C062
:104FB00080E80E949D1121C081E00BC082E009C001
:104FC00084E007C088E005C080E103C080E201C042
:104FD00080E40E94941111C0A091A50681E08A0F7F
:104FE000813809F480E09091A406891731F0B0E08F
:104FF000AD5DB94FEC938093A506FF91EF91BF9102
:10500000AF919F918F917F916F915F914F913F9160
:105010002F910F900FBE0F901F9018951F920F9217
:105020000FB60F9211248F939F93EF93FF9380916C
:105030001007E82FF0E0E955F94F90819093C600F2
:105040008F5F893609F480E0809310079091A6065F
:10505000891305C08091C1008F7D8093C100FF91AD
:10506000EF919F918F910F900FBE0F901F90189509
:10507000E091A60691E09E0F993631F490E004C0CD
:1050800020914D0524FD0FC0209110079217C1F308
:10509000F0E0E955F94F80839093A6068091C10016
:1050A00080628093C1000895CF93DF93EC01688103
:1050B00079818A819B810E94A2238CE20E943828F8
:1050C0006C817D818E819F810E94A2238CE20E944F
:1050D0003828688579858A859B85DF91CF910C94E6
:1050E000A22381E193E00C94D723CF93C82F8AE1C8
:1050F00093E00E94D7238C2F0E94B123CF910C9470
:105100007128811104C089EA92E00C94D7230C9491
:105110007528CF92DF92EF92FF921F93CF93DF9388
:105120001F92CDB7DEB7182F6A017B0184E2298375
:105130000E943828812F0E94B1238DE30E943828D5
:105140002981422FC701B6010E9404230F90DF91ED
:10515000CF911F91FF90EF90DF90CF900C9471282A
:105160001F93CF93DF931F92CDB7DEB7182F84E242
:1051700069830E943828812F0E94B1238DE30E9409
:1051800038286981862F0E94B1230F90DF91CF913B
:105190001F910C947128EF92FF920F931F93CF935E
:1051A000DF9360915B0170E080E00E94B028609125
:1051B0005E0170E081E00E94B02860915C0170E0C7
:1051C00082E00E94B02860915D0170E083E00E945F
:1051D000B0286091700162FB662760F970E084E09E
:1051E0000E94B0286091700166FB662760F970E04C
:1051F00085E00E94B02880917001082E000C990B68
:10520000692F661F6627661F70E086E00E94B0283F
:1052100060915F0170E08AE00E94B02840916001D7
:1052200050916101609162017091630123E08BE014
:105230000E94892840916401509165016091660146
:105240007091670123E08CE00E94892860917001D1
:10525000617070E08DE00E94B0286091700165FB84
:10526000662760F970E084E10E94B02860917001C7
:1052700063FB662760F970E085E10E94B0286091C9
:1052800070016295617070E086E10E94B0286091C3
:10529000710170E087E10E94B02840917201509145
:1052A0007301609174017091750123E088E10E949F
:1052B0008928409176015091770160917801709131
:1052C000790123E089E10E94892860917A01709137
:1052D0007B018AE10E94B02840917C0150917D01C0
:1052E00060917E0170917F0123E08BE10E9489280B
:1052F000409168015091690160916A0170916B0160
:1053000020E08EE10E94892840916C0150916D014E
:1053100060916E0170916F0120E08FE10E948928F9
:10532000609170016695617070E080E20E94B02823
:10533000D4E6F12C0BE211E083E0E82EED0ECD2F48
:1053400082E0F81691F0E3E0FE16E9F0F1E0FF16D6
:1053500031F0F80140815181628173811AC0F801F6
:10536000448555856685778514C020E030E041E6A8
:1053700055E4F801608D718D828D938D0E94813787
:10538000AB01BC0106C0F80144A155A166A177A1FB
:10539000705823E08C2F0E9489280C5F1F4FCF5F2D
:1053A000CE11CECFD65FF394DC3821F6DF91CF91CA
:1053B0001F910F91FF90EF9008958DE50E9438287E
:1053C0000C9471288F929F92AF92BF92CF92DF92EE
:1053D000EF92FF920F931F93CF93DF937C016B01AA
:1053E000DC01EC91F0E0EF5EF84F9081EF019D322F
:1053F00021F42296918101E007C09B3211F02196A1
:1054000002C02296918100E0912CF0E010E020E0B3
:1054100030E0A9015E01E0EDE90FEA30D0F4FF5F72
:10542000F93098F491101150A5E0B0E00E942A3BA9
:10543000DC01CB01880F991FAA1FBB1F9C01AD0186
:105440002E0F311D411D511D0AC0911008C01F5F54
:1054500006C0EE3F41F4911006C099249394219622
:10546000D5019C91D7CFFF2309F44FC0CA01B901E0
:105470000E9429384B015C0120E030E0A9010E9424
:105480007737882349F11F3F64F42AE037ED43E280
:105490005CE3C501B4010E94D9394B015C011E5F78
:1054A000F2CF1F3F59F42DEC3CEC4CEC5DE3C50111
:1054B000B4010E94D9394B015C010EC0112361F087
:1054C00020E030E040E251E4C501B4010E94D93946
:1054D0004B015C011150F2CF002351F0B7FAB094A8
:1054E000B7F8B094F60180829182A282B38206C09E
:1054F000D6018D929D92AD92BC921397C151D74027
:10550000C150F701C08381E001C080E0DF91CF91FD
:105510001F910F91FF90EF90DF90CF90BF90AF90D1
:105520009F908F9008952F923F924F925F926F922B
:105530007F928F929F92AF92BF92CF92DF92EF9223
:10554000FF920F931F93CF93DF93CDB7DEB7A19751
:105550000FB6F894DEBF0FBECDBF90911B01911125
:10556000C3C18D8F3E012DE0620E711C89E0D30115
:105570001D928A95E9F786E08D8B2FE4A22E21E01B
:10558000B22EFE0176964F0100E010E0C12CD12C26
:1055900076013D8D232F30E03C8F2B8F902F01150E
:1055A000110521F0013021F080E103C084E001C049
:1055B00088E0D4018D934D01EB8DFC8D02C0F595F3
:1055C000E7959A95E2F7E0FF17C020E030E040EC65
:1055D0005FEBD5016D917D918D919C910E94D939A0
:1055E0001B012C019B01AC01C701B6010E94993936
:1055F000181614F0610172010F5F1F4FB4E0AB0E7B
:10560000B11C0330110551F62090760130907701DE
:10561000409078015090790194E0A92EBB24B39476
:1056200061E071E0CE0101960E94BF11809171018D
:10563000882E912CFE01319621E031E03A8F298F9E
:10564000890120E030E060E070E0D701C601B05889
:105650008E8F9F8FA8A3B9A34B8D5C8D022E02C0A5
:10566000559547950A94E2F740FF2BC06F5FD8012C
:105670001D921D921D921C921397A401022E02C02E
:10568000559547950A94E2F740FF03C0BB2019F0F7
:1056900007C0BB2029F0C082D182E282F38208C019
:1056A0008E8D9F8DA8A1B9A180839183A283B3839E
:1056B00046E150E04C0F5D1F420F531FDA014C9141
:1056C000742B2F5F3F4F34960C5F1F4F23303105F3
:1056D00019F6172F70E080E090E00E9429380E94B0
:1056E000783A9B01AC0110932001C201B1010E94E4
:1056F000D9396D877E878F87988BB301CE0101964C
:105700000E942D33B4E0B0931E010E944E120E94FD
:10571000FA1CBB20E9F00E94FE01FE01769620E013
:1057200030E090E06191462F412359F0AC01022E08
:1057300002C0559547950A94E2F740FF02C0609574
:1057400016232F5F3F4F2330310561F7109320015F
:105750000E944E1280914D05847339F110914D05D0
:1057600014FF03C086E00E94A61115FF03C087E066
:105770000E94A611B11007C00E94FE01ED8D8E237C
:1057800039F088E003C012FF03C089E00E94A6112F
:1057900080914E05882329F00E9418260E94E72157
:1057A000A3C084E00E94AC1104C0812F8C7109F069
:1057B000B0CF0E947F1A00917A0110917B010115F0
:1057C000110549F08FE99FE00197F1F700C0000053
:1057D00001501109F4CF91E0B926C9F020E030E082
:1057E00040EA50E460917C0170917D0180917E01DE
:1057F00090917F010E94D9396B017C012090720148
:1058000030907301409074015090750110C0C090A9
:105810007C01D0907D01E0907E01F0907F0120908E
:105820007601309077014090780150907901AA94E8
:10583000A110F6CEC0907101D12C80907C01909087
:105840007D01A0907E01B0907F012401350177FA9F
:10585000709477F870948BE2E82E81E0F82E8B8DAF
:105860009C8D002E02C0959587950A94E2F780FFE3
:105870002AC0C601002E02C0959587950A94E2F7CA
:10588000D70180FF10C094962D913D914D915C9170
:105890009797C501B4010E948236F70120813181BA
:1058A0004281538106C02D913D914D915C91C30180
:1058B000B2010E94D9390E94A639E98DFA8D608320
:1058C0007183828393830F5F1F4F298D3A8D2C5FE5
:1058D0003F4F3A8F298F34E0E30EF11C033011055E
:1058E00009F0BDCF10921E01A1960FB6F894DEBF4D
:1058F0000FBECDBFDF91CF911F910F91FF90EF9021
:10590000DF90CF90BF90AF909F908F907F906F90DF
:105910005F904F903F902F900895CF93DF93CDB736
:10592000DEB762970FB6F894DEBF0FBECDBF809191
:10593000C00082608093C0001092C50080E1809317
:10594000C4008091C10088698093C10080E090E02C
:105950000E94C7018A3009F03DC545E550E061E08D
:1059600070E08BE291E00E941902892B09F432C5A4
:105970008AB18C618AB9209A8AB1806E8AB9809185
:1059800081008F7E80938100809181008860809368
:105990008100809180008C7F8093800080918000C6
:1059A0008F708093800080916E00887F80936E005E
:1059B00014BC15BC80916E00816080936E0087B12D
:1059C000887F87B988B1876088B980916C008760CB
:1059D00080936C00809168008260809368008CE006
:1059E000E1E0F1E0DF011D928A95E9F778941092E9
:1059F0001A018091700184FF03C081E080931A0135
:105A0000ADE0CA2EA1E0DA2EB2E0EB2E80911A01B1
:105A100091E1EAE1F1E011929A95E9F780931A0198
:105A200084E68093210180932201809323018CE0FE
:105A3000D6011D928A95E9F71092190110924D0531
:105A400010924E0510924F05109250058091A506B8
:105A50008093A40680E4E0E8F1E011928A95E9F7EA
:105A600064EA71E080E00E94701D811103C087E04C
:105A70000E9475280E943D1D3B9A43980E94B001E8
:105A80003D98459A80E00E94991D0E948B240E94B7
:105A90007F1A0E94E6230E9413028AE591E00E9489
:105AA000D7238091700183FF11C00E94FE018823DB
:105AB00069F081E080931A0183EA92E00E94D72383
:105AC00082E492E00E94D7230E94DD2980911A018E
:105AD0008178A1F083EA92E00E94D7238DE792E0DB
