:100000000C9413040C9430040C9430040C94C02809
:100010000C948E310C9430040C9430040C94300405
:100020000C9430040C9430040C9430040C94871617
:100030000C9430040C9430040C9430040C94300470
:100040000C94A0180C9430040C941B140C94DD1325
:100050000C9430040C9430040C9430040C94300450
:100060000C9430040C943004220BD512D5122C0BB6
:10007000390B460B530BD512570BD512650BD51206
:100080006F0B790BAA0BD512D512D512830B900BDF
:100090009D0BC911DA11F911DA11FD1110120312B9
:1000A000091225122B123A12511275127F128B125D
:1000B0009512222228222B222E2233223B22452255
:1000C000B122B122B1224D22502259226222B12204
:1000D000B122B122B122B122B1226A22742280223D
:1000E00088228B2294229D22A322FC2CFF2C042DFB
:1000F000072D0A2D0D2D102D132D162D192D1C2D0C
:10010000282D282D282D282D282D282D282D282D47
:10011000222D1F2D252D084AD73B3BCE016E84BCD6
:10012000BFFDC12F3D6C74319ABD56833DDA3D0051
:10013000C77F11BED9E4BB4C3E916BAAAABE00009A
:1001400000803F05A84CCDB2D44EB93836A9020C78
:1001500050B9918688083CA6AAAA2ABE0000008051
:100160003F003E0D0A002C52583A002C4275663A68
:10017000002C002C57506F733A002C002C4D506F00
:10018000733A003C446F6F72003C436865636B00D8
:100190003C416C61726D003C486F6D65003C486F7E
:1001A0006C64003C52756E003C49646C65005D0DEA
:1001B0000A005B6563686F3A20005D0D0A005B30E2
:1001C0002E39692E32303135303332393A000D0A4A
:1001D000003D00244E005D0D0A0020530020460023
:1001E000205400204D3800204D3900204D3500208E
:1001F0004D3400204D3300204D3200204D31002081
:100200004D3000204739340020473933002047392A
:10021000310020473930002047323000204732314A
:10022000002047313900204731380020473137005E
:100230002047004733382E00473830004733004707
:1002400032004731004730005B005D0D0A005B540F
:100250004C4F3A005D0D0A002C005B4739323A00E2
:100260005D0D0A002C003A003330003238005B4745
:10027000005D0D0A003A002C005B5052423A002902
:100280000D0A00206D61782074726176656C2C20F7
:100290006D6D0020616363656C2C206D6D2F73653F
:1002A000635E3200206D617820726174652C206D70
:1002B0006D2F6D696E002C20737465702F6D6D004D
:1002C0007A00790078002028003D0024002028686A
:1002D0006F6D696E672070756C6C2D6F66662C2073
:1002E0006D6D290D0A002028686F6D696E672064A6
:1002F00065626F756E63652C206D736563290D0AE9
:100300002432373D002028686F6D696E6720736561
:10031000656B2C206D6D2F6D696E290D0A243236A8
:100320003D002028686F6D696E6720666565642CE6
:10033000206D6D2F6D696E290D0A2432353D00291F
:100340000D0A2432343D002028686F6D696E6720E5
:1003500064697220696E76657274206D61736B3AA0
:10036000002028686F6D696E67206379636C652C67
:1003700020626F6F6C290D0A2432333D00202868FB
:10038000617264206C696D6974732C20626F6F6C8C
:10039000290D0A2432323D002028736F6674206CC8
:1003A000696D6974732C20626F6F6C290D0A243299
:1003B000313D0020287265706F727420696E636829
:1003C00065732C20626F6F6C290D0A2432303D005A
:1003D000202861726320746F6C6572616E63652C96
:1003E000206D6D290D0A2431333D0020286A756E79
:1003F0006374696F6E20646576696174696F6E2CD1
:10040000206D6D290D0A2431323D00290D0A243159
:10041000313D002028737461747573207265706FAC
:100420007274206D61736B3A00202870726F626580
:100430002070696E20696E766572742C20626F6F11
:100440006C290D0A2431303D0020286C696D6974D7
:100450002070696E7320696E766572742C20626FED
:100460006F6C290D0A24363D0020287374657020B6
:10047000656E61626C6520696E766572742C2062AF
:100480006F6F6C290D0A24353D00290D0A24343D77
:1004900000202864697220706F727420696E76651E
:1004A0007274206D61736B3A00290D0A24333D008C
:1004B00020287374657020706F727420696E766581
:1004C0007274206D61736B3A00202873746570201C
:1004D00069646C652064656C61792C206D7365635B
:1004E000290D0A24323D0020287374657020707530
:1004F0006C73652C2075736563290D0A24313D00EA
:1005000024303D00242420287669657720477262D4
:100510006C2073657474696E6773290D0A24232037
:100520002876696577202320706172616D65746536
:100530007273290D0A244720287669657720706137
:1005400072736572207374617465290D0A244920E1
:100550002876696577206275696C6420696E666FBC
:10056000290D0A244E2028766965772073746172FC
:1005700074757020626C6F636B73290D0A24783D6B
:1005800076616C7565202873617665204772626CB0
:100590002073657474696E67290D0A244E783D6C6A
:1005A000696E652028736176652073746172747555
:1005B0007020626C6F636B290D0A244320286368E6
:1005C00065636B2067636F6465206D6F6465290DDB
:1005D0000A245820286B696C6C20616C61726D2054
:1005E0006C6F636B290D0A2448202872756E206891
:1005F0006F6D696E67206379636C65290D0A7E20D3
:10060000286379636C65207374617274290D0A2103
:1006100020286665656420686F6C64290D0A3F2098
:100620002863757272656E742073746174757329B2
:100630000D0A6374726C2D782028726573657420BE
:100640004772626C290D0A000D0A4772626C2030F5
:100650002E3969205B27242720666F722068656C1D
:10066000705D0D0A005D0D0A00436865636B2044F0
:100670006F6F720044697361626C656400456E61FE
:10068000626C65640043617574696F6E3A20556EE3
:100690006C6F636B656400272448277C27245827E8
:1006A00020746F20756E6C6F636B00526573657498
:1006B00020746F20636F6E74696E7565005B000D4A
:1006C0000A00486F6D696E67206661696C00507240
:1006D0006F6265206661696C0041626F72742064AC
:1006E0007572696E67206379636C6500536F667419
:1006F000206C696D69740048617264206C696D6971
:100700007400414C41524D3A20000D0A00496E766A
:10071000616C69642067636F64652049443A0055E1
:100720006E646566696E65642066656564207261E5
:10073000746500556E737570706F727465642063B4
:100740006F6D6D616E64004D6F64616C2067726FD8
:1007500075702076696F6C6174696F6E004C696E9C
:1007600065206F766572666C6F7700486F6D696E95
:1007700067206E6F7420656E61626C656400416C09
:1007800061726D206C6F636B004E6F742069646CD6
:100790006500454550524F4D207265616420666189
:1007A000696C2E205573696E672064656661756C8F
:1007B00074730056616C7565203C20332075736539
:1007C000630053657474696E672064697361626C59
:1007D00065640056616C7565203C203000496E767A
:1007E000616C69642073746174656D656E74004238
:1007F0006164206E756D62657220666F726D6174E2
:1008000000457870656374656420636F6D6D616E1B
:1008100064206C6574746572006572726F723A2040
:10082000006F6B0D0A0011241FBECFEFD8E0DEBFB2
:10083000CDBF11E0A0E0B1E0E4E8FFE602C0059022
:100840000D92A630B107D9F726E0A6E0B1E001C0CD
:100850001D92A33DB207E1F70E9432040C94C03709
:100860000C9400000E94AB130E94BD220E941E192E
:100870000E947D3180E2EDE2F5E0DF011D928A9574
:10088000E9F781E080932D0578948091C20684FF7A
:1008900003C081E080932E050E9479140E94F30822
:1008A0000E9403130E9483130E94A9280E94B22C65
:1008B0000E9429240E94F2180E9479270E940509AB
:1008C00010922D05109230051092310510922F05CF
:1008D0000E94A915E1CFEF92FF921F93CF93DF9370
:1008E00000D000D0CDB7DEB77C01122F8091C206B8
:1008F00085FF0BC0C70149835A836B837C830E94A9
:10090000082B7C816B815A81498180912E05823030
:1009100031F149835A836B837C830E947E148091DA
:100920002D0581111CC00E94782449815A816B8158
:100930007C81882339F00E94A01549815A816B81FE
:100940007C81E7CF212FC7010F900F900F900F9060
:10095000DF91CF911F91FF90EF900C9480240F9026
:100960000F900F900F90DF91CF911F91FF90EF901C
:1009700008952F923F924F925F926F927F928F9243
:100980009F92AF92BF92CF92DF92EF92FF920F931E
:100990001F93CF93DF93CDB7DEB7E7970FB6F894E9
:1009A000DEBF0FBECDBF9C8B8B8B1B013A0109872D
:1009B0001A872B873C87AF8A2D961FAD2D972E96D1
:1009C0002FAD2E97298B2F963FAD2F973D8B84E02F
:1009D000889EA00111245A834983AB89BC89A40F46
:1009E000B51FB98FA88F460D571D5B8F4A8FFA012F
:1009F00080809180A280B3802D913D914D915C913A
:100A0000C501B4010E946E336C8F7D8F8E8F9F8FD6
:100A1000F4E01F9F800111242B893C89200F311F96
:100A200039A328A3A301400F511F5BA34AA3DA01F6
:100A30004D905D906D907C90F901208131814281D3
:100A40005381C301B2010E946E336CA37DA38EA3B8
:100A50009FA3A501940150582D873E874F87588B3F
:100A6000D301C201B0588D839E83AF83B887E981DB
:100A7000FA81E20DF31D2C8D3D8D4E8D5F8D6081D1
:100A80007181828193810E946D332B013C01F101C0
:100A9000E00FF11F2CA13DA14EA15FA160817181EA
:100AA000828193810E946D334B015C01A30192010D
:100AB0006D857E858F8598890E94853669837A83C6
:100AC0008B839C83A50194016D817E818F819885A4
:100AD0000E9485369B01AC0169817A818B819C8162
:100AE0000E946E3369837A838B839C83A501940172
:100AF0006D857E858F8598890E9485364B015C01C6
:100B0000A30192016D817E818F8198850E94853637
:100B10009B01AC01C501B4010E946D3329813A816A
:100B20004B815C810E94E1332B013C019D8999231B
:100B300099F02DEB37E346E055EBC301B2010E947B
:100B40004A3687FD1DC02BED3FE049EC50E4C30160
:100B5000B2010E946D3312C02DEB37E346E055E33E
:100B6000C301B2010E944734181654F02BED3FE048
:100B700049EC50E4C301B2010E946E332B013C01E9
:100B80008090BE069090BF06A090C006B090C106AF
:100B900029853A854B855C85CA01B9010E946E336F
:100BA000A50194010E946D339B01AC01C501B40104
:100BB0000E9485360E9412374B015C0120E030E034
:100BC00040E05FE3C301B2010E94853629853A8582
:100BD0004B855C850E9485369F77A50194010E9414
:100BE0004E340E9424350E94BB347E8B6D8BDB011A
:100BF000AB2B09F486C14B01A12CB12CBF89BB23BF
:100C000061F0C501B4010E94E7349B01AC01C7014A
:100C1000B6010E9485366B017C01C501B4010E94BA
:100C2000E7344B015C019B01AC01C301B2010E949E
:100C30004E3469877A878B879C87F989E4E0FE9F29
:100C4000C00111242B893C89280F391F3A8B298B2D
:100C5000F101E80FF91FD9012D913D914D915C9162
:100C600060817181828193810E946D33A50194011D
:100C70000E944E346CAB7DAB8EAB9FAB29853A8521
:100C80004B855C85CA01B9010E9485369B01AC0188
:100C900060E070E080E090E40E946D334B015C0105
:100CA0002BEA3AEA4AE25EE369857A858B859C8580
:100CB0000E9485362B013C0120E030E040E850E402
:100CC000C501B4010E946E339B01AC01C301B201A6
:100CD0000E94853668A779A78AA79BA720E030E005
:100CE00040E05FE3C501B4010E9485366CA77DA793
:100CF0008EA79FA7198201E010E0ED89FE890E17EB
:100D00001F0709F4FEC0B981BC3008F04AC02CA509
:100D10003DA54EA55FA56D817E818F8198850E943E
:100D200085364B015C0128A539A54AA55BA56D85D3
:100D30007E858F8598890E948536A50194010E9441
:100D40006E33B62EA72E982E892E2CA53DA54EA526
:100D50005FA56D857E858F8598890E9485362B01DC
:100D60003C0128A539A54AA55BA56D817E818F81AF
:100D700098850E9485369B01AC01C301B2010E9497
:100D80006D336D877E878F87988BE981EF5FE9836D
:100D90008B2D9A2DA92DB82D8D839E83AF83B88777
:100DA0006EC0B80180E090E00E94E73429853A8562
:100DB0004B855C850E9485364B015C010E944B345B
:100DC0006D837E838F839887C501B4010E940837A5
:100DD0004B015C01EA8DFB8D80819181A281B38101
:100DE0009C01AD01505829833A834B835C83AAA1AF
:100DF000BBA18D919D910D90BC91A02D88AB99AB1D
:100E0000AAABBBAB2D813E814F81588569817A8128
:100E10008B819C810E9485362B013C01A5019401A8
:100E200068A979A98AA99BA90E9485369B01AC0172
:100E3000C301B2010E946E336D877E878F87988BC6
:100E4000A501940169817A818B819C810E948536FC
:100E50004B015C012D813E814F81588568A979A99C
:100E60008AA99BA90E9485369B01AC01C501B401EA
:100E70000E946D336D837E838F83988719822D85C1
:100E80003E854F8558896C8D7D8D8E8D9F8D0E94FE
:100E90006E33E88DF98D60837183828393832D8116
:100EA0003E814F8158856CA17DA18EA19FA10E949A
:100EB0006E33A8A1B9A16D937D938D939C931397E5
:100EC0002CA93DA94EA95FA9E989FA8960817181A0
:100ED000828193810E946E33A989BA896D937D9333
:100EE0008D939C9313972F89B701A6018B899C89B9
:100EF0000E946B0480912D05811121C00F5F1F4F4F
:100F0000FCCE2F89B701A601C101E7960FB6F89470
:100F1000DEBF0FBECDBFDF91CF911F910F91FF902C
:100F2000EF90DF90CF90BF90AF909F908F907F9089
:100F30006F905F904F903F902F900C946B04E796CA
:100F40000FB6F894DEBF0FBECDBFDF91CF911F91DA
:100F50000F91FF90EF90DF90CF90BF90AF909F9058
:100F60008F907F906F905F904F903F902F9008955B
:100F70008F929F92AF92BF92CF92DF92EF92FF92A9
:100F80004B015C0180912E05823009F447C020E0BE
:100F900030E040EA51E4C501B4010E9485360E9468
:100FA00024350E94BB346B017C010E942B1620E08B
:100FB00030E04AE754E4C501B4010E9485364B0194
:100FC0005C0182E38C9DB0018D9D700D112480E049
:100FD00090E00E94E7349B01AC01C501B4010E947E
:100FE0006D330E9424350E94BB34CB010E946D28D2
:100FF000C114D10499F00E947E1421E0C21AD108D4
:1010000080912D0581110AC08FEF90E722E0815079
:1010100090402040E1F700C00000EACFFF90EF9041
:10102000DF90CF90BF90AF909F908F9008950E94D7
:101030009E2884E00E94F42883E00E94F4280E9405
:101040007E1480912D05811104C00E9405090C9425
:10105000A9280895CF92DF92EF920F93CF93DF9359
:1010600000D000D01F92CDB7DEB76C0180912E0565
:10107000823009F481C02D8349835A836B837C833A
:101080000E942B1610924C05802F0E94B52C0E94B6
:10109000C72C2D8149815A816B817C818823A1F0E5
:1010A0009FB7F894809131058061809331059FBF8F
:1010B0002D8349835A836B837C830E947E147C81B9
:1010C0006B815A8149812D8180912D05811154C0F8
:1010D000C6010E946B0481E080933F059FB7F8949E
:1010E000809130058260809330059FBF0E947E14FE
:1010F00080912D05811140C080912E058111F6CF80
:1011000080913F058130A9F4EE2051F08CE0E2E3BC
:10111000F5E0A0E4B5E001900D928A95E1F70CC0EE
:101120009FB7F894809131058061809331059FBF0E
:1011300003C081E080934C0510923F050E947E140D
:1011400080912D05811118C00E94F2180E94292457
:101150000E94792762E375E0C6010E9453330F9025
:101160000F900F900F900F90DF91CF910F91EF9014
:10117000DF90CF900C94F12E0F900F900F900F9066
:101180000F90DF91CF910F91EF90DF90CF90089566
:101190008091300584FD26C09FB7F894809130057A
:1011A0008061809330059FBF0E94FD120E948113D1
:1011B00080912E05982F9C7021F490912F059130ED
:1011C00089F49FB7843029F4F894809131058062C6
:1011D00004C0F894809131058860809331059FBFE9
:1011E0000C945C1608958FE3EDE4F5E0DF011D92A9
:1011F0008A95E9F760E775E080E00E94822181111D
:1012000003C087E00C94E62C089562E375E084E661
:1012100095E00C9453332F923F924F925F926F92CE
:101220007F928F929F92AF92BF92CF92DF92EF9276
:10123000FF920F931F93CF93DF93CDB7DEB7AB979A
:101240000FB6F894DEBF0FBECDBF98A38F8F89E392
:10125000ECE8F5E0DF011D928A95E9F78AE0EDE41C
:10126000F5E0ADE8B5E001900D928A95E1F71D8EAD
:10127000212C312CA12CB12C19A2512C1E8E6624AC
:101280006394712C08E0402E9924939485E0882E75
:101290008D8DEF8DF8A1E80FF11D0081002309F479
:1012A0007CC29FEB900F9A3110F00C94C7128F5FA5
:1012B0008D8FAE01475E5F4FBE01635E7F4F8F8DA6
:1012C00098A10E94BB27882311F40C94C912C98CE1
:1012D000DA8CEB8CFC8CC701B6010E9453370E945C
:1012E000BB34162F70E080E090E00E94E9349B014F
:1012F000AC01C701B6010E946D3320E030E048EC3C
:1013000052E40E9485360E94E8360E94BB340734BE
:1013100021F00D3409F442C184C1183209F424C10A
:10132000E8F4143160F4113108F0D3C0143009F43A
:1013300056C008F48AC01A30B9F10C94D5121C3189
:1013400099F128F4163108F4EFC00C94D5121E312F
:1013500059F1163209F479C00C94D512103509F4FC
:10136000B5C0A8F4153309F45DC040F41B3209F48C
:10137000E4C0113309F4E1C00C94D5121C3310F011
:101380000C94D51216531093930589E0F2C01C35C6
:1013900059F028F41A3508F0ABC00C94D5121F355B
:1013A00008F4B9C00C94D5126115710531F4BE8DE5
:1013B000B1110C94CB12E1E0EE8F1C3199F038F4AE
:1013C000143069F01A3009F0D1C082E02CC0153316
:1013D00049F11C3559F11E3109F0C8C013C0909273
:1013E0008C05C4C06115710549F06A30710511F0B2
:1013F0000C94D51224E020938C0509C0F3E0F093FF
:101400008C0505C06115710521F480928C0580E082
:10141000B5C06A30710511F00C94D51236E03093E6
:101420008C05F5CF87E080938C05A0C06115710510
:1014300049F06A30710511F00C94D51299E090933F
:101440008C05E5CF40928C05E2CFAE8DA1110C94B6
:10145000CB12B2E0BE8F123089F028F4112359F07C
:10146000113081F085C0163281F0103579F11330DA
:1014700009F07EC007C010928D057AC0EE8DE09312
:101480008D0576C010938D0573C06E317105B1F076
:1014900048F46431710511F00C94D512F4E0F09326
:1014A0008D0512C06832710561F06233710511F06B
:1014B0000C94D51237E030938D0506C080928D05CF
:1014C00003C026E020938D0581E058C040928D0531
:1014D0004FC0123129F0133139F01092910502C03A
:1014E0009092910582E045C082E08093910541C0D1
:1014F0006115710549F41A3519F41092900502C06E
:101500009092900583E03AC06A30710511F00C9416
:10151000D51284E033C01D3519F490928E0502C0B7
:1015200010928E0585E025C0143119F490928F0534
:1015300002C010928F0586E01CC08E8D81110C9424
:10154000CB12113331F41092920588E093E09E8F14
:1015500015C06A30710511F00C94D5129092920565
:1015600088E0A3E0AE8F0AC087E003C080E001C03E
:1015700081E0672B19F087E10C94E412F30102C0BB
:10158000EE0FFF1F8A95E2F7CF019F012A213B2131
:10159000232B09F443C085E10C94E412672B59F71F
:1015A000163018F4133058F017C0183010F40C949B
:1015B000D5121A3000F11E3159F00C94D5121230A8
:1015C00039F01E3129F0111120C0909294051DC0F0
:1015D00082E08093940519C0143029F0153039F059
:1015E0009092960506C082E08093960502C0109204
:1015F00096058BE00BC0193021F082E080939505B1
:1016000002C0109295058CE001C08AE0930102C0EF
:10161000220F331F8A95E2F7C901B8CFA82AB92A49
:1016200037CE802F992787FD9095A92FB92FFC01E0
:10163000E654F109E531F10508F0B7C7EC5CFF4F5E
:101640000C94A037C0929705D0929805E092990526
:10165000F0929A0580E07FC0C0929B05D0929C05D5
:10166000E0929D05F0929E0539A1316039A381E099
:1016700072C0C0929F05D092A005E092A105F092A1
:10168000A20589A1826089A382E065C0C092A305FA
:10169000D092A405E092A505F092A60599A19460C8
:1016A00099A383E058C01093A70584E054C0C701F4
:1016B000B6010E94B6346093A8057093A905809383
:1016C000AA059093AB0585E046C0C092AC05D092C8
:1016D000AD05E092AE05F092AF0586E03CC0C09249
:1016E000B005D092B105E092B205F092B30587E063
:1016F00032C0C092B405D092B505E092B605F09222
:10170000B70588E028C0C092B905D092BA05E0922A
:10171000BB05F092BC05A52DA1605A2E8AE01BC026
:10172000C092BD05D092BE05E092BF05F092C00503
:10173000B52DB2605B2E8BE00EC0C092C105D09279
:10174000C205E092C305F092C405E52DE4605E2E6B
:101750008CE001C089E08301082E02C0000F111F38
:101760000A94E2F7980122213321232B09F015C7AF
:1017700021E633E002C0359527958A95E2F720FFF0
:1017800009C020E030E0A901C701B6010E9447343A
:1017900087FD05C7202A312A7BCD552029F03E8DB3
:1017A000311102C082E08E8F25FE0EC08091A80507
:1017B0009091A905A091AA05B091AB0580389649F2
:1017C000A849B1050CF0EDC680918E05813031F449
:1017D000FE8DF230A1F520FEEEC631C080914E059F
:1017E00081112DC020FE1BC080918F05813039F5FD
:1017F00023E333E34BEC51E4609197057091980536
:101800008091990590919A050E948536609397057D
:10181000709398058093990590939A0510C08091D4
:101820005B0590915C05A0915D05B0915E0580938C
:10183000970590939805A0939905B0939A0530FC6D
:1018400010C08091570590915805A0915905B0910D
:101850005A058093B4059093B505A093B605B0934F
:10186000B70580918C05813031F426FC02C08CE1F3
:10187000ABC6E89426F880919105882341F0813029
:1018800061F019A682E088A791E09FA30BC022E037
:1018900029A731E038A71FA205C0A1E0A9A718A673
:1018A000B2E0BFA380918F05813021F0EE8DE3304F
:1018B00091F52AC0B9EBEB2EB5E0FB2E00E010E06D
:1018C000C52CD12CC601002E02C0959587950A948F
:1018D000E2F780FF10C023E333E34BEC51E4D70180
:1018E0006D917D918D919C910E948536F701608369
:1018F0007183828393830F5F1F4FF4E0EF0EF11C1F
:1019000003301105F9F6D2CF80919205813019F498
:1019100024E0521248C68CE0E0E7F5E0DE011D96B7
:1019200001900D928A95E1F7B1FC09C030918C05C8
:101930003F8F3230B9F0383009F4AFC014C1809114
:101940009305873010F08DE13FC6909153059817AD
:1019500069F3BE01635F7F4F0E9482218111E6CF50
:1019600087E032C6511002C08AE12EC6C1018075DF
:101970009927892B09F47BCF6091AC057091AD0557
:101980008091AE059091AF050E9453370E94BB3401
:101990006730C8F68091A705843129F0823009F0BC
:1019A00004C627FC02C68FEA2822662319F061507C
:1019B0006F8F03C0909193059F8FBE016F5F7F4F24
:1019C0008F8D0E948221882359F24090A705609054
:1019D00088057090890580908A0590908B05DE01BE
:1019E00011967D01F9EBCF2EF5E0DF2EA4E6AA2EAD
:1019F000A5E0BA2E00E010E0E52DF0E0FEA3EDA397
:101A00008DA19EA1002E02C0959587950A94E2F7BC
:101A100080FF33C0F4E14F1226C0D50158962D91B6
:101A20003D914D915C915B976D917D918D919C91D4
:101A30000E946D33F60120813181428153810E94E1
:101A40006D33D7016D937D938D939C9313970230E3
:101A5000A1F4A40193010E946D33F70160837183A7
:101A6000828393830AC0F60180819181A281B38130
:101A7000F70180839183A283B3830F5F1F4FF4E04C
:101A8000EF0EF11C24E0C20ED11C34E0A30EB11CF9
:101A90000330110509F0B4CF0FC1552009F464CF0C
:101AA000609088057090890580908A0590908B05DC
:101AB00009EB15E0E4E6CE2EE5E0DE2E5E018DE0DA
:101AC000A80EB11CE12CF12CA52DB0E0B8A3AF8F6E
:101AD0008F8D98A10E2C02C0959587950A94E2F7F8
:101AE00080FF26C0F5012081318142815381D601DA
:101AF0006D917D918D919C910E946D33F8012081B3
:101B00003181428153810E946D33D8016D937D9361
:101B10008D939C931397B2E0EB1214C0A401930130
:101B20000E946D33F80160837183828393830AC0BE
:101B3000F601808D918DA28DB38DF8018083918304
:101B4000A283B383FFEFEF1AFF0A0C5F1F4F24E05D
:101B5000C20ED11C34E0A30EB11C83E0E816F104E0
:101B600009F0B6CFA8C09E8D933059F4AF8DA53043
:101B700009F48FC0A73009F499C0A33009F09BC0C5
:101B800080C0552099F340909005809088059090F2
:101B90008905A0908A05B0908B0574E6C72E75E084
:101BA000D72E09EB15E03E01BDE06B0E711CE12C58
:101BB000F12CE52DF0E0FEA3EDA38DA19EA10E2C4E
:101BC00002C0959587950A94E2F780FD0BC0F60157
:101BD00080819181A281B381F80180839183A28366
:101BE000B3833EC0FF8DF730D9F1411028C0D60134
:101BF00058962D913D914D915C915B97F3016081D9
:101C00007181828193810E946E33D8012D913D9123
:101C10004D915C910E946E33F801608371838283E1
:101C20009383F2E0EF121CC0A50194010E946E3371
:101C3000D8016D937D938D939C93139711C0F601FA
:101C40002081318142815381D8016D917D918D91A7
:101C50009C910E946E33F801608371838283938329
:101C6000FFEFEF1AFF0A24E0C20ED11C0C5F1F4FDA
:101C700034E0630E711C83E0E816F10409F09DCF97
:101C800075CF511001C01E8EBE016F5F7F4F86E081
:101C900007C0511001C01E8EBE016F5F7F4F87E0ED
:101CA0000E948221882309F45BCE05C080918D05B6
:101CB000823008F07CC41F8E10918D05183041F4DD
:101CC000552009F4B3C19E8D913009F072C48BC2C6
:101CD000AE8DA23009F0AAC11123D9F020E030E086
:101CE000A90160919705709198058091990590914F
:101CF0009A050E944734882309F45DC4143028F4FF
:101D0000123058F4113029F06EC2183008F44DC169
:101D10006AC2511068C21E8E8CC1552009F424CEAF
:101D2000FFA1EF2FF0E0FEA3EDA338A5232F30E0B5
:101D30003BA72AA781E090E03C0108A402C0660C02
:101D4000771C0A94E2F70FA002C0880F991F0A942B
:101D5000E2F7682A792A852D90E086219721892B40
:101D600009F42BC4CF01880F991F880F991FFC011C
:101D7000E457FA4FDC01A35BBA4F57962D913D9182
:101D80004D915C915A9765A576A587A590A90E946B
:101D90006D336B017C018AA59BA5880F991F880F65
:101DA000991FFC01E457FA4FDC01A35BBA4F579629
:101DB0002D913D914D915C915A9765A576A587A58A
:101DC00090A90E946D334B015C0127FE40C0E8944E
:101DD00027F82091B9053091BA054091BB05509183
:101DE000BC056091640570916505809166059091D0
:101DF00067050E944734811120C12091BD053091B3
:101E0000BE054091BF055091C00560916805709175
:101E1000690580916A0590916B050E944734811194
:101E20000CC12091C1053091C2054091C30550916C
:101E3000C40560916C0570916D0580916E0590915F
:101E40006F050E9447348111F8C081E2BDC3F9A13A
:101E50004F2E512C64207520672809F4B0C321EF60
:101E6000222280918F05813009F45AC00AA51BA552
:101E7000000F111F000F111F00571A4FD8011B969A
:101E80002D913D914D915C911E97C501B4010E9429
:101E90006D332B013C01ADA0BEA0AA0CBB1CAA0C4B
:101EA000BB1CF501E057FA4F5F012385348545855A
:101EB0005685C701B6010E946D33A30192010E94AD
:101EC00078286B017C01D8011B962D913D914D9195
:101ED0005C911E97F50163857485858596850E94C2
:101EE00078284B015C016093B0057093B105809335
:101EF000B2059093B3059B01AC01C701B6010E94E6
:101F00006D336B017C01E894F7F82AE037ED43EA82
:101F10005BE3C701B6010E944A3618164CF163C153
:101F20008BE9682E85E0782E00E010E0C201002EDB
:101F300002C0959587950A94E2F780FF10C023E3CD
:101F400033E34BEC51E4D3016D917D918D919C91E4
:101F50000E948536F30160837183828393830F5FD0
:101F60001F4FF4E06F0E711C03301105F9F67ECFA0
:101F700020E030E040E05FE3C701B6010E944A364E
:101F800018160CF462CF2FE632E143E85AE3C5019C
:101F9000B4010E9485369B01AC01C701B6010E94C5
:101FA0004A3618160CF451CF1EC1552009F4DCCC6A
:101FB0002091B9053091BA054091BB055091BC05FF
:101FC0006091640570916505809166059091670543
:101FD0000E944734811107C12091BD053091BE0593
:101FE0004091BF055091C0056091680570916905E9
:101FF00080916A0590916B050E9447348111F3C06E
:102000002091C1053091C2054091C3055091C4058E
:1020100060916C0570916D0580916E0590916F05D2
:102020000E944734882309F410CFDDC02E8D211182
:10203000DAC0C1018E7D9C7FD9C080918F0581302F
:10204000B1F423E333E34BEC51E46091B0057091BC
:10205000B1058091B2059091B3050E9485366093D9
:10206000B0057093B1058093B2059093B30540908D
:10207000B0055090B1056090B2057090B30520E0B6
:1020800030E040E850E4C301B2010E948536A3016C
:1020900092010E9485362B013C01A7019601C701E0
:1020A000B6010E9485369B01AC01C301B2010E94BA
:1020B0006D332B013C01A5019401C501B4010E94BF
:1020C00085369B01AC01C301B2010E946D332B0127
:1020D0003C0120E030E0A9010E94473487FD73C233
:1020E000C301B2010E9412372B013C01A5019401EA
:1020F000C701B6010E9478289B01AC01C301B2015F
:1021000090580E944E342B013C0180918D05833004
:1021100021F477FA709477F870948091B0059091DB
:10212000B105A091B205B091B30589A39AA3ABA361
:10213000BCA320E030E0A901BC01CD010E944734DE
:1021400087FF11C077FA709477F8709489A19AA1EB
:10215000ABA1BCA1B0588093B0059093B105A093FA
:10216000B205B093B3050DA11EA1000F111F000F02
:10217000111F00571A4FA3019201C501B4010E941B
:1021800085369B01AC01C701B6010E946D3320E08A
:1021900030E040E05FE30E948536D8011B966D93E6
:1021A0007D938D939C931E970AA51BA5000F111F6D
:1021B000000F111F00571A4FA3019201C701B6016A
:1021C0000E9485369B01AC01C501B4010E946E33AB
:1021D00020E030E040E05FE30E948536F80163874D
:1021E000748785879687C1018E7D907E892B09F043
:1021F000E8C18091A8059091A905A091AA05B09188
:10220000AB058093600590936105A0936205B09340
:10221000630580918E0580934E058091970590917E
:102220009805A0919905B0919A0580935B059093CC
:102230005C05A0935D05B0935E05C090B405D09099
:10224000B505E090B605F090B705A701960160913D
:102250005705709158058091590590915A050E9433
:1022600047348823C1F080915605882321F0B701B7
:10227000A6010E9459138091B4059091B505A091D3
:10228000B605B091B7058093570590935805A09374
:102290005905B0935A058091B80580935F058091E8
:1022A000960590915605981771F0409157055091F9
:1022B00058056091590570915A050E9459138091F3
:1022C0009605809356058091950590915505981730
:1022D00031F00E948C138091950580935505809173
:1022E0008C05813051F46091AC057091AD05809101
:1022F000AE059091AF050E94B8078091910580933B
:10230000510580918F0580934F053E8D3330F9F450
:102310008091920580935205813089F48091C105A6
:102320009091C205A091C305B091C4058093880522
:1023300090938905A0938A05B0938B0508C01092ED
:1023400088051092890510928A0510928B0580915C
:10235000930590915305981759F0809353058CE09D
:10236000FE013D96A0E7B5E001900D928A95E1F758
:10237000809190058093500580918C0590E0FC0140
:102380003297E830F10508F04BC0E75BFF4F0C9443
:10239000A037BE016F5F7F4F8F8D0E946A208091B2
:1023A00053059F8D89133CC08CE0FE013196A0E758
:1023B000B5E01AC0AE8DAA2349F020E040E050E01D
:1023C00060E87FEB89EB95E00E946B0420E040E041
:1023D00050E060E87FEBCE0101960E946B048CE038
:1023E000FE013196A4E6B5E001900D928A95E1F7E1
:1023F00017C064E675E086E003C064E675E087E038
:102400000E946A200DC08CE0E9EBF5E0ACE7B5E096
:10241000EBCF8CE0ECE7F5E0DF011D928A95E9F760
:1024200080918D0580934D05883009F498C0BE8D4C
:10243000B23009F094C090E08830910508F086C071
:10244000FC01EF5AFF4F0C94A03720E040E050E031
:1024500060E87FEB0AC040915B0550915C0560919C
:102460005D0570915E0520914E0589EB95E00E9417
:102470006B046CC0C0905B05D0905C05E0905D057E
:10248000F0905E050091B0051091B1052091B20564
:102490003091B30581E08F93E9A5EF93F8A5FF9301
:1024A00015C0C0905B05D0905C05E0905D05F09094
:1024B0005E050091B0051091B1052091B2053091F3
:1024C000B3051F9289A58F9398A59F938FA0A09085
:1024D0004E054BE955E069EB75E084E695E00E9416
:1024E000B9040F900F900F9031C040915B0550914F
:1024F0005C0560915D0570915E05E12C0AC040911C
:102500005B0550915C0560915D0570915E05EE2460
:10251000E39400E015C040915B0550915C0560912B
:102520005D0570915E05E12C0AC040915B055091FC
:102530005C0560915D0570915E05EE24E39401E019
:1025400020914E0589EB95E00E942A088CE0E9EB8A
:10255000F5E0A4E6B5E001900D928A95E1F780914F
:10256000940580935405882381F00E942B1681E006
:1025700080932F050E947E1480915405823019F4B7
:102580000E94C80802C01092540580E01DC081E07E
:102590001BC082E019C088E117C089E115C084E042
:1025A00013C08BE111C085E20FC084E10DC08EE144
:1025B0000BC08FE109C086E107C080E205C083E25D
:1025C00003C084E201C082E2AB960FB6F894DEBF8E
:1025D0000FBECDBFDF91CF911F910F91FF90EF9074
:1025E000DF90CF90BF90AF909F908F907F906F9033
:1025F0005F904F903F902F900895E0EBF0E0808146
:102600008F7780830895239A259A0C94FD12CF9298
:10261000DF92EF92FF926A017B01811106C0FF9069
:10262000EF90DF90CF900C94FD12813011F42D9833
:1026300001C02D9A83E88093B0008091B100887F1B
:1026400082608093B10020E030E0A901C701B601AB
:102650000E94473487FD11C020E030E04AE754E48F
:10266000C701B6010E944A36181654F4C12CD12C69
:102670008AE7E82E84E4F82E03C0C12CD12C760121
:102680002CE53FE842E85EE3C701B6010E948536CB
:1026900020E030E040E05FE30E946E330E9424358A
:1026A0000E94BB346093B300FF90EF90DF90CF9017
:1026B0000895CF93DF9300D000D01F92CDB7DEB73F
:1026C00090912E059230A9F04A835B836C837D83C1
:1026D00089830E942B164A815B816C817D8189816F
:1026E0000F900F900F900F900F90DF91CF910C945F
:1026F00007130F900F900F900F900F90DF91CF91D5
:102700000895439808953B9A0C948113823011F4F4
:10271000439A08950C948113CF93DF931F92CDB702
:10272000DEB790912E05923049F089830E942B16D6
:1027300089810F90DF91CF910C9486130F90DF91D8
:10274000CF9108959091080180910901891708F4AB
:102750008058891B0895E0ECF0E0808182608083DE
:102760001092C50080E18093C400E1ECF0E080812C
:10277000806180838081886080838081806880839D
:102780000895E091070191E09E0F903409F490E0E4
:1027900020910601921305C02091300524FFF8CF47
:1027A0000895F0E0EB53FA4F8083909307018091F6
:1027B000C10080628093C10008951F920F920FB6EE
:1027C0000F9211248F939F93EF93FF9380910601B3
:1027D000E82FF0E0EB53FA4F90819093C6008F5FA3
:1027E000803409F480E080930601909107018913F9
:1027F00005C08091C1008F7D8093C100FF91EF9152
:102800009F918F910F900FBE0F901F9018959091F0
:10281000080180910901891761F0E92FF0E0EB5F71
:10282000F94F80819F5F903809F490E09093080100
:1028300008958FEF08951F920F920FB60F921124F3
:102840002F933F934F935F936F937F938F939F93B8
:10285000AF93BF93EF93FF938091C6008F33A9F09E
:1028600050F4883109F1813211F59FB7F8948091C5
:102870003005886015C0803471F08E37C1F49FB781
:10288000F8948091300582600BC09FB7F8948091D6
:102890003005816005C09FB7F89480913005806253
:1028A000809330059FBF14C00E94C80811C0E091FA
:1028B000090191E09E0F903809F490E02091080101
:1028C000921731F0F0E0EB5FF94F808390930901AC
:1028D000FF91EF91BF91AF919F918F917F916F91F8
:1028E0005F914F913F912F910F900FBE0F901F90CE
:1028F000189580910901809308010895EF92FF9245
:102900000F931F93CF93DF93D1E008E080E2F82E7E
:1029100010E190E4E92EC0913105CC2389F1D093E8
:102920002E05C1FF02C081E00FC0C2FF02C082E0DD
:102930000BC0C3FF02C083E007C0C4FF02C084E035
:1029400003C0C5FF03C085E00E94342DC0FD08C050
:102950008FB7F89490913105109231058FBF10C058
:1029600081E00E945E2D9FB7F894809130058F7EA4
:10297000809330059FBF8091300584FFFCCFE8CF66
:10298000C0913005CC2309F4BCC0C4FF04C081E071
:1029900080932D05CEC0C0FF0AC00E948C309FB727
:1029A000F894809130058E7F809330059FBF8C2FE7
:1029B000887609F43CC080912E05882349F0982F31
:1029C0009C7769F1883021F40E944019D0932F053B
:1029D00080912E05811103C092E090932F05C6FFD0
:1029E00009C0883011F4E0922E0580912F0588608F
:1029F00080932F05C3FF05C080912E0585FF10939E
:102A00002E05C5FF0CC086E00E945E2D80912F052B
:102A100081FDC460846080932F05F0922E059FB7DE
:102A2000F894809130058779809330059FBFC1FF6E
:102A300048C08C2F8876E9F580912E05882331F0E7
:102A40008075B9F180912F0581FF33C080912F05EA
:102A500082FF1CC080915605882371F04091570574
:102A6000509158056091590570915A050E940713BD
:102A700080EA9FE00E946D2880915505882331F0FF
:102A80000E94861388EE93E00E946D280E944E24D7
:102A9000892B59F080912F0583FD07C000932E05E7
:102AA0000E9462190E943C1602C010922E051092DC
:102AB0002F059FB7F894809130058D7F8093300566
:102AC0009FBFC2FF1EC080912E05807371F0809160
:102AD0002F0582FF04C00E94FD120E948113809185
:102AE0002F05826080932F0504C010922F0510924D
:102AF0002E059FB7F894809130058B7F8093300529
:102B00009FBF80912E058C7711F00E9462198091F1
:102B10002E05803251F480912F0581FF06C00E945E
:102B2000C731811102C010932E0580912F058111AC
:102B3000F2CEDF91CF911F910F91FF90EF9008950A
:102B40009FB7F894E0E3F5E08081826080839FBFC7
:102B50000895CF93DF930E94882D80912E058130B8
:102B600021F482E00E945E2D2FC00E94C73188238D
:102B700041F0809130058062809330050E947E1480
:102B800002C010922E058AE091E00E94C9311CC05B
:102B90008D3079F0DD2399F1893221F4D13009F0BB
:102BA0004CC0D0E00E9407148F3F09F448C08A301F
:102BB00079F7EC2FF0E0E65FFE4F10820E947E1462
:102BC00080912D05882311F0C0E0EBCF80910A01A0
:102BD000811103C00E94E62CF7CF843229F48AE0E9
:102BE00091E00E94E831F6CF80912E05813011F4FA
:102BF00089E0F0CF8AE091E00E940B09EBCF8132AF
:102C000088F28F3279F28832B1F08B33B1F0CF3461
:102C100028F08BE00E94E62CC0E0C4CF2C2F30E0DF
:102C2000CF5F9FE9980FF901E65FFE4F9A3108F4F4
:102C300080528083B7CFD1E0B5CFD2E0B3CF0E942E
:102C4000A0150E947E1480912D05882309F4AACF37
:102C5000DF91CF9108950E94A0150E947E1480916B
:102C60002D05811108C00E944E24892BB1F7809157
:102C70002E05883091F308958091C20682FF02C02C
:102C8000289A01C0289880912E058C70A1F080911F
:102C90008A0180939E0180918B0180939D01809198
:102CA000B506880F8450819580939C0180916F00B8
:102CB000826080936F00089580916F008D7F809374
:102CC0006F0080918100887F8160809381001092E5
:102CD00089018091B8068F3F21F4909131059923A5
:102CE00049F090912E05943029F090E00E946D28D3
:102CF00081E001C080E09091C20692FF02C091E0A5
:102D00008927882311F0289A0895289808951F92FA
:102D10000F920FB60F9211242F933F934F935F930F
:102D20006F937F938F939F93AF93BF93CF93DF93D3
:102D3000EF93FF93809189018111EFC19BB1809145
:102D40009E01807E9F71892B8BB98BB1837E909180
:102D50009D01892B8BB980919C0186BD82E085BD48
:102D600081E08093890178948091B0019091B101C4
:102D7000892B09F0A4C080918E0190918D01981744
:102D800009F492C0E0918E0186E0E89FF0011124E1
:102D9000EE54FE4FF093B101E093B0018381948132
:102DA0009093890080938800808191819093AC01F9
:102DB0008093AB01A2818091AD018A1771F1A0933C
:102DC000AD0181E1A89FD0011124AA52BE4FB0935A
:102DD000AF01A093AE011D968D919D910D90BC9178
:102DE000A02DB695A7959795879580938F01909381
:102DF0009001A0939101B0939201809393019093DD
:102E00009401A0939501B0939601809397019093BC
:102E10009801A0939901B0939A01C091AE01D0910D
:102E2000AF0180918A019881892780939E01258135
:102E300089819A81AB81BC81022E04C0B695A79589
:102E4000979587950A94D2F780939F019093A0015C
:102E5000A093A101B093A2018D819E81AF81B8851D
:102E6000022E04C0B695A795979587950A94D2F738
:102E70008093A3019093A401A093A501B093A60110
:102E800089859A85AB85BC8504C0B695A79597952D
:102E900087952A95D2F78093A7019093A801A093D4
:102EA000A901B093AA010BC00E945C169FB7F894C9
:102EB000809130058460809330059FBF2EC10E94B1
:102EC000CD2C10929D0180919F019091A001A09125
:102ED000A101B091A20140918F01509190016091A8
:102EE000910170919201840F951FA61FB71F8093C7
:102EF0008F0190939001A0939101B0939201E09182
:102F0000AE01F091AF0145855685678570894817F8
:102F100059076A077B0768F524E020939D014585E2
:102F2000568567857089841B950BA60BB70B80931C
:102F30008F0190939001A0939101B0939201208111
:102F40008091320590913305A0913405B0913505FB
:102F500025FF04C00197A109B10903C00196A11D75
:102F6000B11D8093320590933305A0933405B0933F
:102F700035058091A3019091A401A091A501B09184
:102F8000A601409193015091940160919501709137
:102F90009601840F951FA61FB71F809393019093EE
:102FA0009401A0939501B093960145855685678558
:102FB0007089481759076A077B0778F520919D01AA
:102FC000286020939D014585568567857089841BFF
:102FD000950BA60BB70B8093930190939401A0934C
:102FE0009501B09396012081809136059091370527
:102FF000A0913805B091390526FF04C00197A109B9
:10300000B10903C00196A11DB11D809336059093AF
:103010003705A0933805B09339058091A7019091A9
:10302000A801A091A901B091AA01409197015091E6
:1030300098016091990170919A01840F951FA61FC4
:10304000B71F8093970190939801A0939901B09333
:103050009A014585568567857089481759076A071B
:103060007B0778F520919D01206120939D01458586
:10307000568567857089841B950BA60BB70B8093CB
:10308000970190939801A0939901B0939A012081A0
:1030900080913A0590913B05A0913C05B0913D058A
:1030A00027FF04C00197A109B10903C00196A11D22
:1030B000B11D80933A0590933B05A0933C05B093D6
:1030C0003D0580912E05843039F480913E05909124
:1030D0009D01892380939D018091AB019091AC016A
:1030E00001979093AC018093AB01892B69F4109206
:1030F000B1011092B00180918E018F5F80938E019B
:10310000863011F410928E0180918B0190919D0177
:10311000892780939D0110928901FF91EF91DF91A2
:10312000CF91BF91AF919F918F917F916F915F915F
:103130004F913F912F910F900FBE0F901F901895B8
:103140001F920F920FB60F9211248F939F939BB1F2
:1031500080918B018C71937E892B8BB915BC9F91CB
:103160008F910F900FBE0F901F901895FF920F93A5
:103170001F93CF93DF9310928B0110928A01C0E0CE
:10318000D0E00C2F1C2F2091B60630E08C2F0C2E97
:1031900002C0359527950A94E2F720FF07C0F0900A
:1031A0008B010E94F0228F2980938B012091B7061A
:1031B00030E002C0359527951A95E2F720FF08C048
:1031C00010918A01802F0E94FA22812B80938A011C
:1031D0002196C330D105A9F6DF91CF911F910F91B0
:1031E000FF9008950E945C168BE2EAE5F1E0DF01B2
:1031F0001D928A95E9F783E2EFE8F1E0DF011D9285
:103200008A95E9F7109288011092870110928E0139
:1032100010928D0181E080938C01109289010E94AF
:10322000B6188BB1837E90918B01892B8BB98BB1B2
:103230008F7190918A01892B8BB908958AB18C6125
:103240008AB9209A8AB1806E8AB9E1E8F0E080817B
:103250008F7E8083808188608083E0E8F0E08081D9
:103260008C7F808380818F708083EEE6F0E08081A8
:10327000887F808314BC15BC808181608083089521
:10328000CF93DF93C0918701D09188012097B9F047
:1032900081E080935B016091710170917201809176
:1032A0007301909174019B01AC010E948536698B7A
:1032B0007A8B8B8B9C8B1092880110928701DF9107
:1032C000CF9108952F923F924F925F926F927F928B
:1032D0008F929F92AF92BF92CF92DF92EF92FF9226
:1032E0000F931F93CF93DF93CDB7DEB7E5970FB65C
:1032F000F894DEBF0FBECDBF80912E05807709F414
:103300000AC220E030E0A901609171017091720160
:1033100080917301909174010E9447348111FBC127
:1033200003C68091870190918801892B09F4FAC125
:1033300080918D01F6E0F89FF0011124EE54FE4FCC
:10334000FE83ED8380915A01828320918701309121
:1033500088013E872D87D9019596BC91BCA7F901BC
:10336000F6A1FDA7D9019796BC91BEA7F901F0A5DA
:10337000FFA7209164013091650140916601509151
:1033800067016CA57DA58B2F9F2F0E946D3368A7C9
:1033900079A78AA79BA720E030E0A9010E944734C3
:1033A00087FF04C018A619A61AA61BA620917D01A6
:1033B000288F30917E01398F40917F014A8F509143
:1033C00080015B8F809175018C8F909176019D8F2C
:1033D000A0917701AE8FB0917801BF8FE09181010C
:1033E000E8A3F0918201F9A3209183012AA33091EF
:1033F00084013BA340916D014CA350916E015DA3EC
:1034000080916F018EA3909170019FA3209179010B
:1034100030917A0140917B0150917C0128AB39AB0E
:103420004AAB5BAB3091710139834091720149879E
:10343000209073013090740150916C015F878CA5CE
:103440008C8B9DA59D8BAEA5AE8BBFA5BF8B3EE3A0
:10345000C32E33ECD32E3EE2E32E39E3F32E188A4B
:10346000198A1A8A1B8A26013701EF85E111B4C334
:10347000AD85BE8591962D913D914D915C9194972E
:10348000C701B6010E9485364B015C0120E030E0A7
:1034900040E05FE30E9485369B01AC01698179853C
:1034A000C1010E946E339B01AC01C701B6010E94AD
:1034B00085369B01AC016C897D898E899F890E942C
:1034C0006D338B018DAB9CAB288D398D4A8D5B8D17
:1034D0000E94473487FF86C3288D398D4A8D5B8DC6
:1034E0006CA57DA58EA59FA50E946D339B01AC01A7
:1034F0000E946E336B017C012C8D3D8D4E8D5F8D56
:1035000069817985C1010E946E339B01AC01C701BD
:10351000B6010E944E346B017C0128A139A14AA159
:103520005BA1688D798D8A8D9B8D0E94473488239D
:1035300009F455C3B1E0BF87FC8DF9832D8D298730
:103540002E8C3F8C088D198D3A8D3DAB4B8D4CAB3D
:10355000A7019601688979898A899B890E946E33BF
:10356000688B798B8A8B9B8BA30192010E944734D5
:1035700087FDF2C328A539A54AA55BA5B8018DA989
:103580009CA90E944A3618160CF4DCC389819985DF
:10359000D1018093710190937201A0937301B09354
:1035A0007401FF85F0936C014090600150906101BF
:1035B000609062017090630198014DA95CA9C301FC
:1035C000B2010E94853669837A838B839C830E9433
:1035D00034346B017C0160915C0170915D018091DC
:1035E0005E0190915F010E9434344B015C01A701A0
:1035F00096010E946D330E94BB3469877A878B875E
:103600009C87E985FA85AD81BE81ED93FC93309767
:1036100009F4CDC3209168013091690140916A019C
:1036200050916B01688979898A899B890E946E33E0
:103630002B013C0129813A814B815C81C501B40198
:103640000E946D339B01AC01C301B2010E944E3454
:103650004B015C0129813A814B815C81C701B60134
:103660000E946D33A50194010E9485366093680124
:103670007093690180936A0190936B0120EC31EEA5
:1036800044E65EE4C501B4010E9485360E943434EC
:103690000E94BB34603DB7E07B078105910508F0CF
:1036A000ACC3ED81FE811582AD81BE8114967C9301
:1036B0006E93139780918C0180938D018F5F86307C
:1036C00009F4D4C380938C0120916D0130916E0177
:1036D00040916F0150917001B8018DA99CA90E9481
:1036E0004A3618160CF0C5C3E0918701F0918801A5
:1036F000C801ADA9BCA985A396A3A7A3B0A789813A
:103700009A81AB81BC8180935C0190935D01A09311
:103710005E01B0935F0190918E0180918C019813AE
:1037200000CE02C40E944E241C0190938801809315
:103730008701009709F4F8C380915B0110912E0571
:10374000882319F010925B01BEC080915A018F5FEF
:10375000853019F080935A0102C010925A01E0910D
:103760005A0121E12E9FF0011124EA52FE4FF093FD
:103770008601E0938501D1018C91808311964D9152
:103780005D916D917C91149703E0440F551F661F66
:10379000771F0A95D1F7418352836383748315960B
:1037A0004D915D916D917C91189783E0440F551F69
:1037B000661F771F8A95D1F7458356836783708785
:1037C00019964D915D916D917C911C9793E0440FFA
:1037D000551F661F771F9A95D1F7418752876387D8
:1037E00074871D966D917D918D919C9150976B0181
:1037F0007C0123E0CC0CDD1CEE1CFF1C2A95D1F7CC
:10380000C586D686E786F08A0E94E73460935C011D
:1038100070935D0180935E0190935F01F10125A19A
:1038200036A147A150A50E944E349B01AC01609384
:10383000600170936101809362019093630160E085
:1038400070E080EA9FE30E944E34609364017093BD
:103850006501809366019093670110926801109250
:10386000690110926A0110926B01812F8077E1F05B
:103870006091790170917A0180917B0190917C0136
:10388000609371017093720180937301909374013E
:103890009B01AC010E948536D10151966D937D93B9
:1038A0008D939C9354970FC0F1016189728983892C
:1038B00094890E9412376093710170937201809312
:1038C00073019093740110926D0110926E01109229
:1038D0006F0110927001D10191968D909D90AD90E5
:1038E000BC909497A501940160E070E080E09FE3B4
:1038F0000E944E342B013C011077F101C5A0D6A0E7
:10390000E7A0F0A4112309F44DC0F2E0F0936C019C
:10391000D10151962D913D914D915C9154972D83FC
:103920003E834F8358870E9485369B01AC01C701B7
:10393000B6010E946D332B013C0120E030E0A9016B
:103940000E94473487FF1DC0A5019401C501B40141
:103950000E946E33A70196010E9485369B01AC013F
:103960006D817E818F8198850E946D330E94123710
:103970006093790170937A0180937B0190937C012D
:10398000D7CC40926D0150926E0160926F0170929F
:1039900070011092790110927A0110927B011092BD
:1039A0007C01C6CC10926C01C0927D01D0927E0148
:1039B000E0927F01F09280010E945E244B015C0145
:1039C0006093790170937A0180937B0190937C01DD
:1039D0009B01AC010E94853669837A838B839C832B
:1039E0000091870110918801D80195962D913D9104
:1039F0004D915C91989729873A874B875C875196C0
:103A00002D913D914D915C9154972D833E834F8331
:103A100058879B01AC016D817E818F8198850E94C2
:103A20006D339B01AC01C301B2010E9485369B013D
:103A3000AC0169857A858B859C850E946E3320E078
:103A400030E040E05FE30E9485366B017C0120E0BE
:103A500030E0A9010E944A3618160CF0ACC0298546
:103A60003A854B855C85C701B6010E94473487FFC4
:103A70008EC0F801858C968CA78CB0A029813A81E4
:103A80004B815C81C501B4010E946D339B01AC0187
:103A9000C301B2010E948536609381017093820157
:103AA0008093830190938401A70196010E9447347B
:103AB00087FF3DC0C501B4010E94123760937501B4
:103AC000709376018093770190937801A50194011A
:103AD0006D817E818F8198850E944734811104C059
:103AE000F1E0F0936C0124CC2D813E814F8158850B
:103AF000C501B4010E946D339B01AC01C301B20149
:103B00000E9485369B01AC0160917D0170917E0120
:103B100080917F01909180010E946D3360937D01BF
:103B200070937E0180937F019093800101CCC092BD
:103B30007D01D0927E01E0927F01F0928001C092DF
:103B40008101D0928201E0928301F0928401D80138
:103B500091966D917D918D919C9194979B01AC0173
:103B60000E946E33A70196010E94853629813A8111
:103B70004B815C810E946E330E9412376093750105
:103B8000709376018093770190937801D1CBB2E066
:103B9000B0936C018091710190917201A0917301B9
:103BA000B09174018093750190937601A093770191
:103BB000B0937801BDCB10927D0110927E011092DE
:103BC0007F01109280018092750190927601A092FF
:103BD0007701B0927801ACCBE13061F041C0E2E016
:103BE000EF87AACCA501940169817985C1010E9462
:103BF0006E337CC0A70196016C8D7D8D8E8D9F8D5F
:103C00000E9485369B01AC016C897D898E899F89D4
:103C10000E946D338B018DAB9CAB28A139A14AA1C9
:103C20005BA10E94473487FF93CC28A139A14AA108
:103C30005BA16C897D898E899F890E946D332C8D53
:103C40003D8D4E8D5F8D0E944E346B017C0108A12D
:103C500019A15AA15DAB8BA18CAB92E09F8778CC68
:103C6000AD85BE8591962D913D914D915C91949736
:103C7000C701B6010E9485364B015C019B01AC0176
:103C800069817985C1010E944A3618169CF520E0A9
:103C900030E040E05FE3C501B4010E9485369B013E
:103CA000AC0169817985C1010E946D339B01AC0132
:103CB000C701B6010E9485369B01AC016C897D89E4
:103CC0008E899F890E946D338B018DAB9CAB2CA19B
:103CD0003DA14EA15FA10E944A3618165CF4A501D1
:103CE000940169817985C1010E946D336983798767
:103CF0001C012ECC2CA13DA14EA15FA16C897D8918
:103D00008E899F890E946D339B01AC010E946E33A6
:103D10006B017C0128A939A94AA95BA96981798528
:103D2000C1010E946E339B01AC01C701B6010E9424
:103D30004E346B017C010CA11DA1BEA1BDABEFA156
:103D4000ECAB06CC2EE333EC4EE259E3C301B201F7
:103D50000E946E332B013C01288939894A895B898D
:103D6000C301B2010E946D336B017C012CA13DA106
:103D70004EA15FA1B8018DA99CA90E944A361816D0
:103D80007CF089819985D1018093710190937201B2
:103D9000A0937301B09374013F8530936C0104CC00
:103DA0000C8B1D8B4DA94E8B5CA95F8B5ECB8091DC
:103DB0002E05807709F42ECC1092710110927201B9
:103DC00010927301109274011092680110926901AF
:103DD00010926A0110926B01C0925C01D0925D0159
:103DE000E0925E01F0925F01A3019201C701B6016A
:103DF0000E944E34AD85BE8570C0603AFFE07F07FB
:103E00008105910510F4E1E009C06034FFE17F070E
:103E10008105910510F4E2E001C0E3E0AD81BE81CF
:103E20001596EC93AD81BE8115962C911597022EB7
:103E300004C096958795779567950A94D2F7E9859A
:103E4000FA8502C0EE0FFF1F2A95E2F7ED93FC936F
:103E500061157105F1E08F07910508F425CC2FEF6E
:103E60003FEFED81FE813483238324CC10928C01BB
:103E70002BCC20E030E0A901B8018DA99CA90E94BB
:103E80004A3618160CF049C0109271011092720156
:103E900010927301109274011092680110926901DE
:103EA00010926A0110926B01C0925C01D0925D0188
:103EB000E0925E01F0925F0100918701109188010C
:103EC0002091600130916101409162015091630144
:103ED000C701B6010E944E34D80195966D937D932B
:103EE0008D939C939897E5960FB6F894DEBF0FBE1E
:103EF000CDBFDF91CF911F910F91FF90EF90DF9099
:103F0000CF90BF90AF909F908F907F906F905F9079
:103F10004F903F902F900C94B327109288011092ED
:103F200087010E943A24F7CBE5960FB6F894DEBFDE
:103F30000FBECDBFDF91CF911F910F91FF90EF90FA
:103F4000DF90CF90BF90AF909F908F907F906F90B9
:103F50005F904F903F902F900895F999FECF92BDBA
:103F600081BD81E08FBB80B50895F894F999FECFAB
:103F700092BD81BD81E08FBB40B54627842F992734
:103F800087FD9095262F30E082239323892B39F0EB
:103F90006F3F19F060BD84E006C084E104C0442393
:103FA00021F060BD84E28FBBF99A789408959F92C6
:103FB000AF92BF92CF92DF92EF92FF920F931F9337
:103FC000CF93DF938C017A016B01C40ED51EEB01F8
:103FD000912C5C01A61AB70ACE018A0D9B1DCC1547
:103FE000DD0591F0911009C0692D772767FD709567
:103FF000272F221F2227221F01C021E06991922E24
:10400000960E0E94B51FE8CF692DC8018E0D9F1D29
:10401000DF91CF911F910F91FF90EF90DF90CF90A4
:10402000BF90AF909F900C94B51F9F92AF92BF929C
:10403000CF92DF92EF92FF920F931F93CF93DF9374
:104040008B017A016C01C40ED51EEC01912C5B0131
:10405000A81AB90AC5018C0F9D1FCC15DD0591F07A
:104060000E94AD1F911009C0292D332727FD3095DF
:10407000232F221F2227221F01C021E0922E980EFB
:104080008993E8CFC8018E0D9F1D0E94AD1F21E0CE
:1040900030E0981611F020E030E0C901DF91CF91B7
:1040A0001F910F91FF90EF90DF90CF90BF90AF9056
:1040B0009F90089521E5829FC001112440E550E0C2
:1040C0009D5F0C94D71F40E550E0BC018EEA93E061
:1040D0000C94D71F2DE0829FC00111244CE050E0CA
:1040E0009E5F0C94D71F69E080E090E00E94B51FAE
:1040F0004DE450E065E876E081E090E00C94D71F55
:104100008AE08093B50689E18093B8061092B606DE
:104110001092B70683E08093B9068AE097EDA3EA90
:10412000BCE38093BA069093BB06A093BC06B09301
:10413000BD068FE692E1A3E0BBE38093BE069093B9
:10414000BF06A093C006B093C1061092C30680E0DC
:1041500090E0A8ECB1E48093C4069093C506A093C8
:10416000C606B093C70680E090E0AAEFB3E4809360
:10417000C8069093C906A093CA06B093CB062AEF4F
:1041800030E03093CD062093CC0640E050E060E86C
:104190007FE34093CE065093CF066093D006709392
:1041A000D1061092C20640E050E06AE773E4409303
:1041B0008506509386066093870670938806409321
:1041C000890650938A0660938B0670938C06409301
:1041D0008D0650938E0660938F06709390068093A1
:1041E000910690939206A0939306B09394068093C1
:1041F000950690939606A0939706B09398068093A1
:10420000990690939A06A0939B06B0939C0680E033
:1042100090EAACE0B7E480939D0690939E06A0934D
:104220009F06B093A0068093A1069093A206A09348
:10423000A306B093A4068093A5069093A606A09328
:10424000A706B093A80680E090E0A8E4B3EC8093C2
:10425000A9069093AA06A093AB06B093AC068093F0
:10426000AD069093AE06A093AF06B093B0068093D0
:10427000B1069093B206A093B306B093B4060C9423
:10428000732060E080E093E00E94B51F60E081E56C
:1042900093E00C94B51F60E08EEA93E00C94B51F98
:1042A0001F93CF93DF93182FEB0181E5189FB00187
:1042B00011247D5F40E550E0CE010E941520892B3E
:1042C00039F41882BE01812F0E945A2080E001C07B
:1042D00081E0DF91CF911F910895CF93DF93EC019F
:1042E00040E550E06EEA73E00E941520892B31F41E
:1042F0001882CE010E94632080E001C081E0DF913E
:10430000CF9108951F93CF93DF93182FEB018DE08A
:10431000189FB00111247E5F4CE050E0CE010E9456
:104320001520892B59F48CE0FE0111928A95E9F74A
:10433000BE01812F0E946A2080E001C081E0DF91F0
:10434000CF911F91089580E090E00E94AD1F8930C9
:1043500059F44DE450E061E070E085E896E00E9499
:10436000152021E0892B09F420E0822F0895CF92B7
:10437000DF92EF92FF92CF93DF93C82F6A017B0108
:1043800020E030E0A901C701B6010E94473487FD53
:10439000E6C0C43608F445C02CE92C0F80E0233079
:1043A000B8F530E0823079F0F901EE0FFF1FEE0F23
:1043B000FF1F833011F1813019F0EB57F94F23C003
:1043C000EF56F94F20C0E901CC0FDD1FCC0FDD1FE8
:1043D000C356D94F20E030E040E752E4C701B601B0
:1043E0000E94853620E030E040E752E40E948536A6
:1043F000688379838A839B83AEC0E755F94FF7FAC8
:10440000F094F7F8F094C082D182E282F382A3C0E4
:104410008F5F2A3008F4A5C0843009F4A2C02A5066
:10442000BECFC701B6010E9453370E94BB348C2F08
:1044300090E08C31910508F094C0FC01E75AFF4FE1
:104440000C94A037633008F48EC06093B50683C027
:104450006093B80680C06093B60602C06093B7064A
:104460000E94B61878C08091C206662311F084605D
:1044700007C08B7F05C08091C206662321F080644F
:104480008093C20668C08F7BFBCF8091C2066623F3
:1044900011F08068F5CF8F77F3CF6093B9065BC0DA
:1044A000C092BA06D092BB06E092BC06F092BD065E
:1044B00052C0C092BE06D092BF06E092C006F092F3
:1044C000C10649C08091C206662311F08160D8CF31
:1044D0008E7FD6CF8091C206662321F084FF45C02F
:1044E0008062CECF8F7DCCCF8091C206662311F043
:1044F000886001C0877F8093C2060E94A9282BC0D4
:104500008091C206662311F08061BACF8F7CB8CF4C
:104510006093C30620C0C092C406D092C506E09244
:10452000C606F092C70617C0C092C806D092C90648
:10453000E092CA06F092CB060EC070E07093CD06F2
:104540006093CC0608C0C092CE06D092CF06E0920F
:10455000D006F092D1060E94732080E007C084E06C
:1045600005C083E003C086E001C08AE0DF91CF91FF
:10457000FF90EF90DF90CF9008951F93CF93DF933C
:10458000CDB7DEB72C970FB6F894DEBF0FBECDBF08
:104590000E94A32181110BC087E00E94E62C0E949B
:1045A00080200E9441210E944B210E94902D10E00A
:1045B000BE016F5F7F4F812F0E948221811103C056
:1045C00087E00E94E62C1F5F183091F72C960FB6FB
:1045D000F894DEBF0FBECDBFDF91CF911F9108953C
:1045E000882321F0813021F488E0089584E0089543
:1045F00080E10895882321F0813021F480E408953A
:1046000080E2089580E80895882321F0813021F424
:1046100084E0089582E0089580E108954F925F92CA
:104620006F927F928F929F92AF92BF92CF92DF92C2
:10463000EF92FF920F931F93CF93DF931091490254
:10464000111101C012E1115000914702101709F435
:10465000EFC089E2189FE0011124C55BDD4F8D8812
:104660009E88AF88B88C69A17AA18BA19CA19B017F
:10467000AC010E946E332DA13EA14FA158A50E940E
:1046800085366B017C019B01AC01B401C5010E9420
:10469000473487FF02C064017501A601B701498B49
:1046A0005A8B6B8B7C8B111101C012E177247A94A9
:1046B000710E701619F029E2622E27C080914A020D
:1046C000081351C00E9440194EC0679C80011124FC
:1046D000055B1D4F711002C092E1792E7A94809192
:1046E0004A02781202C00E944019F801C588D68893
:1046F000E788F08CA7019601618972898389948982
:104700000E944734811106C0E80180914702781267
:10471000DCCF29C0F80161A172A183A194A19B0102
:10472000AC010E946E33F80125A136A147A150A526
:104730000E94853629893A894B895C890E946E33AB
:104740004B015C01A70196010E944734F80187FFE5
:1047500005C0818A928AA38AB48AD6CFC18AD28AB6
:10476000E38AF48AD1CF60904702F9E26F9E80011C
:104770001124055B1D4F77247394760C82E1781227
:1047800001C0712C5090490289E2482E751409F439
:104790004DC0479CE0011124C55BDD4FF8018188C5
:1047A0009288A388B488C988DA88EB88FC88A70136
:1047B0009601C501B4010E94473487FF23C0F80168
:1047C00061A172A183A194A19B01AC010E946E33EF
:1047D000F80125A136A147A150A50E9485369B016D
:1047E000AC01C501B4010E946E334B015C01A7010D
:1047F00096010E94473487FF05C0898A9A8AAB8A4E
:10480000BC8A672C2D893E894F89588D69897A89A0
:104810008B899C890E944734811101C0672C739455
:10482000F2E17F1201C0712C8E01B0CF609247027D
:10483000DF91CF911F910F91FF90EF90DF90CF907C
:10484000BF90AF909F908F907F906F905F904F90B0
:1048500008958CE1EBE2F2E0DF011D928A95E9F721
:1048600010924A021092490281E08093480210920D
:104870004702089590914A0280914902891769F090
:1048800081E0890F823109F480E020914702921380
:1048900002C08093470280934A02089580914A02A1
:1048A00090914902981739F029E2829FC0011124A2
:1048B000855B9D4F089580E090E00895E0914A0265
:1048C000EF5FE23109F4E0E080914902E81761F01E
:1048D00089E2E89FF0011124E55BFD4F618972894F
:1048E000838994890C94123760E070E0CB010895BD
:1048F00081E020914A0290914802291380E00895B6
:104900002F923F924F925F926F927F928F929F92DF
:10491000AF92BF92CF92DF92EF92FF920F931F93CD
:10492000CF93DF93CDB7DEB7AD970FB6F894DEBF68
:104930000FBECDBF142F052F6B8F7C8F822E209141
:10494000490239E2239F10011124F101E55BFD4F7B
:104950001F01158616861786108A15A216A217A2A1
:1049600010A6108249E956E766E97EE741A352A303
:1049700063A374A35C0145E8E42E46E0F42E9E0197
:10498000235F3F4F38A32F8F8BE292E09E8F8D8F56
:104990006F01FE013196FAA3E9A3912CF501619113
:1049A0007191819191915F01F70120813181428163
:1049B00053810E9485360E945536EF8DF8A1619390
:1049C000719381939193F8A3EF8FED8DFE8D4190BC
:1049D000519061907190FE8FED8F64197509860971
:1049E00097092B013C0197FF07C04424552432014D
:1049F000461A570A680A790AF6014182528263828E
:104A00007482F10125853685478550894216530603
:104A10006406750610F429013A01F10145865686AF
:104A20006786708A0E94E934F701208131814281D2
:104A300053810E944E342B013C01E9A1FAA16193FC
:104A4000719381939193FAA3E9A320E030E0A90147
:104A50000E94473487FF0AC0F1019081892D9DA7EC
:104A60000E94FA229DA5892BF1018083A301920166
:104A7000C301B2010E948536F10125A136A147A1EB
:104A800050A50E946E33F10165A376A387A390A77A
:104A90009394F4E0EF0EF11C24E0C20ED11C33E03D
:104AA00093127CCF0E9412376B017C01F10165A348
:104AB00076A387A390A785859685A785B089892B3E
:104AC0008A2B8B2B09F4FCC120E030E0A901612F77
:104AD000702F8B8D9C8D0E94473487FD21C08820CC
:104AE00061F0A7019601612F702F8B8D9C8D0E9424
:104AF0008536162F072F8B8F9C8F20E030E040E803
:104B00005FE3612F702F8B8D9C8D0E94473487FF50
:104B10000DC010E000E030E83B8F8FE38C8F06C0C3
:104B200019E906E7F6E9FB8F2EE72C8FA70196011E
:104B300060E070E080E89FE30E944E3469A77AA7A6
:104B40008BA79CA7E7E3F2E0FAA3E9A321E936E00B
:104B500038A32F8FCE010D969A8F898FFE01319643
:104B6000FE8FED8FC12CD12C7601ED8DFE8D8080D6
:104B70009180A280B38020E030E0A901C501B4019A
:104B80000E944734882309F47FC029A53AA54BA584
:104B90005CA5C501B4010E9485364B015C01ED8D19
:104BA000FE8D60837183828393839B01AC0160E0FF
:104BB00070E080E89FE30E944E342B013C01E894B2
:104BC00077F8EF8DF8A12081318142815381C301B3
:104BD000B2010E9485366BA37CA38DA39EA39B018B
:104BE000AC01612F702F8B8D9C8D0E94473487FF05
:104BF00006C01BA30CA3FB8DFDA32C8D2EA3F101DE
:104C0000F1A1FB8FF101F2A1FC8FF101F3A1FFA350
:104C1000F101F4A1F8A7EF8DF8A12485358546852B
:104C20005785C301B2010E9485363B018C019B016F
:104C3000AC016B8D7C8D8FA198A50E94473487FFB6
:104C400004C06B8C7C8C0FA118A5C301D801F101A5
:104C500081A392A3A3A3B4A3E9A1FAA120813181E6
:104C600042815381C501B4010E9485369B01AC018C
:104C7000C701B6010E946D336B017C011BA10CA121
:104C8000FDA1FB8F2EA12C8F8D8D9E8D04969E8F66
:104C90008D8FE9A1FAA13496FAA3E9A32F8D38A14B
:104CA0002C5F3F4F38A32F8FE98DFA8D8E179F070A
:104CB00009F05BCF9091490280914A02981306C097
:104CC000F101118A128A138A148A0BC024EA30E790
:104CD0004DE75FE3C701B6010E944A36181634F467
:104CE000F101118E128E138E148E5BC024EA30E710
:104CF0004DE75FEBC701B6010E944A36181644F033
:104D000034EAC32E30E7D32E3DE7E32E3FEBF32EFC
:104D1000A701960160E070E080E89FE30E946D3398
:104D200020E030E040E05FE30E9485360E941237C9
:104D30006B017C012091BA063091BB064091BC0604
:104D40005091BD06F10161A172A183A194A10E94BD
:104D50008536A70196010E9485364B015C01A701AB
:104D6000960160E070E080E89FE30E946D339B0154
:104D7000AC01C501B4010E944E346B017C0120E0FE
:104D800030E0A9010E94473487FF04C0C12CD12C18
:104D9000E12CF12CA601B701F101418F528F638FF5
:104DA000748F212F302F4B8D5C8D612F702F8B8D49
:104DB0009C8D0E948536162F072FF82EE92E862F00
:104DC000902FAF2DBE2DF101858F968FA78FB0A3A9
:104DD000A18CB28CC38CD48C60904302709044023E
:104DE00080904502909046029301A401612F702F9C
:104DF0008F2D9E2D0E94473487FD0BC09301A40187
:104E0000B501C6010E94473487FD11C053016401FA
:104E10000EC0212F302F4F2D5E2DB501C6010E94EF
:104E2000473487FD04C0A12EB02ECF2CDE2CC50147
:104E3000D601F101858B968BA78BB08F8CE0FE019C
:104E40003196A7E3B2E001900D928A95E1F7812FA8
:104E5000902FAF2DBE2D8093430290934402A093D8
:104E60004502B09346028CE0FE013D96ABE2B2E013
:104E700001900D928A95E1F7809148028093490252
:104E80008F5F823109F480E080934802AD960FB6BF
:104E9000F894DEBF0FBECDBFDF91CF911F910F9170
:104EA000FF90EF90DF90CF90BF90AF909F908F904A
:104EB0007F906F905F904F903F902F900C940E23B7
:104EC000AD960FB6F894DEBF0FBECDBFDF91CF9188
:104ED0001F910F91FF90EF90DF90CF90BF90AF9018
:104EE0009F908F907F906F905F904F903F902F900A
:104EF00008958091320590913305A0913405B091C9
:104F0000350580932B0290932C02A0932D02B09331
:104F10002E028091360590913705A0913805B09109
:104F2000390580932F0290933002A0933102B09301
:104F3000320280913A0590913B05A0913C05B091D9
:104F40003D058093330290933402A0933502B093D1
:104F5000360208958091490290914A02891708F417
:104F60008E5E891B08950E94401980914A028093A9
:104F700047020C940E236F927F928F929F92AF9272
:104F8000BF92CF92DF92EF92FF920F931F93CF9336
:104F9000DF937C018B016A01FB018081F701E80F3F
:104FA000F11D2081EF012D3229F422962181662402
:104FB000639407C02B3211F0219602C02296218102
:104FC000612CA12CB12C712C60E070E0CB01FE01B2
:104FD00030ED932E920E29E02915C8F0B39428E005
:104FE0002B1588F0A1107A94A5E0B0E09B01AC01EC
:104FF0000E94A637660F771F881F991F690D711DC4
:10500000811D911D0BC0A11009C0739407C02EEF24
:10501000921207C0A11005C0AA24A3942196208152
:10502000D6CFBB2009F449C00E94E7344B015C0194
:1050300020E030E0A9010E944734882361F18FEF1E
:1050400078166CF42AE037ED43E25CE3C501B40165
:105050000E9485364B015C0173947394F0CF7812F3
:105060000BC02DEC3CEC4CEC5DE3C501B4010E949F
:1050700085364B015C010FC0772069F020E030E0FD
:1050800040E251E4C501B4010E9485364B015C0148
:105090007A9417149CF3662021F0B7FAB094B7F80D
:1050A000B094F60180829182A282B382CE19DF0988
:1050B000C150F801C08381E001C080E0DF91CF9151
:1050C0001F910F91FF90EF90DF90CF90BF90AF9026
:1050D0009F908F907F906F900895009741F0EFE937
:1050E000FFE03197F1F700C000000197F6CF089577
:1050F0008F929F92AF92BF92CF92DF92EF92FF92E8
:1051000069017A019B01AC010E9485364B015C016B
:10511000A7019601C701B6010E9485369B01AC012B
:10512000C501B4010E946E33FF90EF90DF90CF90E5
:10513000BF90AF909F908F900C941237EBE6F0E009
:105140008081897E8083E8E6F0E080818E7F8083A5
:10515000089584B1897E84B985B1866185B98091CD
:10516000C20683FF0BC080916B00866180936B0049
:105170008091680081608093680008950C949E2857
:105180001F920F920FB60F9211242F933F934F93BC
:105190005F936F937F938F939F93AF93BF93EF939F
:1051A000FF9380912E05813071F08091310581113E
:1051B0000AC00E94C8089FB7F894809131058360A7
:1051C000809331059FBFFF91EF91BF91AF919F9168
:1051D0008F917F916F915F914F913F912F910F90A0
:1051E0000FBE0F901F9018952F923F924F925F9293
:1051F0006F927F928F929F92AF92BF92CF92DF92E7
:10520000EF92FF920F931F93CF93DF93CDB7DEB74B
:105210006B970FB6F894DEBF0FBECDBF90912D05F2
:105220009111DDC14090C8065090C9066090CA0631
:105230007090CB0629EAE22E26E0F22E9E01235F33
:105240003F4F6901FE0170965F0100E010E0812C84
:10525000912C1D8A1E8A282E312C802F0E94042317
:10526000F50181935F01802F0E94F022F601819366
:105270006F01C101002E02C0959587950A94E2F74F
:1052800080FF1EC020E030E040EC5FEBF701608162
:105290007181828193810E9485366F8B788F8A8F8E
:1052A0009B8F9B01AC01B4018D899E890E944A3677
:1052B000181634F08F88988CFA8DFD8B2B8D2E8BE1
:1052C0000F5F1F4F34E0E30EF11C0330110529F688
:1052D0000E9429240E94792796E0B92ECC24C394F9
:1052E000CE0140969C8B8B8B8091C20686FD02C0BE
:1052F000CF8A03C091E09C259F8B62E375E0CE01CD
:1053000001960E9453338091C306E82FF0E0F98F95
:10531000E88F8E010F5F1F4FE12CF12CA12CD12CB7
:10532000C1010E2C02C0959587950A94E2F780FF83
:105330002EC0A394888D998D0E2C02C095958795CB
:105340000A94E2F794014D895E89F80180FF07C055
:105350006081718182819381CC2039F009C06081A4
:10536000718182819381CC2019F00E946E3302C03A
:105370000E946D33F8016083718382839383EDE033
:10538000F0E0EC0FFD1FEE0DFF1D8081D82AFFEF2E
:10539000EF1AFF0A0C5F1F4F23E0E216F10409F039
:1053A000BFCF6A2D70E080E090E00E94E7340E9459
:1053B00012379B01AC01D0923E05C301B2010E949D
:1053C0008536AB01BC0120E0CE0101960E9480240D
:1053D0000E9462190E943C1683B13F89332311F069
:1053E00096E18927DE015096FE013D962191922F8C
:1053F0009D2129F09C91982311F02095D22211969D
:105400002B893C89E217F30789F7D0923E050E9469
:10541000621980913005847349F08091300584725F
:1054200011F00E94C8080E947E14D9C08D2D8C7185
:1054300099F60E94F2180E9429240E9479278091EF
:10544000CC069091CD060E946D284090C4065090E5
:10545000C5066090C6067090C70631E0C326BA94B0
:1054600009F042CFC090C306D12CE12CF12C00E012
:1054700010E0C101002E02C0959587950A94E2F7CD
:1054800080FF23C0C601002E02C0959587950A941F
:10549000E2F780FF10C0F701EB57F94F208131810F
:1054A0004281538164A175A186A197A10E9485368E
:1054B0000E94553603C060E070E0CB01F701E35D68
:1054C000FA4F65837683878390870F5F1F4F84E051
:1054D000E80EF11C0330110561F60E94792720E0E7
:1054E00030E0A9016091CE067091CF068091D00680
:1054F0009091D1060E944A3618160CF06DC089EAC8
:10550000C82E86E0D82EFE0131967F0100E010E023
:10551000C101002E02C0959587950A94E2F780FF9D
:105520002AC08091C30690E0002E02C09595879511
:105530000A94E2F780FF10C0F60120813181428198
:1055400053816091CE067091CF068091D0069091E4
:10555000D1060E946E3314C08091CE069091CF0682
:10556000A091D006B091D106B058F7018083918305
:10557000A283B3830AC0602F82E395E00E9439338F
:10558000F70160837183828393830F5F1F4FF4E081
:10559000EF0EF11C24E0C20ED11C0330110509F0FE
:1055A000B7CF4091C8065091C9066091CA06709164
:1055B000CB0620E0CE0101960E94802410922E0599
:1055C0009FB7F894809130058260809330059FBF2B
:1055D0000E947E140E942B1684E080932E056B9609
:1055E0000FB6F894DEBF0FBECDBFDF91CF911F91F4
:1055F0000F91FF90EF90DF90CF90BF90AF909F9072
:105600008F907F906F905F904F903F902F90089574
:10561000CF92DF92EF92FF920F931F93CF93DF937E
:105620008C01C9EAD6E0F801C190D190E190F190E7
:105630008F0120E030E0A901C701B6010E944A367F
:10564000181654F02991399149915991C701B60121
:105650000E94473487FF2BC080912E058830A1F02F
:105660000E94C8089FB7F8948091310585608093A7
:1056700031059FBFDF91CF911F910F91FF90EF9068
:10568000DF90CF900C947E149FB7F89480913005F2
:105690008860809330059FBF0E947E1480912D0505
:1056A00081110AC080912E058111F6CFD9CFF6E085
:1056B000C53BDF0709F0B7CFDF91CF911F910F9165
:1056C000FF90EF90DF90CF900895CF93DF93EC01A0
:1056D0008991882319F00E94C113FACFDF91CF91ED
:1056E0000895CF93DF93FC018491EF0121968823E5
:1056F00021F00E94C113FE01F7CFDF91CF910895F1
:10570000EF92FF920F931F93CF93DF93CDB7DEB746
:1057100028970FB6F894DEBF0FBECDBFFE013196BD
:105720007F019E01275F3F4F982F9170919386953F
:10573000E217F307C9F78F01F80182918F01805DAD
:105740000E94C1130E151F05B9F728960FB6F894DD
:10575000DEBF0FBECDBFDF91CF911F910F91FF90A4
:10576000EF9008951F93CF93DF9300D01F92CDB792
:10577000DEB7811109C080E30F900F900F90DF9189
:10578000CF911F910C94C11390E02AE011E0190F02
:10579000E1E0F0E0EC0FFD1FE90FF11D622F0E9428
:1057A0007237905D9083882311F0912FEFCF1123F2
:1057B00041F0FE01E10FF11D80810E94C1131150E3
:1057C000F6CF0F900F900F90DF91CF911F9108951A
:1057D0008F929F92AF92BF92CF92DF92EF92FF9201
:1057E0000F931F93CF93DF93CDB7DEB72A970FB6F2
:1057F000F894DEBF0FBECDBF6B017C01142F20E0FB
:1058000030E0A9010E94473487FF07C08DE20E9463
:10581000C113F7FAF094F7F8F094012F023060F01A
:1058200020E030E048EC52E4C701B6010E94853622
:105830006B017C010250F2CF10FF0AC020E030E083
:1058400040E251E4C701B6010E9485366B017C013C
:1058500020E030E040E05FE3C701B6010E946E3314
:105860000E94B634E1E0F0E0EC0FFD1FE10FF11D06
:105870002EE22083D12C5AE0852E912CA12CB12C24
:105880006115710581059105A9F0D11201C0D3946C
:10589000EE24E394F12CEC0EFD1EED0CF11CA501A1
:1058A00094010E947E37605DF7016083B901CA01EF
:1058B000D394E6CF80E3D11648F4E1E0F0E0EC0FBA
:1058C000FD1FED0DF11D8083D394F5CF8D2DD112E9
:1058D0000BC0D394D3948F5FE1E0F0E0EC0FFD1F99
:1058E000E80FF11D80E38083DD2041F0FE01ED0D26
:1058F000F11D80810E94C113DA94F6CF2A960FB66B
:10590000F894DEBF0FBECDBFDF91CF911F910F91F5
:10591000FF90EF90DF90CF90BF90AF909F908F90CF
:1059200008952091C20620FF08C02BE832E441E22E
:105930005DE30E94853644E001C043E00C94E82B0F
:105940002091C20620FF08C02BE832E441E25DE36B
:105950000E94853641E001C040E00C94E82B43E012
:105960000C94E82B3D98459A08951092D206909198
:10597000C20697FD03C090E29093D206882331F0CF
:105980008091D20690E289278093D206089586B14D
:1059900080729091D2068927089580913F058130C9
:1059A000A1F40E94C72C882381F010923F058CE05F
:1059B000E2E3F5E0A0E4B5E001900D928A95E1F70D
:1059C000809130058064809330050895CF93C82F6F
:1059D000811103C081E298E044C089E198E00E940F
:1059E000712B4C2F50E0FA013197E631F10580F52B
:1059F000EB58FF4F0C94A03781E098E002C08FEE87
:105A000097E00E94712B2BC08DED97E0FACF83EDCC
:105A100097E0F7CF82EC97E0F4CF83EB97E0F1CFFC
:105A200082E997E0EECF89E897E0EBCF8EE797E049
:105A3000E8CF8BE697E0E5CF8DE597E0E2CF87E40E
:105A400097E0DFCF83E397E0DCCF8FE197E0D9CF1A
:105A50008DE097E00E94712B8C2F0E94B22B8AE080
:105A600097E0CF910C94712BCF93C82F82E097E0F1
:105A70000E94712BC33091F03CF4C13061F0C23010
:105A8000A1F48CEE96E00FC0C43059F0C53069F433
:105A900082EC96E008C087EF96E005C089ED96E0BD
:105AA00002C08EEC96E00E94712B8FEB96E00E9474
:105AB000712B84EF91E0CF910C946D28CF93C82F78
:105AC0008DEB96E00E94712BC33099F038F4C13011
:105AD00069F0C230C1F487E996E013C0C53079F0AF
