:100000000C9401040C941E040C941E040C94CC0E4D
:100010000C945C300C941E040C941E040C941E046E
:100020000C941E040C941E040C941E040C9455276E
:100030000C941E040C941E040C941E040C941E04B8
:100040000C946E290C941E040C9488230C944A235F
:100050000C941E040C941E040C941E040C941E0498
:100060000C941E040C941E0425077E0E7E0E2F0792
:100070003C07490756077E0E5A077E0E68077E0E1C
:1000800072077C07AD077E0E7E0E7E0E86079307F5
:10009000A007B00DC10DE00DC10DE40DF70DEA0D87
:1000A000F00D631E661E6B1E6E1E711E741E771E83
:1000B0007A1E7D1E801E831E8F1E8F1E8F1E8F1E1A
:1000C0008F1E8F1E8F1E8F1E891E861E8C1EAD25B5
:1000D000B325B625B925BE25C625D02544264426F8
:1000E0004426D825DB25E425ED25F52544264426A0
:1000F000442644264426FD25072613261B261E26B5
:10010000272630263626084AD73B3BCE016E84BCD4
:10011000BFFDC12F3D6C74319ABD56833DDA3D0061
:10012000C77F11BED9E4BB4C3E916BAAAABE0000AA
:1001300000803F05A84CCDB2D44EB93836A9020C88
:1001400050B9918688083CA6AAAA2ABE0000008061
:100150003F003E0D0A002C52583A002C4275663A78
:10016000002C002C57506F733A002C002C4D506F10
:10017000733A003C436865636B003C416C61726D8F
:10018000003C486F6D65003C486F6C64003C5275E4
:100190006E003C5175657565003C49646C65005D99
:1001A0000D0A005B302E39672E3230313430393051
:1001B000353A000D0A003D00244E005D0D0A002076
:1001C0004600205400204D3800204D3900204D3588
:1001D00000204D3400204D3300204D3200204D31A1
:1001E00000204D30002047393400204739330020AB
:1001F000473931002047393000204732300020474E
:100200003231002047313900204731380020473152
:1002100037002047005B473830005B4733005B47BF
:1002200032005B4731005B4730005D0D0A005B54D4
:100230004C4F3A005D0D0A002C005B4739323A0002
:100240005D0D0A002C003A003330003238005B4765
:10025000005D0D0A002C005B5052423A00290D0A45
:1002600000206D61782074726176656C2C206D6D54
:100270000020616363656C2C206D6D2F7365635E78
:100280003200206D617820726174652C206D6D2FB5
:100290006D696E002C20737465702F6D6D007A008F
:1002A000790078002028003D0024002028686F6D28
:1002B000696E672070756C6C2D6F66662C206D6D95
:1002C000290D0A002028686F6D696E6720646562D9
:1002D0006F756E63652C206D736563290D0A24327A
:1002E000373D002028686F6D696E67207365656B08
:1002F0002C206D6D2F6D696E290D0A2432363D005C
:100300002028686F6D696E6720666565642C206DB6
:100310006D2F6D696E290D0A2432353D00290D0AB5
:100320002432343D002028686F6D696E672064694F
:100330007220696E76657274206D61736B3A00206D
:1003400028686F6D696E67206379636C652C206225
:100350006F6F6C290D0A2432333D002028686172CA
:1003600064206C696D6974732C20626F6F6C290D49
:100370000A2432323D002028736F6674206C696D48
:100380006974732C20626F6F6C290D0A2432313D21
:100390000020286175746F2073746172742C206260
:1003A0006F6F6C290D0A2432303D00202872657071
:1003B0006F727420696E636865732C20626F6F6C56
:1003C000290D0A2431343D00202861726320746FA6
:1003D0006C6572616E63652C206D6D290D0A243188
:1003E000333D0020286A756E6374696F6E20646502
:1003F00076696174696F6E2C206D6D290D0A243148
:10040000323D00290D0A2431313D002028737461EA
:10041000747573207265706F7274206D61736B3ABE
:1004200000202870726F62652070696E20696E7698
:100430006572742C20626F6F6C290D0A2431303D77
:100440000020286C696D69742070696E7320696E74
:10045000766572742C20626F6F6C290D0A24363D0C
:100460000020287374657020656E61626C65206978
:100470006E766572742C20626F6F6C290D0A2435BC
:100480003D00290D0A24343D002028646972207043
:100490006F727420696E76657274206D61736B3A49
:1004A00000290D0A24333D002028737465702070E4
:1004B0006F727420696E76657274206D61736B3A29
:1004C000002028737465702069646C652064656C15
:1004D00061792C206D736563290D0A24323D00205B
:1004E00028737465702070756C73652C2075736546
:1004F00063290D0A24313D0024303D0024242028A6
:1005000076696577204772626C2073657474696ED2
:100510006773290D0A242320287669657720232014
:10052000706172616D6574657273290D0A244720CC
:1005300028766965772070617273657220737461C3
:100540007465290D0A24492028766965772062752B
:10055000696C6420696E666F290D0A244E20287626
:10056000696577207374617274757020626C6F6353
:100570006B73290D0A24783D76616C7565202873AC
:10058000617665204772626C2073657474696E676A
:10059000290D0A244E783D6C696E652028736176BA
:1005A00065207374617274757020626C6F636B295F
:1005B0000D0A24432028636865636B2067636F64BA
:1005C00065206D6F6465290D0A245820286B696CBD
:1005D0006C20616C61726D206C6F636B290D0A2455
:1005E00048202872756E20686F6D696E6720637988
:1005F000636C65290D0A7E20286379636C6520731E
:1006000074617274290D0A2120286665656420686A
:100610006F6C64290D0A3F202863757272656E74D1
:1006200020737461747573290D0A6374726C2D786C
:1006300020287265736574204772626C290D0A0068
:100640000D0A4772626C20302E3967205B27242701
:1006500020666F722068656C705D0D0A005D0D0A82
:100660000044697361626C656400456E61626C652B
:10067000640043617574696F6E3A20556E6C6F63E8
:100680006B656400272448277C2724582720746F33
:1006900020756E6C6F636B00526573657420746FA8
:1006A00020636F6E74696E7565005B000D0A005003
:1006B000726F6265206661696C0041626F727420BE
:1006C000647572696E67206379636C650048617256
:1006D000642F736F6674206C696D697400414C41BE
:1006E000524D3A20000D0A00496E76616C69642013
:1006F00067636F64652049443A00556E64656669B6
:100700006E65642066656564207261746500556E6F
:10071000737570706F7274656420636F6D6D616E58
:1007200064004D6F64616C2067726F75702076692C
:100730006F6C6174696F6E004C696E65206F7665D1
:1007400072666C6F7700486F6D696E67206E6F74AC
:1007500020656E61626C656400416C61726D206C35
:100760006F636B004E6F742069646C650045455083
:10077000524F4D2072656164206661696C2E205570
:1007800073696E672064656661756C747300566189
:100790006C7565203C203320757365630053657468
:1007A00074696E672064697361626C656400566188
:1007B0006C7565203C203000496E76616C69642060
:1007C00073746174656D656E7400426164206E754A
:1007D0006D62657220666F726D6174004578706538
:1007E0006374656420636F6D6D616E64206C657405
:1007F000746572006572726F723A20006F6B0D0A39
:10080000000011241FBECFEFD8E0DEBFCDBF11E046
:10081000A0E0B1E0ECE8FCE602C005900D92A63045
:10082000B107D9F726E0A6E0B1E001C01D92AD3CCA
:10083000B207E1F70E944B110C9444360C9400006F
:10084000439808953B9A0C942004CF93DF931F9212
:10085000CDB7DEB79091A205923079F089830E94DE
:10086000B61D0E94331E8981823011F4439A05C05F
:100870000F90DF91CF910C9420040F90DF91CF91D6
:100880000895F999FECF92BD81BD81E08FBB80B5FF
:100890000895F894F999FECF92BD81BD81E08FBB98
:1008A00040B54627842F992787FD9095262F30E065
:1008B00082239323892B39F06F3F19F060BD84E0C8
:1008C00006C084E104C0442321F060BD84E28FBBF4
:1008D000F99A789408959F92AF92BF92CF92DF9247
:1008E000EF92FF920F931F93CF93DF938C017A01C6
:1008F0006B01C40ED51EEB01912C5C01A61AB70A40
:10090000CE018A0D9B1DCC15DD0591F0911009C01B
:10091000692D772767FD7095272F221F2227221F19
:1009200001C021E06991922E960E0E944904E8CF01
:10093000692DC8018E0D9F1DDF91CF911F910F91E1
:10094000FF90EF90DF90CF90BF90AF909F900C946E
:1009500049049F92AF92BF92CF92DF92EF92FF92A3
:100960000F931F93CF93DF938B017A016C01C40E19
:10097000D51EEC01912C5B01A81AB90AC5018C0F98
:100980009D1FCC15DD0591F00E944104911009C016
:10099000292D332727FD3095232F221F2227221FA1
:1009A00001C021E0922E980E8993E8CFC8018E0DE8
:1009B0009F1D0E94410421E030E0981611F020E0D4
:1009C00030E0C901DF91CF911F910F91FF90EF901F
:1009D000DF90CF90BF90AF909F9008958BE3EDE2B2
:1009E000F5E0DF011D928A95E9F76CE475E080E09F
:1009F0000E940D25811103C087E00C944D1E0895BF
:100A0000CF92DF92EF92FF920F931F93CF93DF93DA
:100A100000D000D0CDB7DEB785EAC82E85E0D82E4D
:100A200090E8E92E96E0F92E00E415E0F6016191D8
:100A30007191819191916F01F701219131914191D2
:100A400051917F0129833A834B835C830E946D33EC
:100A500029813A814B815C810E94D232F8016193F5
:100A60007193819391938F01F1EBCF16F5E0DF063F
:100A7000E9F60F900F900F900F90DF91CF911F919B
:100A80000F91FF90EF90DF90CF9008952F923F92BB
:100A90004F925F926F927F928F929F92AF92BF928E
:100AA000CF92DF92EF92FF920F931F93CF93DF933A
:100AB000CDB7DEB7AB970FB6F894DEBF0FBECDBF94
:100AC00098A38F8F89E3E8E6F5E0DF011D928A9510
:100AD000E9F78AE0EDE2F5E0A9E6B5E001900D92D4
:100AE0008A95E1F71D8E212C312CA12CB12C19A255
:100AF000512C1E8E66246394712C95E0492E992406
:100B0000939422E0822E8D8DEF8DF8A1E80FF11DD8
:100B10000081002309F444C29FEB900F9A3110F03A
:100B20000C94700E8F5F8D8FAE01475E5F4FBE01DC
:100B3000635E7F4F8F8D98A10E943516882311F434
:100B40000C94720EC98CDA8CEB8CFC8CC701B6014C
:100B50000E94D7350E943F33162F70E080E090E06E
:100B60000E946D339B01AC01C701B6010E94F131B7
:100B700020E030E048EC52E40E9409350E946C35D8
:100B80000E943F33073421F00D3409F40FC14CC1EA
:100B9000163209F48DC0D0F4143160F4113108F02C
:100BA000B3C0143009F453C008F482C01A30A1F164
:100BB0000C947E0E1C3181F128F4163108F4C4C067
:100BC0000C947E0E1E3141F10C947E0E103509F40A
:100BD00098C0A8F4153309F459C040F41B3209F445
:100BE000BCC0113309F4B9C00C947E0E1C3310F054
:100BF0000C947E0E165310936F0587E0C5C01C350C
:100C000059F028F41A3508F08DC00C947E0E1F356B
:100C100008F491C00C947E0E611106C0BE8DB11116
:100C20000C94740EE1E0EE8F1C31A1F040F414300E
:100C300071F01A3009F0A5C080926805A2C0153382
:100C400029F11C3539F11E3109F09BC011C0909279
:100C5000680597C0662341F06A3011F00C947E0E4F
:100C600024E02093680508C0F3E0F093680504C011
:100C7000611104C04092680580E08AC06A3011F0BA
:100C80000C947E0E36E030936805F6CF87E08093B3
:100C9000680577C0662341F06A3011F00C947E0E2F
:100CA000A9E0A0936805E8CF98E090936805E4CFA9
:100CB000BE8DB1110C94740EE2E0EE8F123089F00B
:100CC00028F4112359F0113081F05DC0163281F003
:100CD0001035B9F0133009F056C007C010926905FD
:100CE00052C0FE8DF09369054EC0109369054BC04C
:100CF000643111F00C947E0E24E02093690581E0AC
:100D000047C0409269053FC0123129F0133131F0DC
:100D100010926D0505C090926D0502C080926D0520
:100D200082E032C01A3519F410926C0502C090921C
:100D30006C0583E029C01D3519F490926A0502C044
:100D400010926A0584E020C0143119F490926B056A
:100D500002C010926B0585E017C03E8D3111C4C7EB
:100D6000113331F410926E0586E093E09E8F10C02F
:100D70006A3009F0C3C790926E0586E0A3E0AE8F9B
:100D800007C080E001C081E0662311F087E1C5C79C
:100D9000F30102C0EE0FFF1F8A95E2F7CF019F011A
:100DA0002A213B21232BE9F185E1B7C76111EECF61
:100DB000163018F4133048F014C0183008F49EC7E9
:100DC0001A30E8F01E3151F099C7123039F01E3157
:100DD00029F011111DC0909270051AC08092700503
:100DE00017C0143029F0153031F09092720505C00B
:100DF0008092720502C01092720589E00AC0193013
:100E000019F08092710502C0109271058AE001C04C
:100E100088E0930102C0220F331F8A95E2F7C901CF
:100E2000BFCFA82AB92A6FCE802F992787FD90952A
:100E3000A92FB92FFC01E654F109E531F10508F0BD
:100E40005DC7EC5CFF4F0C942436C0927305D092C2
:100E50007405E0927505F092760580E07FC0C0923F
:100E60007705D0927805E0927905F0927A0539A15C
:100E7000316039A381E072C0C0927B05D0927C05BD
:100E8000E0927D05F0927E0589A1826089A382E0CF
:100E900065C0C0927F05D0928005E0928105F092F6
:100EA000820599A1946099A383E058C010938305AB
:100EB00084E054C0C701B6010E943A3360938405B0
:100EC00070938505809386059093870585E046C0DD
:100ED000C0928805D0928905E0928A05F0928B0530
:100EE00086E03CC0C0928C05D0928D05E0928E05C4
:100EF000F0928F0587E032C0C0929005D0929105A4
:100F0000E0929205F092930588E028C0C092950582
:100F1000D0929605E0929705F0929805A52DA160D4
:100F20005A2E8AE01BC0C0929905D0929A05E09291
:100F30009B05F0929C05B52DB2605B2E8BE00EC038
:100F4000C0929D05D0929E05E0929F05F092A0056B
:100F5000E52DE4605E2E8CE001C089E08301082E5F
:100F600002C0000F111F0A94E2F7980122213321D9
:100F7000232B09F0BBC621E633E002C03595279547
:100F80008A95E2F720FF09C020E030E0A901C701FF
:100F9000B6010E94CB3287FDABC6202A312AB3CDE1
:100FA000552029F03E8D311102C082E08E8F25FE42
:100FB0000EC08091840590918505A0918605B09121
:100FC000870580389649A849B1050CF093C68091F1
:100FD0006A05813031F4FE8DF230A1F520FE94C611
:100FE00031C080912E0581112DC020FE1BC0809143
:100FF0006B05813039F523E333E34BEC51E4609129
:1010000073057091740580917505909176050E9425
:1010100009356093730570937405809375059093FB
:10102000760510C080913B0590913C05A0913D054F
:10103000B0913E058093730590937405A093750558
:10104000B093760530FC10C080913705909138053B
:10105000A0913905B0913A05809390059093910540
:10106000A0939205B093930580916805813031F487
:1010700026FC02C08CE151C6E89426F880916D05EB
:10108000882341F0813061F019A682E088A791E0C1
:101090009FA30BC022E029A731E038A71FA205C0FB
:1010A000A1E0A9A718A6B2E0BFA380916B0581308B
:1010B00021F0EE8DE33091F52AC005E9E02E05E040
:1010C000F02E00E010E0C52CD12CC601002E02C08D
:1010D000959587950A94E2F780FF10C023E333E3E8
:1010E0004BEC51E4D7016D917D918D919C910E94C3
:1010F0000935F70160837183828393830F5F1F4FEC
:10110000F4E0EF0EF11C03301105F9F6D2CF809117
:101110006E05813019F424E05212EEC58CE0ECE447
:10112000F5E0DE011D9601900D928A95E1F7A7FC8E
:1011300009C0309168053F8F3230B9F0383009F47A
:10114000AFC014C180916F05873010F08DE1E5C507
:1011500090913305981769F3BE01635F7F4F0E943A
:101160000D258111E6CF87E0D8C5511002C08AE174
:10117000D4C5C10180759927892B09F47BCF609173
:1011800088057091890580918A0590918B050E9450
:10119000D7350E943F336730C8F68091830584318C
:1011A00029F0823009F0AAC527FCA8C58FEA2822B9
:1011B000662319F061506F8F03C090916F059F8F68
:1011C000BE016F5F7F4F8F8D0E940D25882359F2DE
:1011D0004090830560906405709065058090660579
:1011E00090906705DE0111967D01B5E9CB2EB5E043
:1011F000DB2E10E4A12E15E0B12E00E010E0E52D6D
:10120000F0E0FEA3EDA38DA19EA1002E02C0959556
:1012100087950A94E2F780FF33C0F4E14F1226C0AD
:10122000D50158962D913D914D915C915B976D91B3
:101230007D918D919C910E94F131F6012081318147
:10124000428153810E94F131D7016D937D938D933B
:101250009C9313970230A1F4A40193010E94F131F1
:10126000F70160837183828393830AC0F6018081D2
:101270009181A281B381F70180839183A283B3839B
:101280000F5F1F4FF4E0EF0EF11C24E0C20ED11CE3
:1012900034E0A30EB11C0330110509F0B4CF0FC127
:1012A000552009F464CF60906405709065058090C6
:1012B00066059090670505E915E0A0E4CA2EA5E053
:1012C000DA2E5E018DE0A80EB11CE12CF12CA52DCB
:1012D000B0E0B8A3AF8F8F8D98A10E2C02C095956A
:1012E00087950A94E2F780FF26C0F50120813181BD
:1012F00042815381D6016D917D918D919C910E9487
:10130000F131F80120813181428153810E94F13114
:10131000D8016D937D938D939C931397B2E0EB125C
:1013200014C0A40193010E94F131F801608371831C
:10133000828393830AC0F601808D918DA28DB38D37
:10134000F80180839183A283B383FFEFEF1AFF0A32
:101350000C5F1F4F24E0C20ED11C34E0A30EB11C61
:1013600083E0E816F10409F0B6CFA8C09E8D933053
:1013700059F4AF8DA53009F48FC0A73009F499C096
:10138000A33009F09BC080C0552099F340906C05B4
:101390006090640570906505809066059090670583
:1013A000F0E4CF2EF5E0DF2E05E915E05E01BDE0AB
:1013B000AB0EB11CE12CF12CE52DF0E0FEA3EDA36A
:1013C0008DA19EA10E2C02C0959587950A94E2F7F7
:1013D00080FD0BC0F60180819181A281B381F8016B
:1013E00080839183A283B3833EC0FF8DF730D9F110
:1013F000411028C0D60158962D913D914D915C9198
:101400005B97F50160817181828193810E94F23145
:10141000D8012D913D914D915C910E94F231F801DE
:101420006083718382839383F2E0EF121CC0A40176
:1014300093010E94F231D8016D937D938D939C931B
:10144000139711C0F6012081318142815381D80167
:101450006D917D918D919C910E94F231F801608394
:10146000718382839383FFEFEF1AFF0A24E0C20E99
:10147000D11C0C5F1F4F34E0A30EB11C83E0E816B3
:10148000F10409F09DCF75CF511001C01E8EBE0131
:101490006F5F7F4F86E007C0511001C01E8EBE01F6
:1014A0006F5F7F4F87E00E940D25882309F45BCE94
:1014B00005C080916905823008F022C41F8E10910A
:1014C0006905153041F4552009F4B3C19E8D913062
:1014D00009F018C48BC2AE8DA23009F0AAC1112345
:1014E000D9F020E030E0A901609173057091740596
:1014F00080917505909176050E94CB32882309F47E
:1015000003C4143028F4123058F4113029F06EC29C
:10151000143009F44DC16AC2511068C21E8E8CC1CC
:10152000552009F424CEFFA1EF2FF0E0FEA3EDA398
:1015300038A5232F30E03BA72AA781E090E03C01AB
:1015400008A402C0660C771C0A94E2F70FA002C040
:10155000880F991F0A94E2F7682A792A852D90E06E
:1015600086219721892B09F4D1C3CF01880F991FB8
:10157000880F991FFC01E859FA4FDC01A35DBA4FAF
:1015800053962D913D914D915C91569765A576A509
:1015900087A590A90E94F1316B017C018AA59BA5CA
:1015A000880F991F880F991FFC01E859FA4FDC0139
:1015B000A35DBA4F53962D913D914D915C915697F5
:1015C00065A576A587A590A90E94F1314B015C0124
:1015D00027FE40C0E89427F82091950530919605A4
:1015E0004091970550919805609140057091410593
:1015F00080914205909143050E94CB32811120C118
:101600002091990530919A0540919B0550919C0538
:10161000609144057091450580914605909147057C
:101620000E94CB3281110CC120919D0530919E0505
:1016300040919F055091A005609148057091490522
:1016400080914A0590914B050E94CB328111F8C0E0
:1016500081E263C3F9A14F2E512C642075206728C5
:1016600009F456C321EF222280916B05813009F4E1
:101670005AC00AA51BA5000F111F000F111F045906
:101680001A4FD8011B962D913D914D915C911E975B
:10169000C501B4010E94F1312B013C01ADA0BEA0F7
:1016A000AA0CBB1CAA0CBB1CF501E459FA4F5F0144
:1016B0002385348545855685C701B6010E94F131E1
:1016C000A30192010E94F2166B017C01D8011B96C6
:1016D0002D913D914D915C911E97F5016385748527
:1016E000858596850E94F2164B015C0160938C05FE
:1016F00070938D0580938E0590938F059B01AC01AF
:10170000C701B6010E94F1316B017C01E894F7F842
:101710002AE037ED43EA5BE3C701B6010E94CE340D
:1017200018164CF163C127E7622E25E0722E00E007
:1017300010E0C201002E02C0959587950A94E2F749
:1017400080FF10C023E333E34BEC51E4D3016D91F0
:101750007D918D919C910E940935F3016083718385
:10176000828393830F5F1F4FF4E06F0E711C033071
:101770001105F9F67ECF20E030E040E05FE3C701DD
:10178000B6010E94CE3418160CF462CF2FE632E177
:1017900043E85AE3C501B4010E9409359B01AC013D
:1017A000C701B6010E94CE3418160CF451CF1EC1E9
:1017B000552009F4DCCC2091950530919605409197
:1017C0009705509198056091400570914105809171
:1017D0004205909143050E94CB32811107C12091AF
:1017E000990530919A0540919B0550919C05609117
:1017F00044057091450580914605909147050E94EA
:10180000CB328111F3C020919D0530919E0540910E
:101810009F055091A0056091480570914905809100
:101820004A0590914B050E94CB32882309F410CFD2
:10183000DDC02E8D2111DAC0C1018E7D9C7FD9C003
:1018400080916B058130B1F423E333E34BEC51E439
:1018500060918C0570918D0580918E0590918F051A
:101860000E94093560938C0570938D0580938E05D9
:1018700090938F0540908C0550908D0560908E055B
:1018800070908F0520E030E040E850E4C301B201E1
:101890000E940935A30192010E9409352B013C01E8
:1018A000A7019601C701B6010E9409359B01AC0151
:1018B000C301B2010E94F1312B013C01A501940149
:1018C000C501B4010E9409359B01AC01C301B201FD
:1018D0000E94F1312B013C0120E030E0A9010E947F
:1018E000CB3287FD19C2C301B2010E9496352B018C
:1018F0003C01A5019401C701B6010E94F2169B01AB
:10190000AC01C301B20190580E94D2322B013C01BC
:1019100080916905833021F477FA709477F8709498
:1019200080918C0590918D05A0918E05B0918F05C9
:1019300089A39AA3ABA3BCA320E030E0A901BC011A
:10194000CD010E94CB3287FF11C077FA709477F8EF
:10195000709489A19AA1ABA1BCA1B05880938C05C9
:1019600090938D05A0938E05B0938F050DA11EA1B8
:10197000000F111F000F111F04591A4FA3019201EC
:10198000C501B4010E9409359B01AC01C701B60134
:101990000E94F13120E030E040E05FE30E94093531
:1019A000D8011B966D937D938D939C931E970AA5EA
:1019B0001BA5000F111F000F111F04591A4FA3017F
:1019C0009201C701B6010E9409359B01AC01C50116
:1019D000B4010E94F23120E030E040E05FE30E9479
:1019E0000935F8016387748785879687C1018E7DE5
:1019F000907E892B09F08EC180916A0580932E0517
:101A00008091730590917405A0917505B09176054C
:101A100080933B0590933C05A0933D05B0933E0514
:101A2000C0909005D0909105E0909205F0909305BC
:101A3000A7019601609137057091380580913905AD
:101A400090913A050E94CB32882381F0C0923705ED
:101A5000D0923805E0923905F0923A05809136052A
:101A6000882321F0B701A6010E94AD26809194053C
:101A700080933F058091720590913605981761F02B
:101A800080933605409137055091380560913905AE
:101A900070913A050E94AD268091710590913505AF
:101AA000981721F0809335050E94250480916805E0
:101AB000813051F4609188057091890580918A0583
:101AC00090918B050E94CD1480916D058093310516
:101AD00080916B0580932F053E8D3330F9F4809112
:101AE0006E0580933205813089F480919D05909137
:101AF0009E05A0919F05B091A005809364059093E9
:101B00006505A0936605B093670508C0109264054B
:101B100010926505109266051092670580916F0519
:101B200090913305981759F0809333058CE0FE01AE
:101B30003D96ACE4B5E001900D928A95E1F7809175
:101B40006C05809330058091680590E0FC01329728
:101B5000E830F10508F04BC0E75BFF4F0C942436EA
:101B6000BE016F5F7F4F8F8D0E94F32380913305FD
:101B70009F8D89133CC08CE0FE013196ACE4B5E04A
:101B80001AC0AE8DAA2349F020E040E050E060E8A2
:101B90007FEB85E995E00E948A1120E040E050E06B
:101BA00060E87FEBCE0101960E948A118CE0FE0175
:101BB0003196A0E4B5E001900D928A95E1F717C047
:101BC00060E475E086E003C060E475E087E00E94B1
:101BD000F3230DC08CE0E5E9F5E0A8E5B5E0EBCF37
:101BE0008CE0E8E5F5E0DF011D928A95E9F7809148
:101BF000690580932D05853009F45DC0BE8DB23036
:101C000009F059C0843090F4823058F58823F9F0F7
:101C1000813009F047C040913B0550913C056091EF
:101C20003D0570913E0520912E0516C08430D1F5FA
:101C300040913B0550913C0560913D0570913E05FA
:101C400020912E0585E995E00E9446152BC020E0E5
:101C500040E050E060E87FEB85E995E00E948A1162
:101C600021C0C0903B05D0903C05E0903D05F09030
:101C70003E0500918C0510918D0520918E053091C7
:101C80008F05E9A5EF93F8A5FF938FA0A0902E05EF
:101C900047E755E065E975E080E495E00E94D611DC
:101CA0000F900F908CE0E5E9F5E0A0E4B5E001903D
:101CB0000D928A95E1F78091700580933405882311
:101CC00069F00E94331E1092B10580913405823074
:101CD00019F40E94161602C01092340580E01DC04F
:101CE00081E01BC082E019C088E117C089E115C0FE
:101CF00084E013C08BE111C085E20FC084E10DC008
:101D00008EE10BC08FE109C086E107C080E205C00B
:101D100083E203C084E201C082E2AB960FB6F8947E
:101D2000DEBF0FBECDBFDF91CF911F910F91FF900E
:101D3000EF90DF90CF90BF90AF909F908F907F906B
:101D40006F905F904F903F902F900895EBE6F0E0FA
:101D50008081897E8083E8E6F0E080818E7F8083C9
:101D6000089584B1897E84B99091BD0685B196FFAE
:101D700002C0897E01C0866185B993FF0BC0809146
:101D80006B00866180936B00809168008160809316
:101D9000680008950C94A60E1F920F920FB60F9232
:101DA00011242F933F934F935F936F937F938F9360
:101DB0009F93AF93BF93EF93FF938091A2058130E0
:101DC00071F08091A30585FD0AC00E9416169FB789
:101DD000F8948091A30580668093A3059FBFFF912F
:101DE000EF91BF91AF919F918F917F916F915F9193
:101DF0004F913F912F910F900FBE0F901F9018950C
:101E00002F923F924F925F926F927F928F929F920A
:101E1000AF92BF92CF92DF92EF92FF920F931F93F8
:101E2000CF93DF93CDB7DEB76C970FB6F894DEBFD4
:101E30000FBECDBF898F8091A1058111BAC140909D
:101E4000C3065090C4066090C5067090C60624EA8A
:101E500036E0388F2F8BAE01435F5F4F5A018E0102
:101E6000005F1F4F212C1D8A812C912C312C832D3A
:101E70000E949726D8018D938D01832D0E94832681
:101E8000F50181935F01AF89B88DCD90DD90ED9024
:101E9000FD90B88FAF8BA7019601622D7D89C4019B
:101EA0000E94CE3418161CF0C22CDD8874013394C5
:101EB000B3E03B1621F02C2CDD8A4701D8CF20E07F
:101EC00030E040EC5FEBC701B6010E9409356B01C1
:101ED0007C010E94331836E0332E01E0F98DEF2F9C
:101EE000F0E0F88FEF8B46015701B7FAB094B7F8DE
:101EF000B0949E01205F3F4F3C8B2B8B8091BD06A1
:101F000086FD02C0202E03C0222423942026809127
:101F1000BE06682F70E0FE01319680E090E010E090
:101F20001D8A282F4F89588D082E02C05595479538
:101F30000A94E2F7DA01A170BB2740FF0FC03D8988
:101F40003F5F3D8B011105C080829182A282B382E6
:101F500009C0C082D182E282F38204C01082118261
:101F600012821382AB0102C0559547952A95E2F77C
:101F700040FF09C020813181428153815058208324
:101F8000318342835383AB2B41F0ADE0B0E0AC0F23
:101F9000BD1FA80FB91F2C91122B019634968330C8
:101FA000910509F0BECF5D89652F70E080E090E07B
:101FB0000E946B330E9496359B01AC011093A405DF
:101FC000C301B2010E940935AB01BC0120E0CE0182
:101FD00001960E948A180E94302A0E940A2726E150
:101FE000722E83B121108725DE015096FE013D96A9
:101FF0002191922F912329F09C91982311F0209503
:10200000122311962B893C89E217F30789F7109365
:10201000A4050E94302A8091A30584FF03C00E947A
:10202000211DC7C0812F8C71E1F60E94C0290E943A
:1020300033188091C7069091C8060E94E716409019
:10204000BF065090C0066090C1067090C20681E045
:1020500008273A9409F052CF8091BE06482F50E0ED
:102060005E8B4D8BC090C906D090CA06E090CB061F
:10207000F090CC06D701C601B058898F9A8FAB8FEC
:10208000BC8F85EAA82E85E0B82E90E8292E96E030
:10209000392EDE0111964D0100E010E08F89988DF8
:1020A000002E02C0959587950A94E2F780FF3DC007
:1020B0008D899E89002E02C0959587950A94E2F736
:1020C00080FF23C0F10144A055A066A077A0A30122
:1020D0009201C701B6010E94F231D4016D937D9344
:1020E0008D939C931397F10120813181428153811B
:1020F000C301B2010E9409350E94D934D5016D9304
:102100007D938D939C93139724C0298D3A8D4B8D8D
:102110005C8DD4012D933D934D935C931397F50102
:10212000108211821282138214C0D5016D917D91AB
:102130008D919C910E946D33F1012081318142810A
:1021400053810E94D232D4016D937D938D939C93E1
:1021500013970F5F1F4FB4E08B0E911CE4E0AE0E9F
:10216000B11CF4E02F0E311C0330110509F096CF9D
:102170000E94651B4091C3065091C4066091C5063C
:102180007091C60620E0CE0101960E948A1888E070
:102190008093A2059FB7F8948091A30582608093F5
:1021A000A3059FBF0E94211D0E94331E84E08093DF
:1021B000A2056C960FB6F894DEBF0FBECDBFDF91BF
:1021C000CF911F910F91FF90EF90DF90CF90BF9034
:1021D000AF909F908F907F906F905F904F903F90C7
:1021E0002F900895CF92DF92EF92FF920F931F935B
:1021F000CF93DF938C01C4EAD6E0F801C190D1906F
:10220000E190F1908F0120E030E0A901C701B60113
:102210000E94CE34181654F0299139914991599160
:10222000C701B6010E94CB3287FF27C08091A2056B
:10223000803179F49FB7F8948091A30588608093EA
:10224000A3059FBF0E94211D8091A1058823D1F382
:1022500019C00E9416169FB7F8948091A305806656
:102260008093A3059FBFDF91CF911F910F91FF90A6
:10227000EF90DF90CF900C94211DF6E0C03BDF077C
:1022800009F0BBCFDF91CF911F910F91FF90EF909D
:10229000DF90CF9008950E9418230E9450260E943C
:1022A000EC290E944B308EE1E1EAF5E0DF011D925E
:1022B0008A95E9F781E08093A10578948091BD0625
:1022C00084FF03C081E08093A205C1E00E94DE2369
:1022D0000E94EE040E94A8260E9422040E94B10ED1
:1022E0000E94F41C0E9433180E94C0290E94651BA2
:1022F0000E9400051092A1051092A3058091BD06D1
:1023000081FF03C0C093B10502C01092B1050E94C5
:10231000C31DDCCFEF92FF921F93CF93DF9300D0CA
:1023200000D0CDB7DEB77C01122F8091BD0685FFAE
:102330000BC0C70149835A836B837C830E94F210D0
:102340007C816B815A8149818091A205823021F183
:1023500049835A836B837C830E94211D8091A10550
:1023600081111AC00E94821849815A816B817C8137
:10237000882339F00E94B61D49815A816B817C8186
:10238000E7CF212FC7010E948A188091A2058111F1
:1023900003C088E08093A2050F900F900F900F90DC
:1023A000DF91CF911F91FF90EF9008952F923F9270
:1023B0004F925F926F927F928F929F92AF92BF9255
:1023C000CF92DF92EF92FF920F931F93CF93DF9301
:1023D000CDB7DEB7E7970FB6F894DEBF0FBECDBF1F
:1023E0009C8B8B8B1B013A0109871A872B873C87B3
:1023F000AD8A2D961FAD2D972E962FAD2E97298B3A
:1024000084E0889EA00111245A834983AB89BC894A
:10241000A40FB51FBF8BAE8B460D571D598F488F2C
:10242000FA0180809180A280B3802D913D914D91E1
:102430005C91C501B4010E94F2316A8F7B8F8C8F51
:102440009D8FF4E01F9F800111242B893C89200F70
:10245000311F3F8F2E8FA301400F511F59A348A357
:10246000DA014D905D906D907C90F9012081318171
:1024700042815381C301B2010E94F2316AA37BA35E
:102480008CA39DA3A501940150582D873E874F87AB
:10249000588BD301C201B0588D839E83AF83B88718
:1024A000E981FA81E20DF31D2A8D3B8D4C8D5D8D06
:1024B00060817181828193810E94F1312B013C0105
:1024C000F101E00FF11F2AA13BA14CA15DA16081A8
:1024D0007181828193810E94F1314B015C01A301E2
:1024E00092016D857E858F8598890E940935698363
:1024F0007A838B839C83A50194016D817E818F817A
:1025000098850E9409359B01AC0169817A818B8194
:102510009C810E94F23169837A838B839C83A5011D
:1025200094016D857E858F8598890E9409354B01C0
:102530005C01A30192016D817E818F8198850E944B
:1025400009359B01AC01C501B4010E94F13129811B
:102550003A814B815C810E9465322B013C01809164
:102560002D0520E030E0A901823079F4C301B201E9
:102570000E94CE3487FD19C02BED3FE049EC50E4BA
:10258000C301B2010E94F1310EC0C301B2010E9429
:10259000CB32181654F02BED3FE049EC50E4C30168
:1025A000B2010E94F2312B013C018090B90690905B
:1025B000BA06A090BB06B090BC0629853A854B852B
:1025C0005C85CA01B9010E94F231A50194010E9403
:1025D000F1319B01AC01C501B4010E9409350E9493
:1025E00096354B015C0120E030E040E05FE3C30141
:1025F000B2010E94093529853A854B855C850E9488
:1026000009359F77A50194010E94D2320E94A83318
:102610000E943F337FA36EA3DB01AB2B09F486C17D
:102620004B01A12CB12CBD89BB2361F0C501B401C4
:102630000E946B339B01AC01C701B6010E940935B2
:102640006B017C01C501B4010E946B334B015C013D
:102650009B01AC01C301B2010E94D23269877A8723
:102660008B879C87F989E4E0FE9FC00111242B89A8
:102670003C89280F391F3A8B298BF101E80FF91F8C
:10268000D9012D913D914D915C9160817181828143
:1026900093810E94F131A50194010E94D2326CAB6A
:1026A0007DAB8EAB9FAB29853A854B855C85CA0196
:1026B000B9010E9409359B01AC0160E070E080E047
:1026C00090E40E94F1314B015C012BEA3AEA4AE2C4
:1026D0005EE369857A858B859C850E9409352B018F
:1026E0003C0120E030E040E850E4C501B4010E9424
:1026F000F2319B01AC01C301B2010E94093568A708
:1027000079A78AA79BA720E030E040E05FE3C501FE
:10271000B4010E9409356CA77DA78EA79FA71982D7
:1027200001E010E0EEA1FFA10E171F0709F4FEC0A3
:10273000B981BC3008F04AC02CA53DA54EA55FA5C7
:102740006D817E818F8198850E9409354B015C01E6
:1027500028A539A54AA55BA56D857E858F859889B5
:102760000E940935A50194010E94F231B62EA72ED0
:10277000982E892E2CA53DA54EA55FA56D857E853D
:102780008F8598890E9409352B013C0128A539A520
:102790004AA55BA56D817E818F8198850E94093550
:1027A0009B01AC01C301B2010E94F1316D877E87AC
:1027B0008F87988BE981EF5FE9838B2D9A2DA92D67
:1027C000B82D8D839E83AF83B8876EC0B80180E03B
:1027D00090E00E946B3329853A854B855C850E9489
:1027E00009354B015C010E94CF326D837E838F835C
:1027F0009887C501B4010E948C354B015C01E88DBE
:10280000F98D80819181A281B3819C01AD015058E5
:1028100029833A834B835C83A8A1B9A18D919D91B3
:102820000D90BC91A02D88AB99ABAAABBBAB2D8111
:102830003E814F81588569817A818B819C810E947C
:1028400009352B013C01A501940168A979A98AA940
:102850009BA90E9409359B01AC01C301B2010E94F2
:10286000F2316D877E878F87988BA50194016981EE
:102870007A818B819C810E9409354B015C012D81FD
:102880003E814F81588568A979A98AA99BA90E9490
:1028900009359B01AC01C501B4010E94F1316D8382
:1028A0007E838F83988719822D853E854F85588931
:1028B0006A8D7B8D8C8D9D8D0E94F231EE89FF8912
:1028C00060837183828393832D813E814F815885FC
:1028D0006AA17BA18CA19DA10E94F231AE8DBF8D1A
:1028E0006D937D938D939C9313972CA93DA94EA92D
:1028F0005FA9E989FA8960817181828193810E944F
:10290000F231A989BA896D937D938D939C93139726
:102910002D89B701A6018B899C890E948A1180911B
:10292000A105811121C00F5F1F4FFCCE2D89B7017A
:10293000A601C101E7960FB6F894DEBF0FBECDBF6A
:10294000DF91CF911F910F91FF90EF90DF90CF908B
:10295000BF90AF909F908F907F906F905F904F90BF
:102960003F902F900C948A11E7960FB6F894DEBF33
:102970000FBECDBFDF91CF911F910F91FF90EF90D0
:10298000DF90CF90BF90AF909F908F907F906F908F
:102990005F904F903F902F9008958F929F92AF92AB
:1029A000BF92CF92DF92EF92FF924B015C01809138
:1029B000A205823009F447C020E030E040EA51E44B
:1029C000C501B4010E9409350E94A8330E943F331B
:1029D0006B017C010E94331E20E030E04AE754E4A2
:1029E000C501B4010E9409354B015C0182E38C9D55
:1029F000B0018D9D700D112480E090E00E946B333A
:102A00009B01AC01C501B4010E94F1310E94A833C1
:102A10000E943F33CB010E94E716C114D10499F004
:102A20000E94211D21E0C21AD1088091A1058111C7
:102A30000AC08FEF90E722E0815090402040E1F7FC
:102A400000C00000EACFFF90EF90DF90CF90BF90E2
:102A5000AF909F908F90089584E08093A2050E948C
:102A6000A60E84E00E94000F83E00E94000F0E94E7
:102A7000211D8091A105811108C00E9400051092BE
:102A8000A2050E942A270C94B10E08954F925F92DE
:102A90006F927F928F929F92AF92BF92CF92DF926E
:102AA000EF92FF920F931F93CF93DF9300D000D04C
:102AB000CDB7DEB74C016A017B01722E8091A20571
:102AC000823009F49EC00E94331E6090B1050E94BE
:102AD000021D882351F09FB7F8948091A30580646C
:102AE0008093A3059FBF0E94211D8091A1058111A4
:102AF00088C0272DB701A601C4010E948A1181E078
:102B00008093B2059FB7F8948091A305826080936B
:102B1000A3059FBF0E94211D8091A105811171C055
:102B20008091A205877FB1F78091B205813041F491
:102B30009FB7F8948091A30580648093A3059FBFFD
:102B40000E94211D8091A10581115BC00E94C029B6
:102B50000E9433180E94651B03EB15E080E8A82E45
:102B600086E0B82E2401F8016191719181919191D3
:102B70008F01F50121913191419151915F0129839B
:102B80003A834B835C830E946D3329813A814B8168
:102B90005C810E94D232F20161937193819391938F
:102BA0002F01F5E00F3B1F07F1F6272DB701A60116
:102BB000C4010E948A119FB7F8948091A305826096
:102BC0008093A3059FBF0E94331E8091A1058111B0
:102BD00018C06092B1050F900F900F900F90DF9189
:102BE000CF911F910F91FF90EF90DF90CF90BF900A
:102BF000AF909F908F907F906F905F904F900C94CC
:102C000053200F900F900F900F90DF91CF911F9155
:102C10000F91FF90EF90DF90CF90BF90AF909F907B
:102C20008F907F906F905F904F9008958091A30553
:102C300084FD1AC09FB7F8948091A30580618093AA
:102C4000A3059FBF0E94A1260E9420048091A20597
:102C5000847351F09FB7F8948091A30580628093AC
:102C6000A3059FBF0C942A2708956F927F928F929D
:102C70009F92AF92BF92CF92DF92EF92FF920F930B
:102C80001F93CF93DF937C018B016A01FB0180814D
:102C9000F701E80FF11D2081EF012D3229F4229672
:102CA00021816624639407C02B3211F0219602C063
:102CB00022962181612CA12CB12C712C60E070E056
:102CC000CB01FE0130ED932E920E29E02915C8F0BC
:102CD000B39428E02B1588F0A1107A94A5E0B0E019
:102CE0009B01AC010E942A36660F771F881F991F2F
:102CF000690D711D811D911D0BC0A11009C0739438
:102D000007C02EEF921207C0A11005C0AA24A394F9
:102D100021962081D6CFBB2009F449C00E946B3395
:102D20004B015C0120E030E0A9010E94CB328823F6
:102D300061F18FEF78166CF42AE037ED43E25CE343
:102D4000C501B4010E9409354B015C017394739471
:102D5000F0CF78120BC02DEC3CEC4CEC5DE3C501E0
:102D6000B4010E9409354B015C010FC0772069F066
:102D700020E030E040E251E4C501B4010E94093591
:102D80004B015C017A9417149CF3662021F0B7FA8A
:102D9000B094B7F8B094F60180829182A282B38297
:102DA000CE19DF09C150F801C08381E001C080E085
:102DB000DF91CF911F910F91FF90EF90DF90CF9017
:102DC000BF90AF909F908F907F906F9008950097E5
:102DD00041F0EFE9FFE03197F1F700C00000019703
:102DE000F6CF08958F929F92AF92BF92CF92DF92CB
:102DF000EF92FF9269017A019B01AC010E940935B3
:102E00004B015C01A7019601C701B6010E9409357B
:102E10009B01AC01C501B4010E94F231FF90EF901B
:102E2000DF90CF90BF90AF909F908F900C9496358D
:102E30004F925F926F927F928F929F92AF92BF92CA
:102E4000CF92DF92EF92FF920F931F93CF93DF9376
:102E500010912401111101C012E1115000912201C1
:102E6000101709F4EFC089E2189FE0011124CA5D30
:102E7000DE4F8D889E88AF88B88C69A17AA18BA11E
:102E80009CA19B01AC010E94F2312DA13EA14FA15A
:102E900058A50E9409356B017C019B01AC01B4016E
:102EA000C5010E94CB3287FF02C064017501A601F3
:102EB000B701498B5A8B6B8B7C8B111101C012E1CE
:102EC00077247A94710E701619F029E2622E27C0C9
:102ED00080912501081351C00E940E2A4EC0679CA4
:102EE000800111240A5D1E4F711002C092E1792EFB
:102EF0007A9480912501781202C00E940E2AF8016E
:102F0000C588D688E788F08CA70196016189728907
:102F1000838994890E94CB32811106C0E801809197
:102F200022017812DCCF29C0F80161A172A183A12E
:102F300094A19B01AC010E94F231F80125A136A1B8
:102F400047A150A50E94093529893A894B895C8996
:102F50000E94F2314B015C01A70196010E94CB3225
:102F6000F80187FF05C0818A928AA38AB48AD6CFE6
:102F7000C18AD28AE38AF48AD1CF60902201F9E231
:102F80006F9E800111240A5D1E4F77247394760C86
:102F900082E1781201C0712C5090240189E2482E00
:102FA000751409F44DC0479CE0011124CA5DDE4F41
:102FB000F80181889288A388B488C988DA88EB8868
:102FC000FC88A7019601C501B4010E94CB3287FF9E
:102FD00023C0F80161A172A183A194A19B01AC015E
:102FE0000E94F231F80125A136A147A150A50E9407
:102FF00009359B01AC01C501B4010E94F2314B01BE
:103000005C01A70196010E94CB3287FF05C0898A27
:103010009A8AAB8ABC8A672C2D893E894F89588D44
:1030200069897A898B899C890E94CB32811101C080
:10303000672C7394F2E17F1201C0712C8E01B0CF26
:1030400060922201DF91CF911F910F91FF90EF903D
:10305000DF90CF90BF90AF909F908F907F906F90B8
:103060005F904F9008958CE1E6E0F1E0DF011D9262
:103070008A95E9F7109225011092240181E080934E
:10308000230110922201089590912501809124013D
:10309000891769F081E0890F823109F480E020917D
:1030A0002201921302C0809322018093250108958A
:1030B0008091250190912401981739F029E2829F8F
:1030C000C00111248A5D9E4F089580E090E008952C
:1030D000E0912501EF5FE23109F4E0E08091240105
:1030E000E81761F089E2E89FF0011124EA5DFE4FE4
:1030F00061897289838994890C94963560E070E0C7
:10310000CB01089581E0209125019091230129139D
:1031100080E008952F923F924F925F926F927F923C
:103120008F929F92AF92BF92CF92DF92EF92FF92D7
:103130000F931F93CF93DF93CDB7DEB7AD970FB645
:10314000F894DEBF0FBECDBF142F052F6B8F7C8F81
:10315000822E2091240139E2239F10011124F101D4
:10316000EA5DFE4F1F01158616861786108A15A286
:1031700016A217A210A6108249E956E766E97EE773
:1031800041A352A363A374A35C0130E8E32E36E0AD
:10319000F32E9E01235F3F4F3E8F2D8F86E091E0FF
:1031A00098A38F8F6F01FE013196FAA3E9A3912CAA
:1031B000F50161917191819191915F01F7012081F8
:1031C0003181428153810E9409350E94D934ED8DAD
:1031D000FE8D6193719381939193FE8FED8FEF8DAF
:1031E000F8A14190519061907190F8A3EF8F64190C
:1031F0007509860997092B013C0197FF07C04424F4
:1032000055243201461A570A680A790AF6014182A2
:10321000528263827482F101258536854785508903
:10322000421653066406750610F429013A01F101AD
:10323000458656866786708A0E946D33F701208125
:103240003181428153810E94D2322B013C01E9A19C
:10325000FAA16193719381939193FAA3E9A320E07A
:1032600030E0A9010E94CB3287FF0AC0F1019081B2
:10327000892D9DA70E948D269DA5892BF101808314
:10328000A3019201C301B2010E940935F10125A1F8
:1032900036A147A150A50E94F231F10165A376A3A2
:1032A00087A390A79394F4E0EF0EF11C24E0C20EE4
:1032B000D11C33E093127CCF0E9496356B017C01C8
:1032C000F10165A376A387A390A785859685A78539
:1032D000B089892B8A2B8B2B09F4DEC120E030E0EA
:1032E000A901612F702F8B8D9C8D0E94CB3287FDA1
:1032F00021C0882061F0212F302F4B8D5C8DC701BC
:10330000B6010E94D232162F072F8B8F9C8F20E0A0
:1033100030E040E85FE3612F702F8B8D9C8D0E9421
:10332000CB3287FF0DC010E000E030E83B8F8FE329
:103330008C8F06C019E906E7F6E9FB8F2EE72C8F84
:10334000A701960160E070E080E89FE30E94D2321E
:1033500069A77AA78BA79CA7E2E1F1E0FAA3E9A30A
:103360002CE836E038A32F8FCE010D969A8F898FE7
:10337000FE013196FE8FED8FC12CD12C7601ED8DA3
:10338000FE8D80809180A280B38020E030E0A90192
:10339000C501B4010E94CB32882309F47FC029A55E
:1033A0003AA54BA55CA5C501B4010E9409354B01A6
:1033B0005C01ED8DFE8D60837183828393839B011D
:1033C000AC0160E070E080E89FE30E94D2322B0104
:1033D0003C01E89477F8EF8DF8A12081318142819A
:1033E0005381C301B2010E9409356BA37CA38DA355
:1033F0009EA39B01AC01612F702F8B8D9C8D0E9431
:10340000CB3287FF06C01BA30CA3FB8DFDA32C8D25
:103410002EA3F101F1A1FB8FF101F2A1FC8FF101CB
:10342000F3A1FFA3F101F4A1F8A7EF8DF8A1248582
:10343000358546855785C301B2010E9409353B0198
:103440008C019B01AC016B8D7C8D8FA198A50E9496
:10345000CB3287FF04C06B8C7C8C0FA118A5C301F5
:10346000D801F10181A392A3A3A3B4A3E9A1FAA176
:103470002081318142815381C501B4010E94093507
:103480009B01AC01C701B6010E94F1316B017C01C7
:103490001BA10CA1FDA1FB8F2EA12C8F8D8D9E8DCC
:1034A00004969E8F8D8FE9A1FAA13496FAA3E9A321
:1034B0002F8D38A12C5F3F4F38A32F8FE98DFA8DC8
:1034C0008E179F0709F05BCF909124018091250111
:1034D00098130AC0F101118A128A138A148A118E74
:1034E000128E138E148E49C0A701960160E070E021
:1034F00080E89FE30E94F13120E030E040E05FE3AC
:103500000E9409350E9496356B017C012091B50619
:103510003091B6064091B7065091B806F10161A10D
:1035200072A183A194A10E940935A70196010E946E
:1035300009354B015C01A701960160E070E080E86D
:103540009FE30E94F1319B01AC01C501B4010E94CF
:10355000D2326B017C0120E030E0A9010E94CB3225
:1035600087FF04C0C12CD12CE12CF12CA601B7019E
:10357000F101418F528F638F748F212F302F4B8D2C
:103580005C8D612F702F8B8D9C8D0E940935162FBD
:10359000072FF82EE92E862F902FAF2DBE2DF1018B
:1035A000858F968FA78FB0A3A18CB28CC38CD48C3F
:1035B00060901E0170901F01809020019090210169
:1035C0009301A401612F702F8F2D9E2D0E94CB326D
:1035D00087FD0BC09301A401B501C6010E94CB3247
:1035E00087FD11C0530164010EC0212F302F4F2DD4
:1035F0005E2DB501C6010E94CB3287FD04C0A12E0D
:10360000B02ECF2CDE2CC501D601F101858B968B17
:10361000A78BB08F8CE0FE013196A2E1B1E0019062
:103620000D928A95E1F7812F902FAF2DBE2D8093BB
:103630001E0190931F01A0932001B09321018CE003
:10364000FE013D96A6E0B1E001900D928A95E1F76A
:1036500080912301809324018F5F823109F480E0FF
:1036600080932301AD960FB6F894DEBF0FBECDBF99
:10367000DF91CF911F910F91FF90EF90DF90CF904E
:10368000BF90AF909F908F907F906F905F904F9082
:103690003F902F900C941817AD960FB6F894DEBF9C
:1036A0000FBECDBFDF91CF911F910F91FF90EF9093
:1036B000DF90CF90BF90AF909F908F907F906F9052
:1036C0005F904F903F902F9008958091A505909125
:1036D000A605A091A705B091A80580930601909337
:1036E0000701A0930801B09309018091A905909169
:1036F000AA05A091AB05B091AC0580930A01909307
:103700000B01A0930C01B0930D018091AD05909138
:10371000AE05A091AF05B091B00580930E019093D6
:103720000F01A0931001B09311010895809124011D
:1037300090912501891708F48E5E891B08950E94D7
:103740000E2A80912501809322010C941817CF93A3
:10375000DF93EC018991882319F00E942E23FACF80
:10376000DF91CF910895CF93DF93FC018491EF0116
:103770002196882321F00E942E23FE01F7CFDF91AE
:10378000CF910895EF92FF920F931F93CF93DF9302
:10379000CDB7DEB728970FB6F894DEBF0FBECDBF0A
:1037A000FE0131967F019E01275F3F4F982F917058
:1037B00091938695E217F307C9F78F01F80182917B
:1037C0008F01805D0E942E230E151F05B9F72896E4
:1037D0000FB6F894DEBF0FBECDBFDF91CF911F9122
:1037E0000F91FF90EF9008951F93CF93DF9300D038
:1037F0001F92CDB7DEB7811109C080E30F900F9003
:103800000F90DF91CF911F910C942E2390E02AE02E
:1038100011E0190FE1E0F0E0EC0FFD1FE90FF11DE1
:10382000622F0E94F635905D9083882311F0912FCE
:10383000EFCF112341F0FE01E10FF11D80810E94C5
:103840002E231150F6CF0F900F900F90DF91CF9154
:103850001F9108958F929F92AF92BF92CF92DF9265
:10386000EF92FF920F931F93CF93DF93CDB7DEB705
:103870002A970FB6F894DEBF0FBECDBF6B017C0157
:10388000142F20E030E0A9010E94CB3287FF07C04F
:103890008DE20E942E23F7FAF094F7F8F094012FAE
:1038A000023060F020E030E048EC52E4C701B6019D
:1038B0000E9409356B017C010250F2CF10FF0AC053
:1038C00020E030E040E251E4C701B6010E94093532
:1038D0006B017C0120E030E040E05FE3C701B6010E
:1038E0000E94F2310E943A33E1E0F0E0EC0FFD1F5C
:1038F000E10FF11D2EE22083D12C5AE0852E912C70
:10390000A12CB12C6115710581059105A9F0D11289
:1039100001C0D394EE24E394F12CEC0EFD1EED0CCB
:10392000F11CA50194010E940236605DF7016083DD
:10393000B901CA01D394E6CF80E3D11648F4E1E09F
:10394000F0E0EC0FFD1FED0DF11D8083D394F5CF5A
:103950008D2DD1120BC0D394D3948F5FE1E0F0E0B2
:10396000EC0FFD1FE80FF11D80E38083DD2041F0A7
:10397000FE01ED0DF11D80810E942E23DA94F6CF19
:103980002A960FB6F894DEBF0FBECDBFDF91CF9160
:103990001F910F91FF90EF90DF90CF90BF90AF906D
:1039A0009F908F9008952091BD0620FF08C02BE8BE
:1039B00032E441E25DE30E94093544E001C043E0A6
:1039C0000C942A1C2091BD0620FF08C02BE832E48D
:1039D00041E25DE30E94093541E001C040E00C9402
:1039E0002A1C43E00C942A1C3D988091BD0687FF59
:1039F00004C045981092BF050895459A80E28093CF
:103A0000BF05089586B180729091BF0589270895FA
:103A10008091B2058130A1F40E94021D882381F0BB
:103A20001092B2058CE0E5EAF5E0A3EBB5E0019079
:103A30000D928A95E1F78091A30588608093A30594
:103A40000895CF93C091A305CC2309F486C08C2F91
:103A5000807639F181E08093A205C6FF17C0C5FFCB
:103A600002C08FEF01C08DEF0E949B1E81E00E947B
:103A7000BA1E9FB7F8948091A3058F7E8093A3050B
:103A80009FBF8091A30584FFFCCF03C08EEF0E94EF
:103A90009B1E9FB7F8948091A3058F798093A3050F
:103AA0009FBFC4FF04C081E08093A1055DC0C0FF3B
:103AB0000AC00E94F9219FB7F8948091A3058E7FD8
:103AC0008093A3059FBFC3FF15C08091A2058031DD
:103AD00049F480E28093A2050E940E2A0E94302AB7
:103AE0001092B1059FB7F8948091A305877F8093CA
:103AF000A3059FBFC1FF1DC08091A205883089F436
:103B000080E18093A2050E94302A0E940A278091BA
:103B1000BD0681FF04C081E08093B10502C0109210
:103B2000B1059FB7F8948091A3058D7F8093A3057D
:103B30009FBFC2FF12C00E945818892B21F088E055
:103B40008093A20502C01092A2059FB7F8948091BD
:103B5000A3058B7F8093A3059FBF8091A2058473EB
:103B600019F0CF910C94302ACF9108958091B1052E
:103B7000882341F09FB7F8948091A30582608093D9
:103B8000A3059FBF0895CF93DF930E94E01E80910D
:103B9000A205813021F482E00E94BA1E21C0109259
:103BA000A20588E094E00E9498301AC08D3069F038
:103BB000DD2389F1D1E0893209F4D0E00E94742339
:103BC0008F3F09F444C08A3089F7EC2FF0E0E85FBA
:103BD000FB4F10820E94211D8091A105882311F0C6
:103BE000C0E0EBCF80910804811103C00E944D1EFC
:103BF000F7CF843229F488E094E00E94B730F6CF02
:103C00008091A205813011F489E0F0CF88E094E042
:103C10000E944605EBCF813288F28F3279F28832EA
:103C2000A1F0CF3428F08BE00E944D1EC0E0C6CF3B
:103C30002C2F30E0CF5F9FE9980FF901E85FFB4F31
:103C40009A3108F480528083B9CFD1E0B7CF0E9477
:103C5000B61D0E94211D8091A105882309F4AECFD5
:103C6000DF91CF9108950E94B61D8091A205803109
:103C700071F481E08093B1050AC08091A205803182
:103C800059F40E94211D8091A105811105C00E9457
:103C90005818892BB1F7F1CF0895CF93C82F811110
:103CA00003C08CEF97E044C084EF97E00E94B31B01
:103CB0004C2F50E0FA013197E631F10580F5EF5ACB
:103CC000FF4F0C9424368CED97E002C08AEC97E00D
:103CD0000E94B31B2BC088EB97E0FACF8EEA97E0E7
:103CE000F7CF8DE997E0F4CF8EE897E0F1CF8DE63E
:103CF00097E0EECF84E697E0EBCF89E597E0E8CF59
:103D000086E497E0E5CF88E397E0E2CF82E297E0B0
:103D1000DFCF8EE097E0DCCF8AEF96E0D9CF88EE58
:103D200096E00E94B31B8C2F0E94F41B85EE96E058
:103D3000CF910C94B31BCF93C82F8DED96E00E94CA
:103D4000B31BCE3F51F0CF3F29F0CD3F51F48FEA66
:103D500096E005C08DEC96E002C08AEB96E00E94EA
:103D6000B31B8CEA96E00E94B31B84EF91E0CF91E5
:103D70000C94E716CF93C82F8AEA96E00E94B31BF3
:103D8000C33091F038F4C13061F0C230A1F484E85E
:103D900096E00FC0C43059F0C53069F481E696E072
:103DA00008C088E996E005C082E796E002C08AE68E
:103DB00096E00E94B31B8DE596E0CF910C94B31B67
:103DC00080E496E00C94B31B8CEF94E00C94B31B4E
:103DD000FF920F931F93CF93DF9388EF94E00E949D
:103DE000B31B8091B0060E94F41B8FED94E00E94FB
:103DF000B31B8091B3060E94F41B81EC94E00E94F7
:103E0000B31B8091B1060E94F41B88EA94E00E94E3
:103E1000B31B8091B1060E94C21B81EA94E00E940C
:103E2000B31B8091B2060E94F41B89E894E00E94C3
:103E3000B31B8091B2060E94C21B82E894E00E94EC
:103E4000B31B8091BD0682FB882780F90E94F41B7A
:103E500081E694E00E94B31B8091BD0686FB882713
:103E600080F90E94F41B81E494E00E94B31B8091CE
:103E7000BD06881F8827881F0E94F41B81E294E0FA
:103E80000E94B31B8091B4060E94F41B8BE094E067
:103E90000E94B31B8091B4060E94C21B83E094E091
:103EA0000E94B31B6091B5067091B6068091B7066B
:103EB0009091B8060E94F11C83EE93E00E94B31B20
:103EC0006091B9067091BA068091BB069091BC06CC
:103ED0000E94F11C88EC93E00E94B31B8091BD0608
:103EE00081700E94F41B8BEA93E00E94B31B8091C7
:103EF000BD06869581700E94F41B81E993E00E94C3
:103F0000B31B8091BD0685FB882780F90E94F41BB6
:103F100086E793E00E94B31B8091BD0683FB882750
:103F200080F90E94F41B8BE593E00E94B31B809103
:103F3000BD06829581700E94F41B8FE393E00E947E
:103F4000B31B8091BE060E94F41B85E293E00E94A1
:103F5000B31B8091BE060E94C21B8DE193E00E94BC
:103F6000B31B6091BF067091C0068091C10690910D
:103F7000C2060E94F11C80E093E00E94B31B609196
:103F8000C3067091C4068091C5069091C6060E9432
:103F9000F11C83EE92E00E94B31B8091C7060E9441
:103FA000F41B84EC92E00E94B31B6091C9067091EF
:103FB000CA068091CB069091CC060E94F11C8BEA38
:103FC00092E00E94B31B84E6F82E10E0C0E8D6E031
:103FD00000E089EA92E00E94B31B802F8F0D0E94BF
:103FE000F41B87EA92E00E94B31B123071F0133089
:103FF000B9F0113029F0688179818A819B8117C0DD
:104000006C857D858E859F8512C020E030E041E67D
:1040100055E4688D798D8A8D9B8D0E94D23207C0C0
:104020008CA19DA1AEA1BFA1BC01CD0190580E9461
:10403000F11C84EA92E00E94B31B013029F00230A7
:1040400031F082EA92E005C080EA92E002C08EE997
:1040500092E00E94B31B123051F0133059F011302E
:1040600019F084E992E008C082E892E005C081E797
:1040700092E002C081E692E00E94B31B8DE592E0DF
:104080000E94B31B0F5F2496033009F0A2CF8AE091
:10409000F80E1F5F8CE8F81299CFDF91CF911F9136
:1040A0000F91FF900895CF92DF92FF920F931F938D
:1040B000CF93DF9300D000D0CDB7DEB787E592E095
:1040C0000E94B31B03EB15E090E8C92E96E0D92EB1
:1040D000F12CF80161917191819191918F01F6011B
:1040E00021913191419151916F0129833A834B8301
:1040F0005C830E946D3329813A814B815C810E94EF
:10410000D2320E94D31CF2E0FF1621F085E592E046
:104110000E94B31BF39483E0F812DBCF81E592E0B9
:104120000F900F900F900F90DF91CF911F910F91F3
:10413000FF90DF90CF900C94B31BEF92FF920F9300
:104140001F93CF93DF93CDB7DEB72C970FB6F894BC
:10415000DEBF0FBECDBFF12CBE016F5F7F4F8F2D35
:104160000E940D25811104C087E00E944D1E69C088
:104170008EE492E00E94B31B86E0F81631F0E7E08F
:10418000FE1208C088E492E002C08BE492E00E9434
:10419000B31B04C086E38F0D0E94F41B86E492E0FB
:1041A0000E94B31B8E010F5F1F4FE12CF80161913C
:1041B0007191819191918F010E94D31CF2E0EF16D1
:1041C00019F084E492E002C080E492E00E94B31B04
:1041D000E39483E0E812EACFF394E8E0FE12BCCF68
:1041E0008AE392E00E94B31B08E515E0F12CF80188
:1041F00061917191819191918F010E94D31CF2E0A4
:10420000FF1619F088E392E002C084E392E00E9476
:10421000B31BF39483E0F812EACF8EE292E00E949F
:10422000B31B60916405709165058091660590915E
:1042300067050E94D31C8AE292E00E94B31B0E9491
:1042400053202C960FB6F894DEBF0FBECDBFDF9182
:10425000CF911F910F91FF90EF90089580912D05C0
:10426000823091F038F4882361F08130A1F482E249
:1042700092E00FC0833059F0853069F485E192E017
:1042800008C086E292E005C08EE192E002C08AE1B9
:1042900092E00E94B31B82E192E00E94B31B8091E6
:1042A00033058A5C0E94F41B80913105813049F00E
:1042B00028F0823051F483E092E005C08DE092E076
:1042C00002C088E092E00E94B31B80912F0581110B
:1042D00003C08EEF91E002C089EF91E00E94B31B12
:1042E00080913005811103C084EF91E002C08FEE10
:1042F00091E00E94B31B80912E05813019F48AEE63
:1043000091E002C085EE91E00E94B31B80913405DC
:10431000813049F028F0823051F489ED91E005C0F8
:1043200081EE91E002C08DED91E00E94B31B80917F
:104330003605813031F040F0823051F481ED91E06A
:1043400005C085ED91E002C08DEC91E00E94B31BA9
:1043500080913505882329F0823039F485EC91E08D
:1043600002C089EC91E00E94B31B82EC91E00E94B4
:10437000B31B80913F050E94F41B8FEB91E00E94DC
:10438000B31B60913B0570913C0580913D05909178
:104390003E050E94E21C8BEB91E00C94B31B1F9333
:1043A000CF93DF93182FEB0188EB91E00E94B31BB2
:1043B000812F0E94F41B86EB91E00E94B31BCE017B
:1043C0000E94A71B83EB91E0DF91CF911F910C948A
:1043D000B31BCF93DF93EC0183EA91E00E94B31B00
:1043E000CE010E94A71B8FE991E0DF91CF910C9441
:1043F000B31B9F92AF92BF92CF92DF92EF92FF9248
:104400000F931F93CF93DF93CDB7DEB76C970FB6A3
:10441000F894DEBF0FBECDBF8CE0E5EAF5E0DE012B
:104420001D9601900D928A95E1F78091A205843046
:10443000D9F040F48130D9F070F08230E1F483E7B4
:1044400091E017C0803151F0803259F0883099F4F2
:1044500082E991E00EC089E991E00BC08DE891E01E
:1044600008C087E891E005C081E891E002C08AE7D2
:1044700091E00E94B31B9090B406892D837019F4CB
:1044800090FE4FC030C08E01035F1F4F30E8C32E37
:1044900036E0D32ECE0101967C015E0199E1A90E92
:1044A000B11CF80161917191819191918F01F60197
:1044B00021913191419151916F01298F3A8F4B8F09
:1044C0005C8F0E946D33298D3A8D4B8D5C8D0E94DF
:1044D000D232F70161937193819391937F010A1511
:1044E0001B05F9F6CDCF8CE691E00E94B31B6981E4
:1044F0007A818B819C810E94D31C8AE691E00E9484
:10450000B31B6D817E818F8198850E94D31C8AE6C2
:1045100091E00E94B31B69857A858B859C850E94FA
:10452000D31C8091B40681FF4DC083E691E00E94C8
:10453000B31B2CE4E22E25E0F22E8E010F5F1F4FFD
:10454000B12C6801F70161917191819191917F0185
:1045500020853185428553850E94F2319B01AC0153
:10456000F80160817181828193810E94F131F801AB
:104570006083718382839383F2E0BF120FC0209126
:1045800064053091650540916605509167050E946C
:10459000F131F80160837183828393830C5F1F4F35
:1045A000F60160817181828193810E94D31CF2E0C7
:1045B000BF1621F081E691E00E94B31BB39423E083
:1045C000B212BFCF8091B40682FF08C08BE591E0A4
:1045D0000E94B31B0E94961B0E94F41B8091B4069C
:1045E00083FF08C086E591E00E94B31B0E940F2361
:1045F0000E94F41B82E591E06C960FB6F894DEBF42
:104600000FBECDBFDF91CF911F910F91FF90EF9023
:10461000DF90CF90BF90AF909F900C94B31B909180
:104620005A0480915B04891708F48058891B089507
:10463000E0ECF0E08081826080831092C50080E130
:104640008093C400E1ECF0E0808180618083808110
:10465000886080838081806880830895E091590418
:1046600091E09E0F903409F490E020915804921349
:1046700005C02091A30524FFF8CF0895F0E0E05491
:10468000FA4F8083909359048091C1008062809397
:10469000C10008951F920F920FB60F9211248F93AD
:1046A0009F93EF93FF9380915804E82FF0E0E0543C
:1046B000FA4F90819093C6008F5F803409F480E0B8
:1046C0008093580490915904891305C08091C100CA
:1046D0008F7D8093C100FF91EF919F918F910F90FB
:1046E0000FBE0F901F90189590915A0480915B0413
:1046F000891761F0E92FF0E0E050FA4F80819F5F69
:10470000903809F490E090935A0408958FEF08953B
:104710001F920F920FB60F9211242F933F934F9336
:104720005F936F937F938F939F93AF93BF93EF9319
:10473000FF938091C6008132B1F028F48831E1F412
:104740000E9416162AC08F3341F08E37A9F49FB706
:10475000F8948091A30582600BC09FB7F894809174
:10476000A305816005C09FB7F8948091A305886078
:104770008093A3059FBF11C0E0915B0491E09E0F61
:10478000903809F490E020915A04921731F0F0E04B
:10479000E050FA4F808390935B04FF91EF91BF91BB
:1047A000AF919F918F917F916F915F914F913F91C9
:1047B0002F910F900FBE0F901F90189580915B0462
:1047C00080935A04089521E5829FC001112440E599
:1047D00050E09D5F0C946B0440E550E0BC018EEA14
:1047E00093E00C946B042DE0829FC00111244CE0F7
:1047F00050E09E5F0C946B0469E080E090E00E94C2
:1048000049044DE450E060E876E081E090E00C94EB
:104810006B048AE08093B00689E18093B30610921E
:10482000B10686E08093B20683E08093B4068AE006
:1048300097EDA3EABCE38093B5069093B606A093E8
:10484000B706B093B8068FE692E1A3E0BBE380938E
:10485000B9069093BA06A093BB06B093BC0610921B
:10486000BE0680E090E0A8ECB1E48093BF06909390
:10487000C006A093C106B093C20680E090E0AAEF04
:10488000B3E48093C3069093C406A093C506B09387
:10489000C6062AEF30E03093C8062093C70640E0F2
:1048A00050E060E87FE34093C9065093CA066093E6
:1048B000CB067093CC0622E02093BD0640E050E08A
:1048C0006AE773E440938006509381066093820602
:1048D0007093830640938406509385066093860602
:1048E00070938706409388065093890660938A06E2
:1048F00070938B0680938C0690938D06A0938E0602
:10490000B0938F068093900690939106A0939206A1
:10491000B09393068093940690939506A093960681
:10492000B093970680E090EAACE0B7E480939806F5
:1049300090939906A0939A06B0939B0680939C0649
:1049400090939D06A0939E06B0939F068093A00629
:104950009093A106A093A206B093A30680E090E0F6
:10496000A8E4B3EC8093A4069093A506A093A606B2
:10497000B093A7068093A8069093A906A093AA06D1
:10498000B093AB068093AC069093AD06A093AE06B1
:10499000B093AF060C94FC2360E080E093E00E94AB
:1049A000490460E081E593E00C94490460E08EEAFC
:1049B00093E00C9449041F93CF93DF93182FEB01DE
:1049C00081E5189FB00111247D5F40E550E0CE01E4
:1049D0000E94A904892B39F41882BE01812F0E94FC
:1049E000E32380E001C081E0DF91CF911F91089522
:1049F000CF93DF93EC0140E550E06EEA73E00E9454
:104A0000A904892B31F41882CE010E94EC2380E0A6
:104A100001C081E0DF91CF9108951F93CF93DF9381
:104A2000182FEB018DE0189FB00111247E5F4CE040
:104A300050E0CE010E94A904892B59F48CE0FE01BC
:104A400011928A95E9F7BE01812F0E94F32380E03D
:104A500001C081E0DF91CF911F91089580E090E047
:104A60000E944104893059F44DE450E061E070E067
:104A700080E896E00E94A90421E0892B09F420E057
:104A8000822F0895CF92DF92EF92FF92CF93DF9320
:104A9000C82F6A017B0120E030E0A901C701B601FF
:104AA0000E94CB3287FDEEC0C43608F445C02CE925
:104AB0002C0F80E02330B8F530E0823079F0F90136
:104AC000EE0FFF1FEE0FFF1F833011F1813019F041
:104AD000E058F94F23C0E457F94F20C0E901CC0F4B
:104AE000DD1FCC0FDD1FC856D94F20E030E040E776
:104AF00052E4C701B6010E94093520E030E040E7EA
:104B000052E40E940935688379838A839B83B6C007
:104B1000EC55F94FF7FAF094F7F8F094C082D1828F
:104B2000E282F382ABC08F5F2A3008F4ADC08430DC
:104B300009F4AAC02A50BECFC701B6010E94D735DA
:104B40000E943F338C2F90E08C31910508F09CC07F
:104B5000FC01E959FF4F0C942436633008F496C0E9
:104B60006093B0068BC06093B30688C06093B106B3
:104B700002C06093B2060E94842980C08091BD0665
:104B8000662311F0846007C08B7F05C08091BD064D
:104B9000662321F080648093BD0670C08F7BFBCFBD
:104BA0008091BD06662311F08068F5CF8F77F3CF33
:104BB0006093B40663C0C092B506D092B606E09288
:104BC000B706F092B8065AC0C092B906D092BA069B
:104BD000E092BB06F092BC0651C08091BD066623F0
:104BE00011F08160D8CF8E7FD6CF8091BD0666232D
:104BF00011F08260D0CF8D7FCECF8091BD0666232D
:104C000021F084FF45C08062C6CF8F7DC4CF8091E4
:104C1000BD06662311F0886001C0877F8093BD06C2
:104C20000E94B10E2BC08091BD06662311F08061F9
:104C3000B2CF8F7CB0CF6093BE0620C0C092BF06BB
:104C4000D092C006E092C106F092C20617C0C09290
:104C5000C306D092C406E092C506F092C6060EC006
:104C600070E07093C8066093C70608C0C092C9067A
:104C7000D092CA06E092CB06F092CC060E94FC23AA
:104C800080E007C084E005C083E003C086E001C087
:104C90008AE0DF91CF91FF90EF90DF90CF90089561
:104CA0001F93CF93DF93CDB7DEB72C970FB6F89451
:104CB000DEBF0FBECDBF0E942E2581110BC087E045
:104CC0000E944D1E0E9409240E94CC240E94D624DA
:104CD0000E94E81E10E0BE016F5F7F4F812F0E948F
:104CE0000D25811103C087E00E944D1E1F5F183003
:104CF00091F72C960FB6F894DEBF0FBECDBFDF91B3
:104D0000CF911F910895882321F0813021F488E00C
:104D1000089584E0089580E10895882321F081308A
:104D200021F480E4089580E2089580E808958823BE
:104D300021F0813021F484E0089582E0089580E13B
:104D40000895E0EBF0E080818F7780832B980895C1
:104D5000239A239A259A0C94A126CF92DF92EF9260
:104D6000FF92CF93DF931F92CDB7DEB76A017B012D
:104D70009091A205923009F445C089830E94B61D26
:104D80000E94331E8981811109C00F90DF91CF915C
:104D9000FF90EF90DF90CF900C94A126813011F41A
:104DA0002D9801C02D9A83E88093B0008091B100C6
:104DB000887F82608093B10020E030E84BE356E4C6
:104DC000C701B6010E94CE3418163CF4C12C80E80D
:104DD000D82E8BE3E82E86E4F82E2BE734E14EEA5A
:104DE0005CE3C701B6010E94093520E030E040E0F5
:104DF0005FE30E94F2310E94A8330E943F33609328
:104E0000B3002B9A0F90DF91CF91FF90EF90DF903E
:104E1000CF9008958091BD0682FF02C0289A01C0FC
:104E200028988091A2058471A1F080918C048093D0
:104E3000A00480918D0480939F048091B006880F18
:104E40008450819580939E0480916F00826080934E
:104E50006F00089580916F008D7F80936F00809127
:104E60008100887F81608093810010928B04809103
:104E7000B3068F3F21F49091A30595FF09C090914F
:104E8000A205943029F090E00E94E71681E001C06D
:104E900080E09091BD0692FF02C091E089278823AF
:104EA00011F0289A0895289808951F920F920FB62E
:104EB0000F9211242F933F934F935F936F937F93A0
:104EC0008F939F93AF93BF93CF93DF93EF93FF9312
:104ED00080918B048111EFC19BB18091A004807EF1
:104EE0009F71892B8BB98BB1837E90919F04892B05
:104EF0008BB980919E0486BD82E085BD81E0809360
:104F00008B0478948091B2049091B304892B09F0BA
:104F1000A4C08091900490918F04981709F492C0D6
:104F2000E091900486E0E89FF0011124EC54FB4FDF
:104F3000F093B304E093B204838194819093890049
:104F400080938800808191819093AE048093AD041A
:104F5000A2818091AF048A1771F1A093AF0481E11F
:104F6000A89FD0011124A852BB4FB093B104A093C5
:104F7000B0041D968D919D910D90BC91A02DB6957C
:104F8000A795979587958093910490939204A09309
:104F90009304B09394048093950490939604A09303
:104FA0009704B09398048093990490939A04A093E3
:104FB0009B04B0939C04C091B004D091B104809143
:104FC0008C04988189278093A004258189819A8106
:104FD000AB81BC81022E04C0B695A79597958795A5
:104FE0000A94D2F78093A1049093A204A093A304FF
:104FF000B093A4048D819E81AF81B885022E04C038
:10500000B695A795979587950A94D2F78093A504AE
:105010009093A604A093A704B093A80489859A85C9
:10502000AB85BC8504C0B695A795979587952A95BD
:10503000D2F78093A9049093AA04A093AB04B093F1
:10504000AC040BC00E942A279FB7F8948091A30557
:1050500084608093A3059FBF2EC10E94081D1092FB
:105060009F048091A1049091A204A091A304B09107
:10507000A404409191045091920460919304709122
:105080009404840F951FA61FB71F809391049093DB
:105090009204A0939304B0939404E091B004F0912F
:1050A000B1044585568567857089481759076A0791
:1050B0007B0768F524E020939F0445855685678526
:1050C0007089841B950BA60BB70B8093910490936A
:1050D0009204A0939304B093940420818091A50539
:1050E0009091A605A091A705B091A80525FF04C041
:1050F0000197A109B10903C00196A11DB11D8093BB
:10510000A5059093A605A093A705B093A805809147
:10511000A5049091A604A091A704B091A804409181
:105120009504509196046091970470919804840FAF
:10513000951FA61FB71F8093950490939604A09384
:105140009704B093980445855685678570894817FC
:1051500059076A077B0778F520919F042860209300
:105160009F044585568567857089841B950BA60B22
:10517000B70B8093950490939604A0939704B093F3
:10518000980420818091A9059091AA05A091AB0572
:10519000B091AC0526FF04C00197A109B10903C075
:1051A0000196A11DB11D8093A9059093AA05A09316
:1051B000AB05B093AC058091A9049091AA04A0918D
:1051C000AB04B091AC044091990450919A04609161
:1051D0009B0470919C04840F951FA61FB71F80939A
:1051E000990490939A04A0939B04B0939C044585E2
:1051F000568567857089481759076A077B0778F5D0
:1052000020919F04206120939F04458556856785E2
:105210007089841B950BA60BB70B80939904909310
:105220009A04A0939B04B0939C0420818091AD05C7
:105230009091AE05A091AF05B091B00527FF04C0D5
:105240000197A109B10903C00196A11DB11D809369
:10525000AD059093AE05A093AF05B093B0058091D6
:10526000A205843039F48091A40590919F0489238C
:1052700080939F048091AD049091AE040197909328
:10528000AE048093AD04892B69F41092B30410929C
:10529000B204809190048F5F80939004863011F463
:1052A0001092900480918D0490919F04892780939F
:1052B0009F0410928B04FF91EF91DF91CF91BF91EA
:1052C000AF919F918F917F916F915F914F913F919E
:1052D0002F910F900FBE0F901F9018951F920F9255
:1052E0000FB60F9211248F939F939BB180918D04E1
:1052F0008C71937E892B8BB915BC9F918F910F90E8
:105300000FBE0F901F901895FF920F931F93CF938E
:10531000DF9310928D0410928C04C0E0D0E00C2F2B
:105320001C2F2091B10630E08C2F0C2E02C0359539
:1053300027950A94E2F720FF07C0F0908D040E94A1
:1053400083268F2980938D042091B20630E002C01D
:10535000359527951A95E2F720FF08C010918C0427
:10536000802F0E948D26812B80938C042196C33040
:10537000D105A9F6DF91CF911F910F91FF9008956C
:105380000E942A278BE2ECE5F4E0DF011D928A956A
:10539000E9F783E2E1E9F4E0DF011D928A95E9F79C
:1053A00010928A04109289041092900410928F0433
:1053B00081E080938E0410928B040E9484298BB12B
:1053C000837E90918D04892B8BB98BB18F719091D5
:1053D0008C04892B8BB908958AB18C618AB9209A83
:1053E0008AB1806E8AB9E1E8F0E080818F7E8083A7
:1053F000808188608083E0E8F0E080818C7F80831A
:1054000080818F708083EEE6F0E08081887F8083EA
:1054100014BC15BC8081816080830895CF93DF9395
:10542000C0918904D0918A042097B9F081E08093DB
:105430005D0460917304709174048091750490917F
:1054400076049B01AC010E940935698B7A8B8B8BAA
:105450009C8B10928A0410928904DF91CF91089559
:105460002F923F924F925F926F927F928F929F9274
:10547000AF92BF92CF92DF92EF92FF920F931F9362
:10548000CF93DF93CDB7DEB7E5970FB6F894DEBFC5
:105490000FBECDBF9091900480918E04981709F4AF
:1054A000E1C58091890490918A04892B09F057C243
:1054B0000E9458181C0190938A04809389040097D5
:1054C00009F4D0C580915D041091A205882319F0DC
:1054D00010925D04BDC080915C048F5F853019F02F
:1054E00080935C0402C010925C04E0915C0421E1B2
:1054F0002E9FF0011124E852FB4FF0938804E093B3
:105500008704D1018C91808311964D915D916D91AD
:105510007C91149703E0440F551F661F771F0A956F
:10552000D1F7418352836383748315964D915D91C6
:105530006D917C91189783E0440F551F661F771F6C
:105540008A95D1F7458356836783708719964D9165
:105550005D916D917C911C9793E0440F551F661FE0
:10556000771F9A95D1F741875287638774871D9675
:105570006D917D918D919C9150976B017C0123E001
:10558000CC0CDD1CEE1CFF1C2A95D1F7C586D686F7
:10559000E786F08A0E946B3360935E0470935F0429
:1055A0008093600490936104F10125A136A147A185
:1055B00050A50E94D2329B01AC01609362047093AB
:1055C0006304809364049093650460E070E080EA73
:1055D0009FE30E94D23260936604709367048093C5
:1055E00068049093690410926A0410926B041092FC
:1055F0006C0410926D041032E1F460917B047091A0
:105600007C0480917D0490917E0460937304709378
:10561000740480937504909376049B01AC010E94FE
:105620000935D10151966D937D938D939C93549739
:105630000FC0F10161897289838994890E9496352E
:10564000609373047093740480937504909376044C
:1056500010926F04109270041092710410927204F0
:10566000D10191968D909D90AD90BC909497A5019D
:10567000940160E070E080E09FE30E94D2322B0151
:105680003C01F101C5A0D6A0E7A0F0A4103209F0BA
:105690004DC0F2E0F0936E04D10151962D913D91F1
:1056A0004D915C9154972D833E834F8358870E9480
:1056B00009359B01AC01C701B6010E94F1312B01F4
:1056C0003C0120E030E0A9010E94CB3287FF1DC0E1
:1056D000A5019401C501B4010E94F231A701960110
:1056E0000E9409359B01AC016D817E818F81988577
:1056F0000E94F1310E94963560937B0470937C0484
:1057000080937D0490937E042AC140926F0450924E
:105710007004609271047092720410927B04109273
:105720007C0410927D0410927E0419C110926E04C4
:10573000C0927F04D0928004E0928104F0928204AF
:105740000E9468184B015C0160937B0470937C0499
:1057500080937D0490937E049B01AC010E940935E7
:1057600069837A838B839C830091890410918A04D6
:10577000D80195962D913D914D915C9198972987EF
:105780003A874B875C8751962D913D914D915C9165
:1057900054972D833E834F8358879B01AC016D81C5
:1057A0007E818F8198850E94F1319B01AC01C301FC
:1057B000B2010E9409359B01AC0169857A858B8510
:1057C0009C850E94F23120E030E040E05FE30E94DF
:1057D00009356B017C0120E030E0A9010E94CE3444
:1057E00018160CF0ACC029853A854B855C85C7013D
:1057F000B6010E94CB3287FF8EC0F801858C968C53
:10580000A78CB0A029813A814B815C81C501B4018C
:105810000E94F1319B01AC01C301B2010E94093524
:10582000609383047093840480938504909386042A
:10583000A70196010E94CB3287FF3DC0C501B4018C
:105840000E9496356093770470937804809379046E
:1058500090937A04A50194016D817E818F81988552
:105860000E94CB32811104C0F1E0F0936E0477C046
:105870002D813E814F815885C501B4010E94F131CF
:105880009B01AC01C301B2010E9409359B01AC012F
:1058900060917F04709180048091810490918204D2
:1058A0000E94F13160937F0470938004809381049F
:1058B0009093820454C0C0927F04D0928004E092FE
:1058C0008104F0928204C0928304D0928404E09216
:1058D0008504F0928604D80191966D917D918D9109
:1058E0009C9194979B01AC010E94F231A701960113
:1058F0000E94093529813A814B815C810E94F231F5
:105900000E949635609377047093780480937904AD
:1059100090937A0424C0B2E0B0936E048091730433
:1059200090917404A0917504B091760480937704EB
:1059300090937804A0937904B0937A0410C01092E5
:105940007F0410928004109281041092820480924D
:10595000770490927804A0927904B0927A048091AE
:105960008F04F6E0F89FF0011124EC54FB4FFE8306
:10597000ED8380915C0482832091890430918A04B4
:105980003E872D87D9019596BC91BCA7F901F6A158
:10599000FDA7D9019796BC91BEA7F901F0A5FFA775
:1059A0002091660430916704409168045091690425
:1059B0006CA57DA58B2F9F2F0E94F13168A779A739
:1059C0008AA79BA720E030E0A9010E94CB3287FF85
:1059D00004C018A619A61AA61BA620917F04288F1A
:1059E00030918004398F409181044A8F5091820414
:1059F0005B8F809177048C8F909178049D8FA0911C
:105A00007904AE8FB0917A04BF8FE0918304E8A34C
:105A1000F0918404F9A3209185042AA3309186048F
:105A20003BA340916F044CA3509170045DA38091FF
:105A300071048EA3909172049FA320917B043091F6
:105A40007C0440917D0450917E0428AB39AB4AAB75
:105A50005BAB309173043983409174044987209083
:105A600075043090760450916E045F878CA58C8B02
:105A70009DA59D8BAEA5AE8BBFA5BF8B3EE3C32E70
:105A800033ECD32E3EE2E32E39E3F32E188A198A43
:105A90001A8A1B8A26013701EF85EE2321F0E130B7
:105AA00009F47CC0B1C0AD85BE8591962D913D9124
:105AB0004D915C919497C701B6010E9409354B0145
:105AC0005C0120E030E040E05FE30E9409359B018B
:105AD000AC0169817985C1010E94F2319B01AC0161
